:020000040800F2
:10000000008B002015040008496100087B5F000890
:10001000456100081532000831900008000000001A
:1000200000000000000000000000000021030008A4
:10003000C3340008000000007D0300085167000879
:100040002F0400082F0400082F0400082F040008C4
:100050002F0400082F0400082F0400082F040008B4
:100060002F0400082F0400082F0400082F040008A4
:100070002F0400082F0400082F0400082F04000894
:100080002F0400082F0400082F0400082F04000884
:10009000193200082F0400082F0400082F0400085C
:1000A0002F0400082F0400082F0400082F04000864
:1000B0009D6800082F0400082F0400082F04000882
:1000C0002F0400082F0400082F0400082F04000844
:1000D0002F040008816C00082F040008D96D000867
:1000E0002F0400082F0400082F0400082F04000824
:1000F0002F0400082F0400082F0400082F04000814
:100100002F0400082F0400082F0400082F04000803
:100110002F0400082F0400082F0400082F040008F3
:100120002F0400082F0400082F0400082F040008E3
:100130002F0400082F0400082F0400082F040008D3
:10014000293200082F0400082F0400084D61000820
:100150002F0400082F0400082F0400082F040008B3
:100160002F0400082F0400082F0400082F040008A3
:100170002F0400082F0400082F04000800000000CE
:100180002F0400082F04000800F002F800F0B8F86F
:100190000AA090E8000C82448344AAF10107DA45E2
:1001A00001D100F0ADF8AFF2090EBAE80F0013F07C
:1001B000010F18BFFB1A43F001031847D4C0000019
:1001C000F4C000000A444FF0000C10F8013B13F09B
:1001D000070408BF10F8014B1D1108BF10F8015BA0
:1001E000641E05D010F8016B641E01F8016BF9D193
:1001F00013F0080F1EBF10F8014BAD1C0C1B09D1EA
:100200006D1E58BF01F801CBFAD505E014F8016B5B
:1002100001F8016B6D1EF9D59142D6D370470000ED
:100220000023002400250026103A28BF78C1FBD8FF
:10023000520728BF30C148BF0B6070476E2900F0DD
:100240009085702900F0D38666290BF00F87652909
:100250000BF00C8767290BF0098761290BF00887E1
:1002600003681B0A28BF41F08001692900F0E8817A
:10027000642900F0E581752900F0E2816F2900F022
:100280006086782900F09F86E92900F0FB85E42943
:1002900000F0F885F52900F0F585EF2900F05D867E
:1002A000F82900F09E860368DB0928BF41F0800131
:1002B000632901F07385732901F07885E32901F042
:1002C0008385F32901F08885002070471FB50BF066
:1002D000C0FE9DE8030000F053FC00F08AFB01F033
:1002E00055F90400002000210BF03AFC401C60602E
:1002F000002000210BF01EFCE0601FBD10B510BDFA
:1003000001F0C2FF1146FFF7E1FF09F017FA02F012
:100310005FFA03B4FFF7F2FF03BC02F0CFFA00006C
:100320002C4B19680868B0E8F04F80F30988BFF3D8
:100330006F8F4FF0000080F31188704700000000BD
:1003400008480068006880F308884FF0000080F3D8
:10035000148862B661B6BFF34F8FBFF36F8F00DFB3
:1003600000BF00BF08ED00E0DFF80C00016841F4B9
:1003700070010160704700BF88ED00E0EFF3098075
:10038000BFF36F8F134B1A681EF0100F08BF20EDDC
:10039000108A20E9F04F106009B44FF0100080F38C
:1003A0001188BFF34F8FBFF36F8F0AF025FD4FF019
:1003B000000080F3118809BC19680868B0E8F04FA4
:1003C0001EF0100F08BFB0EC108A80F30988BFF34D
:1003D0006F8F704768000020EFF3058070470000C2
:1003E0000B49D1F800C04A685CF8043B1068184417
:1003F00042F8040B8C4528BFA1F1DC0C8A4228BFCF
:10040000A1F1DC02C1F800C04A6020F00040704752
:10041000944A00200948804709480047FEE7FEE764
:10042000FEE7FEE7FEE7FEE7FEE7FEE7FEE7FEE7A4
:1004300004480549054A064B704700003968000822
:1004400089010008004B0020008B0020006B002079
:10045000006B002070B5064600F076FB056806F1DB
:100460000B0020F00704B4429CBF002070BD2B4657
:100470006A68BAB11068A04210D304F1080188423A
:100480003CBF5068586007D351681019416011682B
:10049000091B016058601460101D70BD134652683E
:1004A000002AE7D12146284600F056FB0028DED17D
:1004B00070BD70B50446051F00F046FB0068002CB7
:1004C00014BF446870BD002C18BFAC423CBF20462E
:1004D0006468F8D301680A18AA4218BF456003D1BE
:1004E0002A6805461144016028684119A1421CBFD1
:1004F0006C6070BD6168696021680844286070BDE7
:1005000053EA020C00F069802DE9F04B4FF0000631
:10051000002B1FBFB3FA83F503FA05F424FA05F69E
:100520005E4012BF1643B2FA82F502FA05F4C5F135
:1005300020051EBF22FA05FC44EA0C04203556EAC9
:10054000044C4FEA144418BF641C4FF000084FF0ED
:100550000009904271EB030C39D3002919BFB1FA9D
:1005600081F701FA07F6B0FA80F700FA07F6C7F14B
:1005700020071EBF20FA07FC46EA0C062037B6FB10
:10058000F4FCA7EB0507103F07F01F0BCBF120068B
:100590000CFA0BFB2CFA06F644BFB3460026202FBC
:1005A000A4BF5E464FF0000B5BEA060C08BF4FF09D
:1005B000010B19EB0B09ABFB027C48EB0608C01BD7
:1005C00006FB02CC0BFB03CC71EB0C01C1E70B4625
:1005D000024641464846BDE8F08B13B54FF0000097
:1005E0004FF00001AFF30080BDE81C4070470000F1
:1005F0001CB50C46064B7B4469460090204600F033
:10060000CAFB04460020694600F0D8FB20461CBD0A
:10061000C30700000FB41CB5084B06AA7B4469460B
:100620000090059800F0B7FB04460020694600F0F2
:10063000C5FB20461CBC5DF814FB00009D070000B4
:100640002DE9F0410646002410687529314616A5AB
:1006500010D000F0F2FA002802DA404213A507E0B9
:1006600031688A0701D512A502E0490704D511A512
:10067000012401E000F0EAFA00210A2206F1240731
:1006800009E0B0FBF2FCB0FBF2F302FB1C003030DF
:1006900078541846491C0028F3D123462A46304690
:1006A000BDE8F04100F004BB000000002D00000098
:1006B0002B000000200000002DE9F05F8946044671
:1006C0004FF0000ADFF874B1FB44C0F820A02046C8
:1006D000E1688847002874D0252806D0D4E9012194
:1006E0009047206A401C2062F1E700265F462046C2
:1006F000E16888472028054607DB312D05D27819A7
:1007000010F8200C08B10643F1E7B00701D526F038
:100710000406C4F81CA00027C4F818A02A2D09D08C
:10072000284608F0D4FD38B304EB8708303DC8F8FC
:10073000185019E059F8041B204604EB8702916118
:10074000E1688847012F054618D1E069002820DAC2
:1007500026F020061DE0D8F8180000EB800005EB1D
:1007600040003038C8F818002046E1688847054640
:1007700008F0ADFD0028EED1012F0AD02E2D08D1B2
:100780002046E16888477F1C0546022F46F0200678
:10079000C4DBA069002803DA404246F00106A061EC
:1007A000F00701D026F010066C2D0BD0682D09D073
:1007B0004C2D39D06A2D35D0742D35D07A2D33D0CB
:1007C00016E038E0E1682F4620468847B8420546E3
:1007D00009D16C2F26D04FF48060E1680643204693
:1007E0008847054604E06C2F1AD04FF4807006430A
:1007F0000DB3A5F14100192802D8203546F4006652
:100800004A462946204626604E46FFF717FD80B12E
:1008100001280BD0F61D26F0070000F1080956E765
:100820004020E4E78020D8E70020D6E706F104095D
:100830004DE7284652E7206ABDE8F09FC4BA0000A1
:100840000FB400B58DB010A9099000910B904FF036
:10085000FF300A9000200C90064878440690064825
:1008600078446A4607900F9909A800F05BFE0DB026
:100870005DF814FBE70C0000FF0C00002DE9FF5FA2
:100880001D464FF0FF3B91464FF000085F46D5E90B
:100890000146A96901987F1C8847296A82468847D2
:1008A0000028F6D1BAF1FF3F0CD0002E24F4C0642A
:1008B00019DD600614D5BAF12B0F09D0BAF12D0F4E
:1008C0000ED103E0584604B0BDE8F09F44F48064C4
:1008D000A96901987F1C8847761E8246002E02DD9A
:1008E000BAF1300F03D0B9F1000F26D032E0A96978
:1008F000761E01987F1C44F400748847002E8246BF
:1009000005DDBAF1780F06D0BAF1580F03D0B9F16E
:10091000000F10D01EE0B9F1000F02D0B9F1100F96
:1009200018D1A969761E01987F1C24F400748847A9
:100930008246102002E0082000E00A20814609E0FB
:10094000A96908FB0908761E01987F1C44F400740D
:1009500088478246002E05DD4946504600F052FB8E
:100960000028EDDAE96901988847A00502D46FF004
:100970000100A8E7E00725D1600613D5600502D580
:10098000C8F1000000E0404629680A1D2A60096895
:10099000220501D5087015E0220701D5088011E075
:1009A00008600FE02868011D29600068210502D554
:1009B00080F8008006E0210702D5A0F8008001E061
:1009C000C0F8008038467EE70B4910B5A1F17C02E3
:1009D0000A4CC2E93712372106E000EB104342F817
:1009E0002130074B00FB03400B1EA1F10101F4DC99
:1009F00010BD0120E8E70000344A0020E119D66666
:100A0000CD0D0100032A40F2308010F0030C00F0FD
:100A1000158011F8013BBCF1020F624498BF11F838
:100A200001CB00F8013B38BF11F8013BA2F10402F1
:100A300098BF00F801CB38BF00F8013B11F0030369
:100A400000F02580083AC0F0088051F8043B083ACD
:100A500051F804CBA0E80810F5E7121D5CBF51F86F
:100A6000043B40F8043BAFF30080D20724BF11F8E9
:100A7000013B11F801CB48BF11F8012B24BF00F84E
:100A8000013B00F801CB48BF00F8012B704710B5BF
:100A9000203AC0F00B80B1E81850203AA0E8185076
:100AA000B1E81850A0E81850BFF4F5AF5FEA027C37
:100AB00024BFB1E81850A0E8185044BF18C918C0A6
:100AC000BDE810405FEA827C24BF51F8043B40F847
:100AD000043B08BF7047D20728BF31F8023B48BF2C
:100AE00011F8012B28BF20F8023B48BF00F8012B6A
:100AF00070474FF0000200B51346944696462039E1
:100B000022BFA0E80C50A0E80C50B1F12001BFF4C6
:100B1000F7AF090728BFA0E80C5048BF0CC05DF82C
:100B200004EB890028BF40F8042B08BF704748BF7A
:100B300020F8022B11F0804F18BF00F8012B7047EE
:100B4000704770477047000000487047A44A002073
:100B5000704770477047704738B504460A46002012
:100B60006946AFF30080002808BF38BD02460099EF
:100B7000204600F013FD012038BD012001F07CBBB0
:100B8000F8B5AFF30080054600200C46102000BFEA
:100B90000646A819A0420DD9324669460020AFF397
:100BA0000080070008BF01F067FB0098A04218BF53
:100BB0000546C419FFF7C8FF05600746F01D20F081
:100BC00007004619284600F00AF8B44208BFF8BDED
:100BD000A21B31463868BDE8F84000F0DFBC0021B8
:100BE0000160C0E9011070471020704770B50446DD
:100BF00085690068C10601D5302600E02026C007BF
:100C000007D070BDD4E9012130469047206A401CCE
:100C100020626D1EF6D570BD70B5044685690078FA
:100C2000C00707D170BDD4E9012120209047206A78
:100C3000401C20626D1EF6D570BD09684A0501D5BD
:100C400040B27047C905FCD500B2704709684A0533
:100C500001D5C0B27047C905FCD580B2704770B5E8
:100C60000C460546012A05D02878800600D5EA6999
:100C7000002302E0012305E05B1C934202D2E05C0A
:100C80000028F9D1A869E618C01AA861286A184492
:100C900028622846FFF7AAFF04E0D5E9012114F8ED
:100CA000010B9047B442F8D32846FFF7B5FF70BD5B
:100CB0002DE9F0470D4699469246044600F1240876
:100CC0000168880604D5E06921F01001216000E088
:100CD0000120A84201DD471B00E00027A1697A1925
:100CE00002EB0900081AA0612078C00602D4204651
:100CF000FFF77CFF002608E0D4E901211AF806007E
:100D00009047206A401C761C20624E45F4DB207818
:100D1000C0060AD52046FFF769FF06E0D4E90121A5
:100D200030209047206A401C2062381EA7F101073E
:100D3000F4DC07E0D4E9012118F805009047206AA7
:100D4000401C2062281EA5F10105F3DC2046FFF7B8
:100D500063FF2078000602D50220BDE8F08701205D
:100D6000FBE711680268006A530501D508700AE0C4
:100D7000D30501D5088006E0130603D5C217C1E9E3
:100D8000000200E0086001207047000001694A1C71
:100D900002610878704700B58FB0CDE901310021BC
:100DA000059105497944CDE9031011466846FFF7DE
:100DB00083FC0FB000BD0000E5FFFFFF0A6802F8EA
:100DC000010B0A60704700002DE9FF5F15468A4657
:100DD0000446DFF8AC80F8440027D8E900103E460E
:100DE000CDE9001010E03AF816106A4602A801F0AA
:100DF00023FA411C07D02178890603D5E269391806
:100E000091420DD80744761C2078800602D5E0690F
:100E1000B84205DDAE42E6DB3AF816000028E2D122
:100E2000A069C01BA0612046FFF7E0FED8E90010D2
:100E3000CDE90010002017E03AF818106A4602A821
:100E400001F0FAF9B0F1FF3F81460BD000250DF11A
:100E5000080B05E0D4E901211BF8050090476D1C43
:100E60004D45F7D308F10100B0428046E4DB206A2B
:100E7000384420622046FFF7CFFEBDE8FF9F000008
:100E8000CAB300002DE9F0418046D21D22F00702CE
:100E90000025D2E90002F52915A614D0011E72F131
:100EA000000106DA0023D0EB030063EB020211A677
:100EB00008E0D8F800108B0701D50FA602E049071B
:100EC00001D50EA601251146002408F1240704E0EF
:100ED00000F07EFB30323A55641C50EA0102F7D133
:100EE0002B46324621464046BDE8F041FFF7E0BEC2
:100EF000000000002D0000002B000000200000007A
:100F000030B4002100F1240408E002F00705D20803
:100F1000303542EA4372DB086554491C52EA030546
:100F2000F3D10468002310A2250707D5A40600D436
:100F300021B1C46901230DA2641EC46130BCFFF756
:100F4000B7BE10B5044621461068FFF77FFE024683
:100F50002046BDE810400023D2E7D21D22F0070151
:100F6000D1E90023CCE700000000000030000000C1
:100F7000F0B40D460188090502D5214C7C4402E0FD
:100F80001F4C7C440E34002100F1240608E002F0DE
:100F90000F071209E75D42EA03721B097754491CE7
:100FA00052EA0307F3D102780023120704D5702D0B
:100FB00006D009B1022311342246F0BCFFF778BEF7
:100FC00001231034F8E770B504460D462146106839
:100FD000FFF73CFE024629462046BDE8704000234C
:100FE000C6E7D21D22F00703D3E90023C0E7036858
:100FF000126843F0200303600823C3610023B7E7AE
:101000002CB200003A2800D2303820F02002412AC9
:1010100001D3A2F13700884201D34FF0FF3070476F
:101020002DE9FF4F06468BB00878FF2806D0491CF3
:101030002D2805D000244FF0000908E000200CE026
:101040000124F8E709EB8903491C00EB4309087800
:10105000FF28F7D114B1C9F10000814610780025AE
:101060002C46AA4629462D2801D02B2804D1521CF3
:101070002D2813D0002082468B461078FF280FD0F1
:101080004FF0000C0A21521CA5FB017804FB0181E2
:1010900005FB0C11C5194BEB0104EEE70120EAE753
:1010A000002108464FF00000BAF1000F02D000EB1B
:1010B00080004008C0F38157012F01DD4FF0FF375A
:1010C0000E9955EA040009EB01080BD04FF0020914
:1010D00018F5FA7F16DA4FEACA70002F706008DD43
:1010E000012007E04FEACA70C6E900B00FB0BDE8C2
:1010F000F08F0020306000F04DFAC0F80090182109
:10110000084616E0B8F5FA7F18DD002F02DAF74836
:10111000784401E0F6487844D0E90010C6E90010B0
:1011200040EACA70706000F035FAC0F800901421EF
:1011300008460FB0BDE8F04F0AF095BF0021084601
:101140004FF00000B8F10001099002DAC7F1000287
:1011500000E03A4601DAC8F1000106A800F0FAFF03
:1011600006AB93E8070003AB83E8070044F23E00B8
:101170005BEA04010090584604D144F21E012C465B
:101180005D460091210C0904014306D10099240415
:1011900044EA15442D041039009104F07F410143C5
:1011A00006D10099240244EA15642D020839009101
:1011B00004F07041014306D10099240144EA1574FA
:1011C0002D01091F009104F04041014306D100990F
:1011D000A40044EA9574AD00891E009104F000411A
:1011E000084304D100986D196441401E00904FF0EF
:1011F00001033A466846B8F1000FCDE9014503A95D
:1012000002DD01F092FE01E001F065FEBAF1000F8F
:1012100004460D4601D084F00044002108464FF0FA
:101220000000099940F2FF77484010F00C0F07D1F9
:1012300024F00040284303D0C4F30A50B84212D12E
:1012400000F0A8F9C0F80090C4F30A50B8420AD1DF
:10125000A8487844D0E90010C6E9001004F0004125
:101260000843706042E7C6E900543FE72DE9FF4FAD
:101270001F464FF0000A4FF0FF38454691B0D7E9BE
:101280000146CDF83CA000F081F9C0680168405CDF
:101290001090B96912986D1C8847396A8146884751
:1012A0000028F6D1B9F1FF3F0AD0002E24F4D06413
:1012B00011DDB9F12B0F08D0B9F12D0F0BD102E0E0
:1012C000404615B013E744F48064B96912986D1C68
:1012D0008847761E8146600504A901D52D2000E0CF
:1012E0002B20002E01F1010B0DF130088DF81000BC
:1012F0003FDDB9F1690F08D0B9F1490F05D0B9F157
:101300006E0F02D0B9F14E0F1CD13B4601A80095DB
:1013100080E85002DDE912126FF002000AF00EFFC1
:10132000C11CCED10EE0B96912986D1C8847814668
:101330001398761E44F4007405600F98401C002E2C
:101340000F9016DDB9F1300FEDD0B9F1780F02D062
:10135000B9F1580F0DD10F9801280AD13B46CDE9BC
:101360000054DDE91212001F02960AF0E5FEC11CCE
:10137000A7D1109989453ED144F0800406E0139925
:10138000681CAAF1010A44F400740860B9696D1C74
:101390001298761E884730288146F0D02BE01099AD
:1013A000894505D1200603D4761E44F0800418E058
:1013B000484607F08CFF08B3761E0DF123018B45DC
:1013C00044F4007408D2A9F130000BF8010B200698
:1013D00007D5AAF1010003E0200602D40AF10100BA
:1013E0008246A00502D51399681C0860B969129855
:1013F0006D1C88478146002ED1DC53E0002E51DD64
:10140000B9F1650F02D0B9F1450F4BD1A00549D50F
:10141000B9696D1C1298761E24F440748847002E1A
:1014200081460CDD2B2804D0B9F12D0F07D144F4EF
:101430008074B96912986D1C8847761E8146E00554
:1014400001D52D2100E02B2108F8011BCDF80080EB
:1014500021E0761E0DF13901884544F400740CD268
:10146000A9F1300010F0FF0088F8000002D10099C7
:10147000884509D908F1010806E0E00501D51E48B4
:1014800001E042F20F708246B96912986D1C8847DC
:10149000814613980560002E04DD484607F017FFCB
:1014A0000028D6D1F96912988847FF2053468BF857
:1014B000000088F8000000200A900B9004AA0CA9F4
:1014C0000AA8FFF7ADFDA00502D46FF00100F8E611
:1014D00014F0240F12D0E0071CD13868DDE90A129D
:1014E000031D3B600068C0E9001213E0A4B10000D6
:1014F00096B100005AB00000F1D8FFFF0AA9684673
:1015000007F0D2FEE00705D13868009A011D396066
:10151000006802602846D4E602681144137801602E
:1015200018467047D16005497944516104497944AE
:10153000116200211161114600F052BCEDFFFFFF66
:1015400029010000426842B1016811F8013B23B152
:10155000521EC0E90012184670470121C160881E62
:10156000704742685AB1C368016843B983688B42C7
:1015700005D0491E521CC0E90012002070474FF0F0
:10158000FF307047004870479C4A00200048704771
:10159000BC4A0020004870479C4A0020034640682F
:1015A0008C46002818BF88423CBF03464068F8D3E9
:1015B00018681844884207D00CF1030020F0070097
:1015C000001D411A521A0146081D0A60FEF771BF3C
:1015D00030B5B0F10A024FEA900E71F100034EEA05
:1015E000817EB0EB0E0061EB91014FEA101E4EEAD6
:1015F000017E10EB0E0041EB11114FEA102E4EEA66
:10160000016E10EB0E0041EB11214FEA104E4EEA35
:10161000014E10EB0E0041EB1141401841F1000169
:101620004FEAD00040EA41704FEAD10110EB80054B
:101630004FEA810444EA907444EB01046D1944EBD1
:101640000404521BA3414FF0000348BF0A3200D5E7
:1016500030BD401C41F1000130BD10B5044600F022
:1016600039FE0068005D00F0010010BD70472DE9F3
:10167000FF4F0C461E464FF0FF378BB0D2E90001FA
:10168000DDF860800A908A46C1F30A5505B93D46E7
:10169000002108464FF00000BAF1000F00F44000AE
:1016A00005DA00EB80004FF4400101EA50004FEAF8
:1016B0009059B9F1010F00DDB9460A9850EA4A0085
:1016C0000ED044F61050A5F2FF3545432F14B8F163
:1016D000000F1ED07542291E1EDDC9F100021CE05C
:1016E000B8F1010F4FF0000001D0302103E0F243C8
:1016F00005E02154401CB042FBDB304600220021B3
:1017000021540B99C1F80880C1E900200FB0BDE851
:10171000F08FBD1B6D1CDEE74A4600DA694206A861
:1017200000F018FD06AB93E8070003AB83E8070061
:1017300050460A9901F0FBF88DE80700A0F500502B
:101740001F3800900398002D0ADD42F21F014A461F
:101750000844002303A90390684601F0A7FB09E0B1
:10176000A0F500504A461F38002303A9039068469D
:1017700001F0C6FB8DE807000004000C03D04FF019
:10178000FF30410800E01046B8F1000F03D00022FE
:10179000009215461EE0751E05D4FFF719FF303282
:1017A00062556D1EF9D5B3460122084302D00022CE
:1017B0007F1C04E02078302801D100227F1E002AFF
:1017C000099784D01DE0112D07DAFFF701FF3032B1
:1017D00062556D1C50EA0102F5D1084302D0009811
:1017E000C8B10EE00021681E05E0235C625C635412
:1017F0002254401E491C8142F7DBAB46A81B401E09
:101800000990002004F80B000B98099AC0F8088092
:10181000C0E9002B7AE711264FF0000857E72DE9C1
:10182000F04F88460446D21D22F0070191B0D1E95D
:101830000001CDE90A0107F0FDFB02460B98C00F3D
:1018400001D02D2007E02068810701D52B2002E080
:10185000202101EAC000032A099001D0072A05DBF4
:1018600003464146204600F049FD0BE12078800602
:1018700001D5E06900E00620B8F1650F814606D089
:10188000B8F1660F18D0B8F1670F70D131E00020C1
:10189000B9F1110F009001DB112301E009F10103FF
:1018A0000AAA01A90CA8FFF7E2FEDDE90C700026E8
:1018B00009F10105834647E001204B4600904FF0B7
:1018C00000470AAA01A90CA8FFF7D1FEDDE90DB077
:1018D0000C995D46002610B909F101000D18B9EB0D
:1018E000050003D4C0F1FF3609F10105A5EB09009D
:1018F0002BE0B9F1010F01DA4FF001090020B9F135
:10190000110F0090484601DD112300E003460AAAAA
:1019100001A90CA8FFF7ABFEDDE90C704D460026CF
:101920008346207800070AD4AB4500DA5D4601A85B
:10193000012D04DD411911F8011C302907D04F4554
:1019400002DA17F1040F04DA012082460FE06D1E5F
:10195000EEE7002F02DCED1B3E4403E0781CA842BA
:1019600000DD7D1CB81B00F1010A4FF00047207814
:10197000000703D4AA4501DB4FF0FF3A0021B7F17D
:10198000004F0DF143088DF8431024D002202B2383
:10199000002F01DA7F422D230A21021EA0F101004F
:1019A00000DC5FB197FBF1FC97FBF1F201FB1C7CC3
:1019B00017460CF1300C08F801CDEEE7A8F1010054
:1019C00003702188090501D5452100E06521A0F1BA
:1019D000010800F8011C09980FA9A1EB0807FF1DD9
:1019E00000B10120411901EBEA70A1693844081ADD
:1019F000401EA0612078C00602D42046FFF7F6F80A
:101A0000099828B1D4E901219047206A401C20623E
:101A10002078C00622D52046FFF7E8F81EE0002E09
:101A200004DBB34502DD01A8805D00E03020D4E98D
:101A300001219047206A401C2062761CAAF1010017
:101A40005FEA000A0AD1FFF7A1FDC0680168405CA7
:101A5000D4E901219047206A401C2062281EA5F18C
:101A60000105DCDC07E0D4E9012118F8010B9047FF
:101A7000206A401C2062381EA7F10107F3DC2046D3
:101A8000FFF7CAF8032011B041E600002DE9F04F3E
:101A900004460D46D21D22F0070089B0D0E9009718
:101AA0004846394607F0C6FA0246F80F01D02D2302
:101AB00007E02068810701D52B2302E0202101EAFD
:101AC000C0038DF820300BB1012000E00020032A74
:101AD000824601D0072A04DB2946204600F00EFC8E
:101AE0003FE12078800601D40D2500E0E569C7F3C9
:101AF0000A560D2D49DA00214FEA175B08464FF0D0
:101B00000000002F00F4400007DA00EB80004FF4E3
:101B1000400100EBD07001EA60008115012901DD70
:101B20004FF0FF3100224FEA850CBCF1180F06D3AD
:101B30001346ACF118004FF08052C24003E04FF45E
:101B4000801323FA0CF30CF10C0CBCF1200F04D31E
:101B5000ACF1200C09FA0CF001E007FA0CF00029B6
:101B60004FF0004801DD18B90FE00ED140450CD30D
:101B700019EB02095F4121B9404502D19F4329EA8F
:101B80000209BBEB175F00D0761C2088000502D548
:101B90007B48784402E07A487844193808AA302310
:101BA00002F80A30037C0AF10101002E0AF1020A50
:101BB00053546A4602DC4FF0300101E04FF031012E
:101BC0004FF001088DF8001002D0A6F2FF3603E0B6
:101BD00059EA470100D06B4E002D02DC217809073D
:101BE00004D54FF002082E218DF80110C4460021C3
:101BF0000BE0C7F303433F01C35C491C6D1E02F8B1
:101C00000830052908F1010801DA002DF1DC002176
:101C10000CE000EB1973491C1B786D1E082902F8B3
:101C200008304FEA091908F1010801DA002DF0DC4B
:101C300021688B0602D516E0A8F10108E04505DD14
:101C400002EB080313F8013C302BF5D0B8F1000F7C
:101C500009DD02EB080313F8013C2E2B03D1090721
:101C600001D4A8F10108002D05DD3E2102F808107D
:101C70006D1E08F10108407C002E02F8080008F1F2
:101C8000010804DA2D20764202F8080002E02B2039
:101C900002F808000A214FF47A70864208F1010820
:101CA0000BDB96FBF0F3303302F8083096FBF0F3D1
:101CB00008F1010800FB136601E0642E0CDB6420D0
:101CC00096FBF0F3303302F8083096FBF0F308F19E
:101CD000010800FB136601E00A2E06DB96FBF1F01B
:101CE000303002F8080008F1010896FBF1F001FB22
:101CF0001060303002F80800A16908F1010808EB13
:101D0000050202EB0A00081AA0612078C00602D47E
:101D10002046FEF76BFF216A08AE01EB0A00206245
:101D200004E0D4E9012116F8010B9047BAF1010A49
:101D3000F7D22078C00602D52046FEF757FF6E4640
:101D400009E016F8010B3E280FD0D4E90121904795
:101D5000206A401C2062B8F10108F2D22046FEF74A
:101D60005BFF09B00320BDE8F08F206A28442062A1
:101D700003E0D4E90121302090476D1EEBD3F8E752
:101D800051A6000002FCFFFF10B5436913B1AFF389
:101D9000008001E0FEF763FF012010BD127800F122
:101DA00024010A7000224A700122EDE711684FF009
:101DB000FF32E9E710B5436913B1AFF3008001E0EA
:101DC000FFF702F8012010BD128800F1240182847F
:101DD0000022C2840122EDE711684FF0FF32E9E7EB
:101DE0002DE9F34F4FF0000A0C4656468DB0012006
:101DF0000C9001F10C000B9062690B980121904747
:101E0000051E2DD0252D2CD0216A8847C0B16269CE
:101E10000B9801219047216A88470028F7D1626911
:101E2000411E0B98904700E0761CA1690D988847E9
:101E3000216A88470028F7D1E1690D988847DBE7D8
:101E4000A1690D988847A842074601D1761CD3E7BF
:101E5000E1690D9888477F1C02D1BAF1000F6FD05D
:101E60006BE162690B9800273D46394690472A2866
:101E700004D162690B98012190470125DFF8D082D7
:101E800062690B9801219047A0F130010A290AD21A
:101E90004745E5DC07EB870100EB4107303FDFD426
:101EA00045F01005ECE7E90601D46FF000476C2817
:101EB0000AD04C2814D0682815D06A280DD0742870
:101EC0001CD07A281AD01DE062690B980121904736
:101ED0006C2802D045F0040514E045F002050DE041
:101EE00045F020050AE062690B98012190476828B7
:101EF00002D045F0080505E045F4006562690B98DD
:101F000001219047C4E9015765283DD019DC5828C4
:101F10007AD00CDC452837D004DC252826D041288F
:101F20009ED131E046282FD0472899D12CE05B285C
:101F300077D0612828D063287CD0642823D15AE048
:101F4000F6E06F2848D008DC66281DD067281BD033
:101F5000692821D06E2816D127E0702845D0732833
:101F600068D0752847D078280DD14DE0A1690D982B
:101F70008847252805463FF469AFE1690D988847F1
:101F80006D1C3FF46AAFD8E00D9923466A466FF0A6
:101F900001000AF0CFF8C5E045F0400023464FF0BD
:101FA00000026060A80736D43EE0E8077FF447AF40
:101FB0002068011D21600068290501D506701BE716
:101FC000290701D5068017E7A90703D5F117C0E94E
:101FD000006111E706600FE745F0400023464FF02F
:101FE00008026060A80716D41EE040F60E0125EA3C
:101FF0000100606016E045F0400023464FF00A0201
:102000006060A80707D40FE045F040006060A807B3
:1020100008D5234610220D996FF00100AFF3008020
:1020200080E007E0102223460D996FF00100FEF7D3
:1020300025FC77E04FF0000963284F46C8464B4621
:10204000CB4602D05B2806D038E0E80601D4012058
:10205000A060012732E06269D4F80CB00B9801212E
:1020600090475E2807D14FF0010949466269D4F8CC
:102070000CB00B989047216939B900210A4603AB8F
:1020800043F82120491C0829FADBD8B3216949B358
:1020900008F1010862690B98012190475D28F4D18D
:1020A000B9F1000F09D0002003A951F82020D24334
:1020B00041F82020401C0828F7DB03AB20690028EA
:1020C00020794FEA40701ED05B462246CDF8008052
:1020D000CDE901970D9900286FF0010020DAAFF3E8
:1020E00000801FE0C11703AA00EBD1614B1121F062
:1020F0001F0102EB8302411A136801208840034349
:102100001360C7E719E00D99224600286FF001001F
:10211000009702DAAFF3008004E0AFF3008001E043
:10212000AFF3008000280ADA401C06D10C9820B1D9
:102130004FF0FF300FB0BDE8F08F5046FAE7E907E7
:1021400001D10AF1010A064400200C9054E6000077
:10215000CCCCCC0C2DE9F047814616468AB03548E8
:1021600078440DC88DE80D0032487844801C03ACDB
:102170000DC884E80D0041F69B300844372190FBE0
:10218000F1F290FBF1F5A5F1800501FB12041B3C77
:1021900002D56442012000E00020DFF898A08046CC
:1021A0000027FA44AAF1BE0A0EE0E0070AD0324640
:1021B000684607EB470101230AEB810100F0A0FE0E
:1021C0008DE8070064107F1C002CEED1194F7F446E
:1021D000AE3F19E0E80715D007EB04100DF1180A1F
:1021E00090E80E008AE80E00C068F04201D198190C
:1021F00008903246012306A903A800F081FE03AB34
:1022000083E807006D10641C002DE3D14FF001033B
:1022100032466946B8F1000F03A802D000F046FE2E
:1022200001E000F06DFEC9E90001C9F808200AB01C
:10223000BDE8F08714A1000070B516460C460546AF
:1022400000F048F8036893F80101012806D0FF2C3C
:102250000FD8185D68B101202C7070BDD3F807014C
:102260003246214603F2071303442846BDE8704076
:1022700018474FF0FF3070BD10B500F0B7FABDE859
:10228000104000F0AEBA70477546FFF77BF9AE46D6
:1022900005006946534620F00700854618B020B572
:1022A000FEF7C6F8BDE820404FF000064FF00007EB
:1022B0004FF000084FF0000B21F00701AC46ACE8EE
:1022C000C009ACE8C009ACE8C009ACE8C0098D465B
:1022D0007047000010B5FFF759F9001D10BD00BF91
:1022E0008198000010B5FFF755F9006810BD10B5D2
:1022F0000446FFF74FF9046010BD00002DE9F041DE
:102300001F46044603260168072A01F4006004DB27
:1023100008B116A505E016A503E008B115A500E073
:1023200015A521F010002060A069C01EA0610FB1AA
:10233000401EA0612046FEF759FC4FB1D4E90121AF
:1023400038469047206A401C2062C01C206206E08C
:10235000206AFAE7D4E9012115F8010B9047761EAF
:10236000F8D22046FEF758FCBDE8F0814E414E0001
:102370006E616E00494E4600696E66002DE9FF4FA2
:102380001F464FF03C0987B04FF00042DDE91410C2
:1023900001F10108DDF858A002EA40500390002046
:1023A00005908346054604460490B969461E089880
:1023B0008847AAF1010A0290BAF1000F3BDD0298AA
:1023C0002E2815D01021FEF71DFE00282EDB4FF021
:1023D000010B0599014317D0B9F1000F0BDB4A46F9
:1023E000C11700F071FA05430C43A9F1040905E097
:1023F000012004900BE008B145F001050120059093
:10240000049820B9361D02E0049800B1361FB9695E
:10241000089808F101088847BBF1000FAAF1010AEA
:102420000290C9D00999C1F80080C5E702987028C8
:1024300008D0502806D0F96908988847BBF1000FEA
:1024400014D04FE0002002900120BBF1000F049057
:1024500009D0B969089808F101088847AAF101096B
:10246000B9F1000F07DCF969089888476FF001009F
:102470000BB0BDE8F08F2B2804D02D280CD14FF0E5
:10248000FF300490B969089808F101088847A9F15C
:102490000109B9F1000FE6DD411CE4D00A21FEF785
:1024A000B1FD0028DFDB029908F1010801EB810191
:1024B00000EB41000290B969089888470A21FEF7AD
:1024C000A1FD099AA9F10109B9F1000FC2F8008034
:1024D00001DD0028E7DAF96908988847049902982D
:1024E00000FB016655EA040004D004F040410900F5
:1024F00002D006E0039898E0A40044EA9574AD0089
:10250000B61E04F00041080002D16D196441761E28
:10251000159810F0240F03D04FF00B095C4803E02E
:102520004FF028096FF07D008246564507DAAAEB86
:1025300006018944B9F1410F01DD4FF04109012045
:102540000021A9F1010200F0BFF9024628400B4624
:102550002140084301D0012100E00021501E0291DA
:1025600043F1FF3128402140084301D0012000E021
:1025700000200299834651EA0B014FD00021084602
:102580004FF00000039900F4400039B100EB8000E7
:102590004FF4400100EBD07001EA60008015012883
:1025A00002DD4FF0FF3000E013D0401C36D002981F
:1025B00060B3BBF1000F0CD14A460120002100F0AE
:1025C00083F928402140084301D0012000E0002089
:1025D000E0B101204A46002100F076F90346401997
:1025E0000A4661412D1A8C4111D3B9F1400F09DD22
:1025F000159810F0240F02D0AAF1340603E0AAF1D6
:10260000170600E0761C00254FF0004406E05B1E34
:1026100042F1FF3220EA030521EA0204CAF1010077
:10262000B04206DA1B49039808430190002000904D
:102630000EE0039AC4F3D321E80A0A43164940EA9C
:1026400044500A433146CDE90002684606F035FEA3
:10265000159810F0240F0BD01598C00715D13868C5
:10266000DDE90012031D3B600068C0E900120CE0C8
:1026700002A8694606F018FE1598C00705D138680B
:10268000029A011D3960006802604046F0E60000D1
:1026900002FCFFFF0000F07F0000F03F2DE9FF4F3C
:1026A00092461D4685B04FF00041DDE9124BDDE951
:1026B00014727F1E01EA4B50414940F0FF4940EA45
:1026C0000108002122F020004928049102D04E2860
:1026D00028D04CE03BA0012607C88DE80700A96977
:1026E0000698641C88477F1E014606D41DF8060024
:1026F00018B121F0200181420BD0E9690698884782
:10270000032E34D0082E32D06FF0010009B0BDE89E
:10271000F08F761C032E01D0082EE0D1601CCAF881
:102720000000DCE7A9690698641C88477F1E2AD44C
:1027300020F02000412826D1A9690698641C88470A
:102740007F1E20D420F020004E281CD1A9690698B5
:10275000641C88477F1E48F4002849F48009CAF8A1
:10276000004001D4282806D0E969069888475FEA26
:10277000CB7012D022E0A9690698641C88477F1E9E
:1027800001D4002803DAE96906988847BCE72928BC
:10279000F1D1641CCAF80040E9E71BF0240F07D010
:1027A00028680499031D2B600068C0E9001805E043
:1027B0002868021D2A600068C0F800902046A5E73E
:1027C0000000F07F494E46494E4954590000000030
:1027D00010B50446AFF300802046BDE81040FDF779
:1027E00098BD002801D000F069B8704710B50128E5
:1027F00005D0002103A000F07AF8012010BD09A146
:10280000F8E7000053494752544D454D3A204F7563
:1028100074206F662068656170206D656D6F7279D8
:10282000000000003A2048656170206D656D6F7290
:102830007920636F72727570746564004FF0013CAB
:1028400050F8042B51F8043B9A4221D1A2EB0C031F
:10285000934313EACC1317D150F8042B51F8043BDF
:102860009A4215D1A2EB0C03934313EACC130BD17C
:1028700050F8042B51F8043B9A4209D1A2EB0C0307
:10288000934313EACC13DBD04FF00000704700BF36
:10289000D01A01BAB1FA81F101F0180122FA01F05F
:1028A000CB40C1F12001DBB2C0B2C01A2CFA01F357
:1028B000D11A914311EAC311E6D17047014918209A
:1028C000ABBEFEE726000200B2F120030AD5C2F13A
:1028D000200301FA02F120FA03F300FA02F041EAC0
:1028E0000301704700FA03F14FF00000704770B524
:1028F00005460C460A2000E06D1C00F011F835B1C9
:1029000028780028F8D102E0641C00F009F814B11E
:1029100020780028F8D1BDE870400A20AFF300808D
:1029200008B569468DF800000320ABBE08BD5FEA1C
:10293000400C08BF91F0000F4FEA8C234FEAC122F0
:1029400043EA51514FEA1C5018BF00F5F0404FEADE
:10295000300018BF41F000415FEA6C5C00F0298054
:10296000BCF1FF3F08BF40F080407047130C06BF2A
:1029700012044FF0100C4FF0000C130E04BF1202A3
:102980000CF1080C130F04BF12010CF1040C930F8F
:1029900004BF92000CF1020CD30F04BF52000CF1E3
:1029A000010C11464FF00002A0F11F00A0EB0C003B
:1029B000704711F0004F08BF704731F000413FF4FD
:1029C000D5AF0B0C06BF09044FF0100C4FF0000CF4
:1029D0000B0E04BF09020CF1080C0B0F04BF090118
:1029E0000CF1040C8B0F04BF89000CF1020CCB0F0F
:1029F00004BF49000CF1010CCCF12003A0EB0C004A
:102A000022FA03F302FA0CF241EA030100F1010099
:102A1000704720F07F4C80EA030023F07F47ACEB47
:102A2000070303F57C5300F0004003F1FF032DE999
:102A300080494FEA154B09B44FEA144325EA0B4E7F
:102A400024EA03480FF2042606EB132749083E78D0
:102A50005FEA320203FB0667C7F5000707FB06F6CD
:102A60004FEA54374FEAD64606F1020607FB066CDA
:102A7000CCF1005C4FEA1C472CEA074C07FB06F43C
:102A80000CFB06F504EB15464FEA961634BF002002
:102A90004FF000404FEAD13706FB07FC4FEA1C4CD1
:102AA0000CFB0BF7D21B03FB0CF761EB07010CFBD4
:102AB0000EF7B0EB074072EB17420CFB08F734BF80
:102AC000A2EB0742B2EB074261EB17414FEA0C441D
:102AD0004FEA910706FB07FC4FEA1C4C0CFB0BF777
:102AE000B0EBC74072EB573203FB0CF734BFA2EBDD
:102AF000C742B2EBC74261EB57310CFB0EF7B0EBAC
:102B0000C70072EB57720CFB08F734BFA2EBC70289
:102B1000B2EBC70261EB5771039F4FEA816141EA53
:102B2000921104EBCC044FEAD1374FEA826206FBE4
:102B300007FC42EA90124FEA80604FEA1C4C0CFB03
:102B40000BF7D21B03FB0CF761EB07010CFB0EF735
:102B5000B0EB074072EB17420CFB08F734BFA2EB57
:102B60000742B2EB074261EB17414FEA8C554FEA3F
:102B7000910704EB9C2406FB07FC4FEA1C4C0CFB62
:102B80000BF7B0EBC74072EB573203FB0CF734BFC7
:102B9000A2EBC742B2EBC74261EB57310CFB0EF719
:102BA000B0EBC70072EB57720CFB08F734BFA2EB17
:102BB000C702B2EBC70261EB577115EB4C254FEA28
:102BC000816141EA92114FEA82624FEAD13742EACB
:102BD000901206FB07FC44F100044FEA80604FEAC4
:102BE0001C4C0CFB0BF7D21B03FB0CF761EB070132
:102BF0000CFB0EF7B0EB074072EB17420CFB08F72B
:102C000034BFA2EB0742B2EB074261EB174115EB71
:102C10001C154FEA813141EA92414FEA823242EA81
:102C200090424FEA80304FEA0C7644F1000448EAC3
:102C300003434EEA0B484FF0000EB2EB080C71EB69
:102C4000030724BF624639464EEB0E0E4FF0000BD1
:102C50000018524149414BEB0B0BB2EB080C71EBE6
:102C600003077BF1000B24BF624639464EEB0E0E84
:102C70004FF0000B0018524149414BEB0B0BB2EBEC
:102C8000080C71EB03077BF1000B24BF6246394649
:102C90004EEB0E0E51EA020718BF46F0010616EB86
:102CA0000E7655F1000254F1000103D5BDE889010B
:102CB000BDE80088BDE88901BDE80048B619524169
:102CC00041EB0101A3F10103704780807F7E7D7C91
:102CD0007B7A7978777676757473727171706F6EAE
:102CE0006E6D6C6C6B6A6A69686867666665646459
:102CF000636362616160605F5F5E5E5D5D5C5C5BE3
:102D00005B5A5A5959585857575656555555545451
:102D1000535352525251515050504F4F4F4E4E4DAF
:102D20004D4D4C4C4C4B4B4B4A4A4A4949494848FB
:102D3000484747474746464645454544444444433B
:102D400043434342424242414141000046EA064673
:102D5000A3F570534FEA164646EA42564FEAD2228E
:102D600042EA415210B54FEAD121A3F1010300F02C
:102D70002FF820F0004000F1020C00F0004701EBBA
:102D800000501146BCF5006F40EA070000D210BDAC
:102D9000BAF1000F0AD01CB503B44FF004004FF095
:102DA00004014FF000000FBCBDE810404FF00001DF
:102DB000BBF1010FB9BF04484FF0FF3103480021B8
:102DC00040EA070010BD00BFFFFFEF7F0000F07F6B
:102DD000002B9C4630D477002BD01CB54FEA370728
:102DE00003B44FF010004FF01001BAF1000F06D0FD
:102DF000BCF1000FDCBF40F0080040F008014FF0CC
:102E000000000FBCBDE810400BF1010BBBF1010F3E
:102E100008BF5FEA170722BF12F1010211F1010199
:102E20004FF0004143F1000300F0004043EA00008E
:102E30007047F9D35708D0E746EA064613F1400F2A
:102E40004FEA16461FDD13F1200FDFBF16430A4677
:102E5000002120335B42BED0C3F1200746EA06467C
:102E600002FA07F74FEA164646EA0706C3F12007BB
:102E700022FA03F201FA07F721FA03F14FF00003F7
:102E800042EA0702A7E746EA020646EA06464FEA92
:102E9000164646EA0106BCBF46EA0646360C4FF027
:102EA00000034FF000024FF0000194E72DE9804C41
:102EB0009A46934670B491E8380007C831EA400C4E
:102EC00048BF34EA430C03D5FFF7A3FDFFF780FFAB
:102ED000F0BCBDE8008C2DE9804C9A46934670B456
:102EE00091E8380007C831EA400C48BF34EA430C87
:102EF00003D5FFF78EFDFFF729FFF0BCBDE8008C7E
:102F00002DE9804C9A46934670B491E8380007C882
:102F100010F0804F08BF13F0804F03D100F01AF873
:102F2000FFF756FFF0BCBDE8008C2DE9804C9A46B7
:102F3000934670B491E8380007C810F0804F08BF7E
:102F400013F0804F03D100F005F8FFF7FFFEF0BC4F
:102F5000BDE8008C20F07F4780EA030023F07F4C1F
:102F600007EB0C03A3F57C5300F00040A3F1FE0334
:102F700092F0000F00F0B38095F0000F00F0778022
:102F80002DE901494FEA11404FEA144621EA004871
:102F900000FB06FC24EA064708FB06F607FB08F8D8
:102FA00000FB07F718EB06484CEB164C4FEA124BA8
:102FB00018EB07484FEA15464CEB174022EA0B4E38
:102FC0000BFB06FC25EA06470EFB06F607FB0EFE8A
:102FD0000BFB07F71EEB064E4CEB164C4FF00006B2
:102FE0001EEB074E4CEB174B18EB0B0840F10000A3
:102FF00018EB0E0B58EB000840F100008F1A4FF051
:1030000000013CBFC943661B14BFB5EB040C002193
:103010003CBFC943F61B4FEA17444EEA8E0E27EA1F
:1030200004454FEA1C4704FB07622CEA074C05FBEA
:1030300007F70CFB05F604FB0CFC16EB074642EB0E
:10304000174216EB0C4642EB1C421BEB060658EBF4
:103050000202414146EA9E0601D5BDE80189B61942
:10306000524141EB0101A3F10103BDE801894FEA9F
:1030700014454FEA114724EA054621EA074C05FBAF
:1030800007F406FB07F70CFB06F105FB0CFC11EB44
:10309000074144EB17444FEA124711EB0C4144EB54
:1030A0001C4422EA074C05FB07F206FB07F70CFB62
:1030B00006F605FB0CFC16EB074642EB174216EB37
:1030C0000C4642EB1C456A1854F1000148BF70479A
:1030D000B619524141EB0101A3F10103704795F08C
:1030E000000F37D04FEA11424FEA144721EA024657
:1030F00024EA074C02FB07F106FB07F70CFB06F47A
:1031000002FB0CFC14EB074441EB17414FEA154757
:1031100014EB0C4441EB1C4125EA074C02FB07F57C
:1031200006FB07F70CFB06F602FB0CFC16EB07464A
:1031300045EB174516EB0C4645EB1C42121951F1B5
:10314000000148BF7047B619524141EB0101A3F19C
:10315000010370474FEA14454FEA114724EA054638
:1031600021EA074C05FB07F106FB07F70CFB06F20B
:103170004FF0000605FB0CFC12EB074241EB174138
:1031800012EB0C4251EB1C4148BF7047921841EBC7
:103190000101A3F1010370477FB504460D462222C9
:1031A00021462846FDF72EFC0748011F0A1F131F62
:1031B000CDE90032CDE902101B1F0C3A03A12046D5
:1031C000FDF73EFB7FBD0000B4050020423A2564B8
:1031D000202C202564202C2566202C2566202C25DB
:1031E00064202C2564200A0010B5044630222146B4
:1031F0000648FDF74CFC0A20044981F830000A23F8
:103200003122034802F04EFE10BD00003C050020B4
:10321000F002002000BFFEE710B5024800F07FFB7F
:1032200010BD0000B805002010B5024800F077FB83
:1032300010BD0000E0050020F8B507460C46154615
:103240001E4640F2FF100D49086000208860C860EB
:1032500008200861380A0A4908704F70200A8870EF
:10326000CC70280A08714D71300A8871CE716B4696
:103270000A460249034800F056F9F8BD58070020F5
:1032800008000020B80500200346042B15D007DCF9
:103290007BB1012B0ED0022B0DD0032B12D10BE0F2
:1032A000202B0BD0212B0AD0222B09D0232B09D184
:1032B00007E008E007E006E005E004E003E002E0E4
:1032C00001E000E000BF00BF002070470020704711
:1032D00010B500220449054803F04FFF0449034894
:1032E00003F044FF002010BDB03B0020143100204B
:1032F000B033002070B504460D462146034803F064
:1033000035FF024803F00EFF002070BD143100208D
:103310002DE9F04104460D4600260A48D0F8907287
:10332000D7F8140210B10120BDE8F0812A462146E9
:10333000044803F022FF034803F0A3FF064630468B
:10334000F2E700001431002010B5234B1B685B69C5
:1033500043F04003204C246863611F4B1B68DB680B
:1033600043F010031C4C2468E3601C4B1B681B6873
:1033700023F00103194C2468236007E0174B1B68F6
:103380001B6823F00103154C24682360134B1B6852
:103390001B6803F00103002BF0D1114B0F4C246884
:1033A000A3600E4B1B68D8600C4B1B6819610B4B5C
:1033B0001B685A60094B1B681B6843F48023074C49
:1033C00024682360054B1B681B6843F00103034C12
:1033D0002468236010BD0000F002002030030020AC
:1033E000041001400146087810381823B0FBF3F2AE
:1033F0000848805CC865032A05D908686FF309008E
:10340000001D886503E008686FF309008865886D12
:103410007047000070C10008014600208A6A8B696D
:10342000CBB932B1012A0DD0022A03D0032A10D120
:103430000EE000BFCB6A03F08073B3F1807F00D150
:10344000012007E0CB6AB3F1C07F00D1012001E089
:1034500000E000BF34E08B69B3F5005F1AD132B1F0
:10346000012A07D0022A03D0032A11D10AE000BFA3
:1034700001200EE0CB6A03F08073B3F1807F00D1AE
:10348000012006E0CB6AB3F1C07F00D1012000E04B
:1034900000BF15E032B1012A05D0022A04D0032A68
:1034A0000CD103E000BF00BF012008E0CB6A03F0AD
:1034B0008073B3F1807F00D1012000E000BF00BF26
:1034C000704770477047000070B50A480468001DD7
:1034D0000568001D0668344454B108220649204698
:1034E00002F04DFD042204491031284602F047FD48
:1034F00070BD0000107AFF1F3602002010B5024692
:1035000092F82030012B01D0022B06D110684069BF
:10351000084314686061002010BD506A40F48020A8
:1035200050620120F8E7F0B504460D461E4694F8B7
:10353000207020688368A86800B900E000BF012FF0
:1035400001D0022F7CD103F0806030B903F000601D
:1035500018B903F08050002873D0C3F30161022929
:1035600005D9606A40F4000060620120F0BD0120CE
:1035700088403060A86860B9B5F800C0E86840EAE3
:103580004C5C206800F5C07000EB0110C0F800C072
:103590000FE0D5E901C040EACC00D5F80CC040EA04
:1035A0000C00D4F800C00CF5C07C0CEB011CCCF86E
:1035B0000000D5F810C0206800F5C07000EB0110C5
:1035C000C0F804C0287D01280ED1206800F5C07025
:1035D00000EB0110406840F4807C206800F5C0706A
:1035E00000EB0110C0F804C0D079000692F806C0C4
:1035F00040EA0C4092F805C040EA0C2C10794CEAE5
:10360000000C206800F5C07000EB0110C0F80CC081
:10361000D078000692F802C040EA0C4092F801C04F
:1036200040EA0C2092F800C040EA0C00D4F800C038
:103630000CF5C07C0CEB011CCCF80800206801E004
:1036400016E00FE000F5C07000EB0110006840F0DC
:10365000010C206800F5C07000EB0110C0F800C03C
:10366000002083E7606A40F40010606201207DE77B
:10367000606A40F480206062012077E7F0B504467C
:103680000A46216894F82050012D01D0022D7ED1E8
:10369000424901F50071086840F0010008600868BF
:1036A00020F47C5008600868566A40EA06200860EA
:1036B000107D00F01F06012000FA06F3C869984348
:1036C000C861A1F50071D069C8B9D1F80C0298435E
:1036D000C1F80C02908880B2968940EA064601F54E
:1036E0001070576940F83760108880B2168940EA38
:1036F000064601F51070576900EBC7004660D069B7
:10370000012819D1D1F80C021843C1F80C02908895
:1037100080B2168840EA064601F51070576940F8F5
:103720003760908980B2168940EA064601F510702C
:10373000576900EBC7004660906928B9D1F80402C8
:103740009843C1F8040204E0D1F804021843C1F818
:103750000402106928B9D1F814029843C1F8140280
:1037600004E0D1F814021843C1F81402106A0128C9
:1037700004D1D1F81C021843C1F81C02D1F8000290
:1037800020F00100C1F800020020F0BDFFE7606AF0
:1037900040F4802060620120F7E7000000640040F0
:1037A000704770B5044694F82050012D01D0022DC9
:1037B0007CD151B92068C06800F0030080B9606A0C
:1037C00040F400106062012070BD2068006900F0C4
:1037D000030028B9606A40F4001060620120F3E73A
:1037E000206800F5D87000EB0110006800F00400BC
:1037F0009060906840B9206800F5D87000EB011027
:103800000068400D106007E0206800F5D87000EBFC
:1038100001100068C0085060206800F5D87000EB07
:103820000110006800F002004008D060206800F538
:10383000D87000EB0110406800F00F0010612068A4
:1038400000F5D87000EB0110406800F47F40000ADA
:103850009061206800F5D87000EB01104068000C02
:103860005061206800F5D87000EB01108068187076
:10387000206800F5D87000EB0110806800F47F40EC
:10388000000A5870206800F5D87000EB01108068BD
:1038900000F47F00000C9870206800F5D87000EBF1
:1038A00001108068000ED870206800E031E000F55B
:1038B000D87000EB0110C0681871206800F5D8704E
:1038C00000EB0110C06800F47F40000A58712068C6
:1038D00000F5D87000EB0110C06800F47F00000C08
:1038E0009871206800F5D87000EB0110C068000ED8
:1038F000D87131B92068C06840F020002668F060B7
:1039000005E02068006940F0200026683061002052
:103910005AE7606A40F480206062012054E72DE994
:10392000F05F04460025206846692068D0F80490BE
:10393000206887682068D0F80CA02068D0F810B004
:103940002068D0F8188006F00100002855D007F054
:103950000100C0B101202168886007F0020018B1A1
:10396000204600F0D4FA0EE007F0040010B145F450
:10397000006508E007F0080010B145F4805502E04A
:10398000204600F0C3FA07F48070C8B14FF480708D
:103990002168886007F4007018B1204600F0B9FA79
:1039A0000EE007F4806010B145F4005508E007F41C
:1039B000006010B145F4804502E0204600F0A8FA0E
:1039C00007F48030C8B14FF480302168886007F474
:1039D000003018B1204600F09EFA0EE007F4802077
:1039E00010B145F4004508E007F4002010B145F49B
:1039F000803502E0204600F08DFA06F0080038B16C
:103A00000AF0100020B145F4007510202168C8604C
:103A100006F0040040B10AF0080028B1082021682F
:103A2000C860204600F00CFA06F0020038B12068A9
:103A3000C06800F0030010B1204600F003FA06F061
:103A4000400038B10BF0100020B145F48065102023
:103A50002168086106F0200040B10BF0080028B191
:103A6000082021680861204600F01EFA06F01000C8
:103A700038B12068006900F0030010B1204600F062
:103A800014FA06F4003040B109F0100028B11020FB
:103A900021684860204600F009FA06F4803040B101
:103AA00009F0080028B1082021684860204600F08D
:103AB00033FA06F4004088B309F0040078B306F442
:103AC000807020B108F0010008B145F0010506F44E
:103AD000007020B108F0020008B145F0020506F4BC
:103AE000806020B108F0040008B145F0040506F438
:103AF0000060A0B108F0700088B108F070004028A4
:103B000017D006DC10280BD020280CD0302819D173
:103B10000CE0502810D0602814D110E01DE019E00E
:103B200045F008050FE045F010050CE045F02005D4
:103B300009E045F0400506E045F0800503E045F466
:103B4000807500E000BF00BF2068806920F0700031
:103B5000216888610420216848602DB1606A28438B
:103B600060622046FFF71CFEBDE8F09F70B504467A
:103B70000CB9012070BD94F8200010B9204600F067
:103B8000AFF82068006820F002002168086000F0AB
:103B90005FFB05460DE000F05BFB401B0A2808D9DF
:103BA000606A40F400306062052084F82000012043
:103BB000E0E72068406800F002000028EBD12068B0
:103BC000006840F001002168086000F041FB0546F4
:103BD0000DE000F03DFB401B0A2808D9606A40F464
:103BE00000306062052084F820000120C2E72068D0
:103BF000406800F001000028EBD0207E012806D1AB
:103C00002068006840F080002168086005E02068B6
:103C1000006820F0800021680860607E012806D1DD
:103C20002068006840F040002168086005E02068D6
:103C3000006820F0400021680860A07E012806D1BD
:103C40002068006840F020002168086005E02068D6
:103C5000006820F0200021680860E07E012806D17D
:103C60002068006820F010002168086005E02068E6
:103C7000006840F0100021680860207F012806D10C
:103C80002068006840F008002168086005E02068AE
:103C9000006820F0080021680860607F012806D1D4
:103CA0002068006840F004002168086005E0206892
:103CB000006820F0040021680860D4E9020108438C
:103CC00021690843616908436168491E0843216806
:103CD000C86100206062012084F82000002049E7CC
:103CE00010B586B00446142101A8FCF702FF4E4926
:103CF0002068884241D14D480068401C4B4908600B
:103D00000846006801280FD100BF002000904848F5
:103D1000006840F00070464908600846006800F0FE
:103D20000070009000BF00BF00BF0020009040481E
:103D30001038006840F008003D4910390860084616
:103D4000006800F00800009000BF00BF0320019051
:103D50000220029000200390032004900920059087
:103D600001A9344800F064F900220621142000F073
:103D7000F9FA142000F0E6FA54E02F49206888424E
:103D800050D100BF002000902948006840F08060BA
:103D9000274908600846006800F08060009000BF76
:103DA00000BF22480068401C20490860084600689F
:103DB00001280FD100BF002000901D48006840F08E
:103DC00000701B4908600846006800F00070009011
:103DD00000BF00BF00BF00200090154810380068E9
:103DE00040F002001249103908600846006800F0EF
:103DF0000200009000BF00BF6020019002200290EE
:103E000000200390032004900920059001A90B488D
:103E100000F00EF900220621402000F0A3FA402015
:103E200000F090FA06B010BD0064004004000020CD
:103E300040380240000C024000680040000402408C
:103E40007047000010B58AB0044601AB03AA0021F8
:103E50002046FFF7A6FC0398A0F2012008281AD2FA
:103E6000DFE800F00405060708090A0B00BF00BFE1
:103E700000BF00BF00BF00BF00BF0398401E08493D
:103E80000870097801EB4101064A02EB011001A913
:103E900005F0B2FC00E000BF00BF0AB010BD00009A
:103EA000180000200806002070477047704770B562
:103EB000044694F82000012822D1022084F8200032
:103EC0002068006820F001002168086000F0C0F957
:103ED00005460DE000F0BCF9401B0A2808D9606ACD
:103EE00040F400306062052084F82000012070BD9D
:103EF0002068406800F001000028EBD16062F6E71E
:103F0000606A40F4002060620120F0E7704770476B
:103F10007047704770477047704700002DE9F041C7
:103F20000446002500F094F9074614B90120BDE8C5
:103F3000F081606A00B100BF00BF002084F8340047
:103F400000BF022084F835002068006820F00100DE
:103F5000216808600AE000F07BF9C01B052805D93C
:103F600020206065032084F83500E0E720680068C1
:103F700000F001000028EED12068056821480540C6
:103F8000D4E901010843E1680843216908436169F4
:103F90000843A1690843E1690843216A08430543CE
:103FA000606A042803D1D4E90B0108430543206863
:103FB00005602068456925F00705606A0543606A69
:103FC00004280DD1A06A0543E06A48B12046FFF7F6
:103FD00023FA28B140206065012084F83500A6E767
:103FE000206845612046FFF7FDF9064694F85C100D
:103FF0003F208840B06000206065012084F83500D3
:10400000002094E73F8010F070B5044600F020F9DE
:1040100006462546681C10B104480078054400BFD8
:1040200000F016F9801BA842FAD370BD24000020CE
:10403000F8B502460B460025002400200021DCE0F4
:10404000012606FA01F51E6806EA0504AC4273D1A2
:104050005E68022E02D05E68122E13D1CF0802F1E4
:10406000200656F827004E07F70E0F26BE40B04335
:104070004F07FF0E1E69BE403043CF0802F12006F5
:1040800046F8270010684F000326BE40B0431E7953
:1040900006F003064F00BE40304310605E68012EFC
:1040A00008D05E68022E05D05E68112E02D05E68D0
:1040B000122E13D190684F000326BE40B0434F002C
:1040C000DE68BE4030439060506801268E40B043A9
:1040D0001E79C6F300168E4030435060D0684F0002
:1040E0000326BE40B0434F009E68BE403043D060C0
:1040F0005E6806F08056B6F1805F7DD100BF002675
:104100000096404E366846F480463E4F3E603E463E
:10411000366806F48046009600BF00BF3A4E8F080E
:1041200056F827008E07370F0F26BE40B043374E94
:10413000B24202D1002624E05EE0354EB24201D107
:1041400001261EE0334EB24201D1022619E0324E62
:10415000B24201D1032614E0304EB24201D104260E
:104160000FE02F4EB24201D105260AE02D4EB24299
:1041700001D1062605E02C4EB24201D1072600E00F
:1041800008268F073F0FBE4030431F4E8F0846F86A
:104190002700264E3068A0435E6806F48036B6F5E8
:1041A000803F00D12043214E3060361D3068A0434F
:1041B0005E6806F40036B6F5003F00D120431B4E82
:1041C000361D3060361D3068A0435E6806F48016E8
:1041D000B6F5801F00D12043144E08363060361DDE
:1041E0003068A0435E6806F40016B6F5001F00D1E3
:1041F00020430E4E0C363060491C1029FFF420AFCE
:10420000F8BD000044380240083801400000024078
:104210000004024000080240000C0240001002406E
:104220000014024000180240001C0240003C014003
:1042300042690A408A4202D10A04826100E0816137
:1042400070470AB1816101E00B048361704700008F
:1042500001480068704700001C0000200348006807
:104260000349097808440149086070471C00002090
:104270002400002010B50D48006840F400700B4980
:1042800008600846006840F48060086008460068DE
:1042900040F480700860032000F0A2F8002000F0D5
:1042A00007F800F02BF8002010BD0000003C024091
:1042B00070B504460E4800784FF47A71B1FBF0F007
:1042C0000C490968B1FBF0F5284601F0CFFA08B1B6
:1042D000012070BD102C07D200222146501E00F094
:1042E00041F80548046001E00120F2E70020F0E712
:1042F00024000020280000202000002008B500BF76
:10430000002000900E48006840F480400C4908608E
:104310000846006800F48040009000BF00BF00BF66
:1043200000200090081F006840F08050091F0860BE
:104330000846006800F08050009000BF00BF08BD34
:104340004438024001460846002809DB00F01F03FC
:1043500001229A4043099B0003F1E023C3F80021A6
:1043600000BF70472DE9F05F80460D4616460027D6
:1043700004F078FE074639462A46334601F0070026
:10438000C0F1070ABAF1040F02D94FF0040A01E0A4
:10439000C0F1070AD14600F1040ABAF1070F02D2B0
:1043A0004FF0000A01E0A0F1030AD4464FF0010AE1
:1043B0000AFA09FAAAF1010A0AEA020A0AFA0CFA46
:1043C0004FF0010B0BFA0CFBABF1010B0BEA030BEB
:1043D0004AEA0B042146404604F04CFEBDE8F09F3B
:1043E00000BF00F00702064B19684FF6FF031940A3
:1043F000044B0B4343EA0221014B196000BF704795
:104400000CED00E00000FA057047024610684162BA
:1044100000207047F0B5034615461868446A21B974
:1044200044EA05401E68B06219E01868806A04EB2F
:104430001044002208E0186800F5827050F822004D
:1044400004EB1044501CC2B2481E9042F3D844EA18
:104450000547186800F582704E1E40F8267000204F
:10446000F0BD10B50446D4F8040403F09BFA10BD67
:1044700070B504460D46C5EBC50304F13C0101EBE4
:104480008301CA682946D4F8040403F0B8F970BD62
:1044900070B504460D46C5EBC50304F5FE7101EB8E
:1044A0008301CA682946D4F8040403F028FA70BDD1
:1044B00010B50446D4F8040403F077FA10BD70B5C3
:1044C00004460E4606F0800080280AD106F00F0050
:1044D000C0EBC00104F13C0000EB810501206870D5
:1044E00009E006F00F00C0EBC00104F5FE7000EB20
:1044F00081050020687006F00F00287000BF94F856
:10450000BC03012801D1022070BD012084F8BC0346
:1045100000BF2946206803F043FF00BF002084F855
:10452000BC0300BF00BFEFE770B504460E4606F0BF
:104530000F006168884201D9012070BD06F080003B
:1045400080280AD106F00F00C0EBC00104F13C0046
:1045500000EB81050120687009E006F00F00C0EB58
:10456000C00104F5FE7000EB81050020687000209A
:10457000A87006F00F00287000BF94F8BC03012853
:1045800001D10220D9E7012084F8BC0300BF2946ED
:10459000206804F0ADF900BF002084F8BC0300BF20
:1045A00000BFCAE7024601F00F00C0EBC00302F5EE
:1045B000FE7000EB8300806970472DE9F0470546E7
:1045C0000E4690461F464FF0000906F080008028F6
:1045D0000AD106F00F00C0EBC00105F13C0000EB72
:1045E00081040120607009E006F00F00C0EBC001FB
:1045F00005F5FE7000EB81040020607006F00F00EE
:104600002070C4F80880E770607808B12078E080F6
:10461000022F01D10020207100BF95F8BC030128B2
:1046200002D10220BDE8F087012085F8BC0300BF5D
:104630002146286803F0C0FD00BF002085F8BC03B8
:1046400000BF4846EEE72DE9F04104460E46174606
:10465000984606F00F00C0EBC00104F5FE7000EBB9
:104660008105EF60C5F814800020A861687006F02D
:104670000F0028702069012800D12F6106F00F007B
:1046800028B9227C2946206804F00EF804E0227C38
:104690002946206804F0C0F90020BDE8F08170B51B
:1046A00004460D4605F00F006168884201D90120DB
:1046B00070BD05F0800080280AD105F00F00C0EB26
:1046C000C00104F13C0000EB81060120707007E09E
:1046D000C5EBC50104F5FE7000EB8106002070708B
:1046E0000120B07005F00F00307000BF94F8BC03DB
:1046F000012801D10220DBE7012084F8BC0300BFC0
:104700003146206804F03BF905F00F0028B9217C00
:1047100004F57172206804F0B3F800BF002084F83B
:10472000BC0300BF00BFC3E72DE9F04104460E46BD
:104730001746984606F00F00C0EBC00104F13C009C
:1047400000EB8105EF60C5F814800020A86101200E
:10475000687006F00F0028702069012800D12F61D1
:1047600006F00F0028B9227C2946206803F09CFF40
:1047700004E0227C2946206804F04EF90020BDE8C0
:10478000F0812DE9FE4F044620680290029E2068C9
:1047900004F02DFB00287DD1206804F067FB08B9E8
:1047A000BDE8FE8F206804F061FB00F002000228E3
:1047B00005D12068406900F0020021684861206846
:1047C00004F054FB00F40020B0F5002F58D1002570
:1047D000206804F01BFB82464FE00AF0010000282D
:1047E00048D0E9B2206804F034FB804608F00100AC
:1047F00048B1012106F5306000EB45108160294683
:10480000204601F0F1FC08F00800082809D12946EB
:10481000204601F0A3FC082106F5306000EB4510AE
:10482000816008F01000102805D1102106F53060D5
:1048300000EB4510816008F0200020280ED120698F
:10484000012805D104F571720121206804F018F8DF
:10485000202106F5306000EB4510816008F400501F
:10486000B0F5005F06D14FF4005106F5306000EB63
:10487000451081606D1C4FEA5A0ABAF1000FACD1A5
:10488000206804F0F3FA00F48020B0F5802F7ED188
:10489000206800E012E204F0AFFA8246002586E0CC
:1048A0000AF0010000287FD0E9B2206804F0B8FACD
:1048B000804608F00100E8B305F00F0101208840B0
:1048C000019040F634008159019821EA000040F639
:1048D00034018851012106F5106000EB451081601C
:1048E0002069012815D1C5EBC50104F13C0000EB9E
:1048F0008100C5EBC502C16804F13C0000EB8200F9
:1049000080680144C5EBC50204F13C0000EB820065
:10491000C160E9B22046FFF7ABFD2069012810D144
:1049200045B9C5EBC50104F13C0000EB81004069CD
:1049300000B900E005E004F571720121206803F080
:104940009FFF08F00800082805D1082106F510602F
:1049500000EB4510816008F01000102805D11021EF
:1049600006F5106000EB4510816008F0400040281B
:1049700005D1402106F5106000EB4510816008F07C
:104980000200022808D1022106F5106001E012E0C1
:104990000AE000EB4510816008F08000802803D118
:1049A0002946204601F0E0FC6D1C4FEA5A0ABAF194
:1049B000000F7FF475AF206804F058FA00F0004053
:1049C000B0F1004F1CD140F60400805920F00101E5
:1049D00040F60400815194F8F403012807D1002027
:1049E00084F8F40300212046FFF70EFD02E0204684
:1049F00000F098FA2068406900F0004021684861A2
:104A0000206804F033FA00F40060B0F5006F0ED1B6
:104A100040F60800805900F0010010B1204600F077
:104A2000D9FA2068406900F4006021684861206874
:104A300004F01CFA00F48050B0F5805F72D140F6AB
:104A40000400805920F0010140F60400815110213A
:104A5000206804F0A1F9002726E04FF67F3106F523
:104A6000106000EB4710816006F5106000EB471006
:104A7000006820F4001106F5106000EB471001609B
:104A80004FF67F3106F5306000EB4710816006F588
:104A9000306000EB4710006820F4001106F530602C
:104AA00000EB471001607F1C6068B842D5D840F623
:104AB0001C00805940F0011140F61C008151206B10
:104AC00070B1D6F8840840F00B01C6F8841840F69F
:104AD0004400805940F00B0140F6440081510FE042
:104AE00040F61400805942F22B01084340F61401AD
:104AF0008851081F805940F00B014FF4016081512B
:104B0000D6F8000820F4FE60C6F80008217C04F501
:104B10007172206803F0B4FE2068406900F4805090
:104B200021684861206804F0A1F900F40050B0F554
:104B3000005F17D1206803F0A7FB206804F044F958
:104B4000E06000F0F1FB0090227B2068009904F007
:104B5000DDF9204600F0CEF92068406900F40050ED
:104B600021684861206804F081F900F010001028E5
:104B700046D12068806920F0100021688861029881
:104B8000D0F8209009F00F00C0EBC00104F5FE70D2
:104B900000EB810BC9F3434002281AD147F6F070AD
:104BA00009EA000030B3C9F30A12DBF80C100298CE
:104BB00004F061F9C9F30A11DBF80C000844CBF8E2
:104BC0000C00C9F30A11DBF818000844CBF81800F0
:104BD00010E0C9F3434006280CD1082204F5717196
:104BE000029804F048F9C9F30A11DBF818000844E8
:104BF000CBF818002068806940F0100021688861B7
:104C0000206804F033F900F00800082808D1204695
:104C100000F08FF92068406900F0080021684861C1
:104C2000206804F023F900F48010B0F5801F0AD149
:104C300000252946204600F043F82068406900F42A
:104C4000801021684861206804F010F900F4001019
:104C5000B0F5001F0AD100252946204600F039F89A
:104C60002068406900F4001021684861206804F061
:104C7000FDF800F08040B0F1804F08D12046FFF7EA
:104C8000F0FB2068406900F080402168486120689E
:104C900004F0ECF800F0040004280FD12068D0F8EC
:104CA000049009F00400042802D12046FFF700FC1C
:104CB0002068406840EA09002168486000BF6FE54D
:104CC00070B504460D462946D4F8040402F0D4FE1B
:104CD00070BD70B504460D462946D4F8040402F0B0
:104CE000CEFE70BD70B58AB0044614B901200AB07A
:104CF00070BD266894F8BD0328B9002084F8BC0371
:104D0000204600F0A3F8032084F8BD03F06B00F404
:104D1000807008B900212161206803F0BDFC2822C1
:104D200004F110016846FBF7B2FE94E80F0003F0AF
:104D3000CFFA20B1022084F8BD030120D7E700217B
:104D4000206804F0A9F8002531E00121C5EBC50277
:104D500004F13C0000EB82004170C5EBC50104F199
:104D60003C0000F82150C5EBC50100EB8100C58077
:104D70000021C5EBC50204F13C0000EB8200C170CC
:104D8000C5EBC50204F13C0000EB82008160C5EB7D
:104D9000C50204F13C0000EB8200C160C5EBC50216
:104DA00004F13C0000EB82004161681CC5B2606800
:104DB000A842CAD800252AE00021C5EBC50204F5A7
:104DC000FE7000EB82004170C5EBC50104F5FE707A
:104DD00000F821500021C5EBC50200EB8200C17034
:104DE000C5EBC50204F5FE7000EB82008160C5EBE7
:104DF000C50204F5FE7000EB8200C160C5EBC50280
:104E000004F5FE7000EB82004161681CC5B2606869
:104E1000A842D1D8282204F110016846FBF737FEDA
:104E200094E80F0003F03EFB20B1022084F8BD039C
:104E300001205CE7002084F83800012084F8BD03DD
:104E4000206803F01FFB002051E7000010B586B07A
:104E50000446142101A8FBF74CFE2068B0F1A04FD6
:104E600042D100BF002000902048006840F00100BF
:104E70001E4908600846006800F00100009000BF6D
:104E800000BF4FF4C0500190022002900020039018
:104E9000032004900A20059001A91548FFF7C8F8DF
:104EA00000BF1248001D006840F080000F49091D36
:104EB000086000BF002000900C481430006840F4E7
:104EC00080400A49143108600846006800F48040B8
:104ED000009000BF00BF00BF002205214320FFF764
:104EE00041FA4320FFF72EFA06B010BD30380240D9
:104EF0000000024070B504460125E06808B90025AD
:104F000006E0E068022801D1012501E0FEF7DAFAA7
:104F10002946D4F8040402F02BFED4F8040402F06D
:104F2000E1FD70BD10B50446D4F8040402F008FE9B
:104F300010BD10B50446D4F8040402F008FE10BDFC
:104F400070B504460D4600BF94F8BC03012801D19A
:104F5000022070BD012084F8BC0300BF84F83850E3
:104F60002946206803F0B3FF00BF002084F8BC038B
:104F700000BF00BFEDE710B5044604F57171D4F829
:104F8000040402F00CFE10BD70B50446256800BF95
:104F900094F8BC03012801D1022070BD012084F8DF
:104FA000BC0300BFA06A012806D1A069012803D074
:104FB000A86B40F48030A863206803F053FA20689F
:104FC00003F0CCFE00BF002084F8BC0300BF00BF8C
:104FD000E3E7000010B50446D4F8040402F038FEFC
:104FE0002068D0F8000E40F001002168C1F8000EE2
:104FF000206A28B10348006840F0060001490860B3
:1050000010BD000010ED00E0F8B5044600250026B4
:10501000207800F0010020B9207800F00400042876
:105020002FD100205B498866FFF712F9054606E09C
:10503000FFF70EF9401B022801D90320F8BD56489E
:105040000068C0F3C0600028F2D160688101207A56
:1050500041EA007050498431086001204D4988665A
:10506000FFF7F6F8054606E0FFF7F2F8401B0228C6
:1050700001D90320E2E748480068C0F3C060002877
:10508000F2D0207800F0020002287DD100BF00207D
:10509000009041484030006840F080503E49403127
:1050A00008600846006800F08050009000BF00BF14
:1050B0003A48006840F4807038490860FFF7C8F843
:1050C000054606E0FFF7C4F8401B022801D903207B
:1050D000B4E73248006800F480700028F2D02E480F
:1050E0007030006800F440764EB3A08900F4407040
:1050F000B04224D028487030006820F44076012067
:105100002749086000200860234870300660006866
:1051100000F0010098B1FFF79BF8054608E0FFF7A3
:1051200097F8401B41F28831884201D9032085E776
:10513000194870300068C0F340000028EFD000BF6D
:10514000A08900F44070B0F5407F0CD112480830BF
:10515000006820F4F810134AE168114008430E4932
:105160000831086007E00C480830006820F4F810A7
:10517000094908310860084870300068A189C1F306
:105180000B010843044900E002E07031086000BFF1
:10519000002053E700004742003802400070004002
:1051A000400E4742FFFCFF0F70B504460D460CB998
:1051B000012070BD5848006800F00F00A84209D2D5
:1051C00055490D700846006800F00F00A84201D054
:1051D0000120EEE7207800F0020002281DD120789F
:1051E00000F00400042805D14C48006840F4E05069
:1051F0004A490860207800F00800082805D147488F
:10520000006840F46040454908604448006820F068
:10521000F000A168084341490860207800F00100CF
:10522000A8B36068012807D13C4808380068C0F37B
:105230004040B8B90120BCE76068022802D060682D
:10524000032807D1354808380068C0F3406048B9E2
:105250000120AEE7314808380068C0F3400008B9C3
:105260000120A6E72D48006820F00300616808438C
:105270002A490860FEF7ECFF064609E0FEF7E8FF62
:10528000801B41F28831884202D9032091E707E070
:105290002248006800F00C006168B0EB810FEDD18E
:1052A0001D48006800F00F00A84209D91A490D7086
:1052B0000846006800F00F00A84201D0012078E7FE
:1052C000207800F00400042807D11448006820F476
:1052D000E050E168084311490860207800F00800B8
:1052E000082808D10D48006820F46040216940EA90
:1052F000C1000A49086000F03DF808490968C1F397
:105300000311074A515CC840064908600020FEF7B7
:10531000CFFF00204DE70000003C0240083802406B
:1053200078C100082800002001480068704700008C
:105330002800002000B5FFF7F7FF04490968C1F312
:105340008221034A515CC84000BD00000838024079
:1053500088C1000800B5FFF7E7FF04490968C1F3F9
:105360004231034A515CC84000BD00000838024089
:1053700088C100082DE9F047002400250026A14639
:105380002548006800F00C0020B1042805D008284A
:105390003AD105E0DFF8849039E0DFF8849036E018
:1053A0001D48001F006800F03F041B48001F0068F4
:1053B00000F4800078B11A481749091F0968C1F341
:1053C0008811A0FB01700146224600233846FBF7F6
:1053D00097F805460EE011480F49091F0968C1F307
:1053E0008811A0FB01700146224600233846FBF7D6
:1053F00087F805460848001F0068C0F30140401CBC
:105400004600B5FBF6F902E0DFF8109000BF00BFE0
:105410004846BDE8F0870000083802400024F40048
:10542000001BB700F8B504460CB90120F8BD207880
:1054300000F00100002874D0F948006800F00C006A
:1054400004280DD0F648006800F00C00082813D19D
:10545000F348001F006800F48000B0F5800F0BD106
:10546000EF4808380068C0F34040002859D0606811
:10547000002856D10120D9E700BF6068B0F5803F11
:1054800008D1E7480838006840F48030E44908391A
:1054900008601EE06068B0F5A02F0DD1E048083824
:1054A000006840F48020DE4908390860084600683A
:1054B00040F4803008600CE0D9480838006820F4D7
:1054C0008030D749083908600846006820F48020F9
:1054D000086000BF606890B1FEF7BAFE054606E0BE
:1054E000FEF7B6FE401B642801D903209EE7CC4896
:1054F00008380068C0F340400028F1D011E0FEF702
:10550000A7FE054606E0FEF7A3FE401B642801D96E
:1055100003208BE7C24808380068C0F340400028E9
:10552000F1D1207800F0020002285FD1BC48006869
:1055300000F00C0058B1BA48006800F00C000828D0
:105540001CD1B748001F006800F48000B0B9B4480F
:1055500008380068C0F3400020B1E068012801D09D
:10556000012063E7AE480838006820F0F8002169A0
:1055700040EAC100AA490839086037E0E06800B392
:105580000120A8490860FEF763FE054606E0FEF725
:105590005FFE401B022801D9032047E7A0480838D6
:1055A0000068C0F340000028F1D09D48083800682A
:1055B00020F0F800216940EAC100994908390860E3
:1055C00014E0002097490860FEF742FE054606E019
:1055D000FEF73EFE401B022801D9032026E7904833
:1055E00008380068C0F340000028F1D1207800F0AE
:1055F000080008282CD16069A8B101208A490860F8
:10560000FEF726FE054606E0FEF722FE401B0228B6
:1056100001D903200AE782486C300068C0F34000DB
:105620000028F1D014E000207F490860FEF710FE4A
:10563000054606E0FEF70CFE401B022801D90320B8
:10564000F4E677486C300068C0F340000028F1D1E0
:10565000207800F00400042870D10026704838300B
:10566000006800F0805090B900BF002000906C48A6
:105670003830006840F08050694938310860084689
:10568000006800F08050009000BF00BF012667480E
:10569000006800F48070B0B96448006840F480701D
:1056A00062490860FEF7D4FD054606E0FEF7D0FD2E
:1056B000401B022801D90320B8E65C48006800F4CA
:1056C00080700028F2D000BFA068012808D154489B
:1056D0006830006840F001005149683108601DE001
:1056E000A06805280DD14E486830006840F00400DD
:1056F0004B49683108600846006840F001000860C6
:105700000CE047486830006820F0010044496831E7
:1057100008600846006820F00400086000BFA06828
:10572000A8B1FEF795FD054609E0FEF791FD401B87
:1057300041F28831884202D9032077E626E03848D2
:1057400068300068C0F340000028EED013E0FEF798
:105750007FFD054608E0FEF77BFD401B41F28831E6
:10576000884201D9032061E62D4868300068C0F303
:1057700040000028EFD1012E07D1294838300068B9
:1057800020F0805026493831086000BFA069B8B3C6
:105790002348006800F00C0008285ED0A0690228A9
:1057A00046D100201F490866FEF752FD054606E077
:1057B000FEF74EFD401B022801D9032036E61848AB
:1057C00008380068C0F340600028F1D1D4E907012F
:1057D0000843616A40EA81110122A06AC2EB5000CD
:1057E00041EA00412C20005D41EA00600C49091F9C
:1057F000086001200B490866FEF72AFD054607E010
:105800002DE0FEF725FD401B022801D903200DE6FF
:10581000034808380068C0F340600028F1D01EE05B
:105820000838024000004742800E474200700040A6
:1058300000200C490866FEF70BFD054606E0FEF762
:1058400007FD401B022801D90320EFE50648006848
:10585000C0F340600028F2D101E00120E6E500201D
:10586000E4E50000000047420038024070B50446FD
:105870002546681EB0F1807F01D301200FE0681E2D
:105880004FF0E02148610F214FF0FF3003F0F2FBB1
:1058900000204FF0E021886107200861002070BDE2
:1058A00070477047704710B5044620680069C0F320
:1058B0004000D8B12068C068C0F34000B0B16FF0BC
:1058C000020021680861012020772068806900F0CB
:1058D000030018B12046FFF7E5FF05E0204600F081
:1058E000ADF8204600F0ABF8002020772068006972
:1058F000C0F38000D8B12068C068C0F38000B0B1A8
:105900006FF0040021680861022020772068806918
:1059100000F4407018B12046FFF7C4FF05E02046B0
:1059200000F08CF8204600F08AF8002020772068EC
:105930000069C0F3C000D8B12068C068C0F3C000DF
:10594000B0B16FF00800216808610420207720685A
:10595000C06900F0030018B12046FFF7A3FF05E07F
:10596000204600F06BF8204600F069F80020207710
:1059700020680069C0F30010D8B12068C068C0F387
:105980000010B0B16FF01000216808610820207786
:105990002068C06900F4407018B12046FFF782FF0C
:1059A00005E0204600F04AF8204600F048F80020C4
:1059B00020772068006900F0010058B12068C068B5
:1059C00000F0010030B16FF001002168086120464D
:1059D00000F036F820680069C0F3C01058B12068A4
:1059E000C068C0F3C01030B16FF08000216808615A
:1059F0002046FFF755FF20680069C0F3801058B1BA
:105A00002068C068C0F3801030B16FF0400021689A
:105A10000861204600F012F920680069C0F34010C8
:105A200058B12068C068C0F3401030B16FF020005A
:105A3000216808612046FFF734FF10BD70477047AA
:105A400070B52DED028B05469FED6D0AB0EE408AD4
:105A50006C4885427ED16C480068401C6A490860E9
:105A6000B0F57A7F01DB002008606749086800EB29
:105A7000D0714910A0EB410199BB03F009FE03F07E
:105A800039FD624908606249624803F071FE62486C
:105A900090ED481AF0EE410A90ED461AB0EE410A38
:105AA0005E4803F0D9FE5D4890ED0F0A5A4880ED3C
:105AB000490A90ED491AF0EE410A90ED4A1AB0EE0B
:105AC000410A574803F0C8FE554991ED120ABDEE50
:105AD000C00A10EE101A08B200231A461946FDF744
