:020000040800F2
:10000000A06C0020150400084B560008BF540008DF
:100010004956000811320008017500080000000070
:1000200000000000000000000000000021030008A4
:10003000C1330008000000007D0300089558000847
:100040002F0400082F0400082F0400082F040008C4
:100050002F0400082F0400082F0400082F040008B4
:100060002F0400082F0400082F0400082F040008A4
:100070002F0400082F0400082F0400082F04000894
:100080002F0400082F0400082F0400082F04000884
:10009000153200082F0400082F0400082F04000860
:1000A0002F0400082F0400082F0400082F04000864
:1000B0009D5900082F0400082F0400082F04000891
:1000C0002F0400082F0400082F0400082F04000844
:1000D0002F040008B95C00082F040008955D000893
:1000E0002F0400082F0400082F0400082F04000824
:1000F0002F0400082F0400082F0400082F04000814
:100100002F0400082F0400082F0400082F04000803
:100110002F0400082F0400082F0400082F040008F3
:100120002F0400082F0400082F0400082F040008E3
:100130002F0400082F0400082F0400082F040008D3
:10014000213200082F0400082F0400084D56000833
:100150002F0400082F0400082F0400082F040008B3
:100160002F0400082F0400082F0400082F040008A3
:100170002F0400082F0400082F04000800000000CE
:100180002F0400082F04000800F002F800F0B8F86F
:100190000AA090E8000C82448344AAF10107DA45E2
:1001A00001D100F0ADF8AFF2090EBAE80F0013F07C
:1001B000010F18BFFB1A43F001031847C89900004C
:1001C000E89900000A444FF0000C10F8013B13F0CE
:1001D000070408BF10F8014B1D1108BF10F8015BA0
:1001E000641E05D010F8016B641E01F8016BF9D193
:1001F00013F0080F1EBF10F8014BAD1C0C1B09D1EA
:100200006D1E58BF01F801CBFAD505E014F8016B5B
:1002100001F8016B6D1EF9D59142D6D370470000ED
:100220000023002400250026103A28BF78C1FBD8FF
:10023000520728BF30C148BF0B6070476E2900F0DD
:100240009085702900F0D386662909F08A83652994
:1002500009F08783672909F08483612909F0838382
:1002600003681B0A28BF41F08001692900F0E8817A
:10027000642900F0E581752900F0E2816F2900F022
:100280006086782900F09F86E92900F0FB85E42943
:1002900000F0F885F52900F0F585EF2900F05D867E
:1002A000F82900F09E860368DB0928BF41F0800131
:1002B000632901F07385732901F07885E32901F042
:1002C0008385F32901F08885002070471FB509F068
:1002D0003BFB9DE8030000F053FC00F08AFB01F0BB
:1002E00055F904000020002109F026F9401C606047
:1002F0000020002109F00AF9E0601FBD10B510BD13
:1003000001F0C2FF1146FFF7E1FF07F0E9FB02F041
:100310005FFA03B4FFF7F2FF03BC02F0CFFA00006C
:100320002C4B19680868B0E8F04F80F30988BFF3D8
:100330006F8F4FF0000080F31188704700000000BD
:1003400008480068006880F308884FF0000080F3D8
:10035000148862B661B6BFF34F8FBFF36F8F00DFB3
:1003600000BF00BF08ED00E0DFF80C00016841F4B9
:1003700070010160704700BF88ED00E0EFF3098075
:10038000BFF36F8F134B1A681EF0100F08BF20EDDC
:10039000108A20E9F04F106009B44FF0100080F38C
:1003A0001188BFF34F8FBFF36F8F08F0B5FB4FF08D
:1003B000000080F3118809BC19680868B0E8F04FA4
:1003C0001EF0100F08BFB0EC108A80F30988BFF34D
:1003D0006F8F704754000020EFF3058070470000D6
:1003E0000B49D1F800C04A685CF8043B1068184417
:1003F00042F8040B8C4528BFA1F1DC0C8A4228BFCF
:10040000A1F1DC02C1F800C04A6020F00040704752
:10041000384A00200948804709480047FEE7FEE7C0
:10042000FEE7FEE7FEE7FEE7FEE7FEE7FEE7FEE7A4
:1004300004480549054A064B704700004959000821
:1004400089010008A04A0020A06C0020A04C0020D8
:10045000A04C002070B5064600F076FB056806F15A
:100460000B0020F00704B4429CBF002070BD2B4657
:100470006A68BAB11068A04210D304F1080188423A
:100480003CBF5068586007D351681019416011682B
:10049000091B016058601460101D70BD134652683E
:1004A000002AE7D12146284600F056FB0028DED17D
:1004B00070BD70B50446051F00F046FB0068002CB7
:1004C00014BF446870BD002C18BFAC423CBF20462E
:1004D0006468F8D301680A18AA4218BF456003D1BE
:1004E0002A6805461144016028684119A1421CBFD1
:1004F0006C6070BD6168696021680844286070BDE7
:1005000053EA020C00F069802DE9F04B4FF0000631
:10051000002B1FBFB3FA83F503FA05F424FA05F69E
:100520005E4012BF1643B2FA82F502FA05F4C5F135
:1005300020051EBF22FA05FC44EA0C04203556EAC9
:10054000044C4FEA144418BF641C4FF000084FF0ED
:100550000009904271EB030C39D3002919BFB1FA9D
:1005600081F701FA07F6B0FA80F700FA07F6C7F14B
:1005700020071EBF20FA07FC46EA0C062037B6FB10
:10058000F4FCA7EB0507103F07F01F0BCBF120068B
:100590000CFA0BFB2CFA06F644BFB3460026202FBC
:1005A000A4BF5E464FF0000B5BEA060C08BF4FF09D
:1005B000010B19EB0B09ABFB027C48EB0608C01BD7
:1005C00006FB02CC0BFB03CC71EB0C01C1E70B4625
:1005D000024641464846BDE8F08B13B54FF0000097
:1005E0004FF00001AFF30080BDE81C4070470000F1
:1005F0001CB50C46064B7B4469460090204600F033
:10060000CAFB04460020694600F0D8FB20461CBD0A
:10061000C30700000FB41CB5084B06AA7B4469460B
:100620000090059800F0B7FB04460020694600F0F2
:10063000C5FB20461CBC5DF814FB00009D070000B4
:100640002DE9F0410646002410687529314616A5AB
:1006500010D000F0F2FA002802DA404213A507E0B9
:1006600031688A0701D512A502E0490704D511A512
:10067000012401E000F0EAFA00210A2206F1240731
:1006800009E0B0FBF2FCB0FBF2F302FB1C003030DF
:1006900078541846491C0028F3D123462A46304690
:1006A000BDE8F04100F004BB000000002D00000098
:1006B0002B000000200000002DE9F05F8946044671
:1006C0004FF0000ADFF874B1FB44C0F820A02046C8
:1006D000E1688847002874D0252806D0D4E9012194
:1006E0009047206A401C2062F1E700265F462046C2
:1006F000E16888472028054607DB312D05D27819A7
:1007000010F8200C08B10643F1E7B00701D526F038
:100710000406C4F81CA00027C4F818A02A2D09D08C
:10072000284607F030F838B304EB8708303DC8F8A6
:10073000185019E059F8041B204604EB8702916118
:10074000E1688847012F054618D1E069002820DAC2
:1007500026F020061DE0D8F8180000EB800005EB1D
:1007600040003038C8F818002046E1688847054640
:1007700007F009F80028EED1012F0AD02E2D08D15C
:100780002046E16888477F1C0546022F46F0200678
:10079000C4DBA069002803DA404246F00106A061EC
:1007A000F00701D026F010066C2D0BD0682D09D073
:1007B0004C2D39D06A2D35D0742D35D07A2D33D0CB
:1007C00016E038E0E1682F4620468847B8420546E3
:1007D00009D16C2F26D04FF48060E1680643204693
:1007E0008847054604E06C2F1AD04FF4807006430A
:1007F0000DB3A5F14100192802D8203546F4006652
:100800004A462946204626604E46FFF717FD80B12E
:1008100001280BD0F61D26F0070000F1080956E765
:100820004020E4E78020D8E70020D6E706F104095D
:100830004DE7284652E7206ABDE8F09FBA930000D2
:100840000FB400B58DB010A9099000910B904FF036
:10085000FF300A9000200C90064878440690064825
:1008600078446A4607900F9909A800F05BFE0DB026
:100870005DF814FBE70C0000FF0C00002DE9FF5FA2
:100880001D464FF0FF3B91464FF000085F46D5E90B
:100890000146A96901987F1C8847296A82468847D2
:1008A0000028F6D1BAF1FF3F0CD0002E24F4C0642A
:1008B00019DD600614D5BAF12B0F09D0BAF12D0F4E
:1008C0000ED103E0584604B0BDE8F09F44F48064C4
:1008D000A96901987F1C8847761E8246002E02DD9A
:1008E000BAF1300F03D0B9F1000F26D032E0A96978
:1008F000761E01987F1C44F400748847002E8246BF
:1009000005DDBAF1780F06D0BAF1580F03D0B9F16E
:10091000000F10D01EE0B9F1000F02D0B9F1100F96
:1009200018D1A969761E01987F1C24F400748847A9
:100930008246102002E0082000E00A20814609E0FB
:10094000A96908FB0908761E01987F1C44F400740D
:1009500088478246002E05DD4946504600F052FB8E
:100960000028EDDAE96901988847A00502D46FF004
:100970000100A8E7E00725D1600613D5600502D580
:10098000C8F1000000E0404629680A1D2A60096895
:10099000220501D5087015E0220701D5088011E075
:1009A00008600FE02868011D29600068210502D554
:1009B00080F8008006E0210702D5A0F8008001E061
:1009C000C0F8008038467EE70B4910B5A1F17C02E3
:1009D0000A4CC2E93712372106E000EB104342F817
:1009E0002130074B00FB03400B1EA1F10101F4DC99
:1009F00010BD0120E8E70000D8490020E119D666C3
:100A0000CD0D0100032A40F2308010F0030C00F0FD
:100A1000158011F8013BBCF1020F624498BF11F838
:100A200001CB00F8013B38BF11F8013BA2F10402F1
:100A300098BF00F801CB38BF00F8013B11F0030369
:100A400000F02580083AC0F0088051F8043B083ACD
:100A500051F804CBA0E80810F5E7121D5CBF51F86F
:100A6000043B40F8043BAFF30080D20724BF11F8E9
:100A7000013B11F801CB48BF11F8012B24BF00F84E
:100A8000013B00F801CB48BF00F8012B704710B5BF
:100A9000203AC0F00B80B1E81850203AA0E8185076
:100AA000B1E81850A0E81850BFF4F5AF5FEA027C37
:100AB00024BFB1E81850A0E8185044BF18C918C0A6
:100AC000BDE810405FEA827C24BF51F8043B40F847
:100AD000043B08BF7047D20728BF31F8023B48BF2C
:100AE00011F8012B28BF20F8023B48BF00F8012B6A
:100AF00070474FF0000200B51346944696462039E1
:100B000022BFA0E80C50A0E80C50B1F12001BFF4C6
:100B1000F7AF090728BFA0E80C5048BF0CC05DF82C
:100B200004EB890028BF40F8042B08BF704748BF7A
:100B300020F8022B11F0804F18BF00F8012B7047EE
:100B4000704770477047000000487047484A0020CF
:100B5000704770477047704738B504460A46002012
:100B60006946AFF30080002808BF38BD02460099EF
:100B7000204600F013FD012038BD012001F07CBBB0
:100B8000F8B5AFF30080054600200C46102000BFEA
:100B90000646A819A0420DD9324669460020AFF397
:100BA0000080070008BF01F067FB0098A04218BF53
:100BB0000546C419FFF7C8FF05600746F01D20F081
:100BC00007004619284600F00AF8B44208BFF8BDED
:100BD000A21B31463868BDE8F84000F0DFBC0021B8
:100BE0000160C0E9011070471020704770B50446DD
:100BF00085690068C10601D5302600E02026C007BF
:100C000007D070BDD4E9012130469047206A401CCE
:100C100020626D1EF6D570BD70B5044685690078FA
:100C2000C00707D170BDD4E9012120209047206A78
:100C3000401C20626D1EF6D570BD09684A0501D5BD
:100C400040B27047C905FCD500B2704709684A0533
:100C500001D5C0B27047C905FCD580B2704770B5E8
:100C60000C460546012A05D02878800600D5EA6999
:100C7000002302E0012305E05B1C934202D2E05C0A
:100C80000028F9D1A869E618C01AA861286A184492
:100C900028622846FFF7AAFF04E0D5E9012114F8ED
:100CA000010B9047B442F8D32846FFF7B5FF70BD5B
:100CB0002DE9F0470D4699469246044600F1240876
:100CC0000168880604D5E06921F01001216000E088
:100CD0000120A84201DD471B00E00027A1697A1925
:100CE00002EB0900081AA0612078C00602D4204651
:100CF000FFF77CFF002608E0D4E901211AF806007E
:100D00009047206A401C761C20624E45F4DB207818
:100D1000C0060AD52046FFF769FF06E0D4E90121A5
:100D200030209047206A401C2062381EA7F101073E
:100D3000F4DC07E0D4E9012118F805009047206AA7
:100D4000401C2062281EA5F10105F3DC2046FFF7B8
:100D500063FF2078000602D50220BDE8F08701205D
:100D6000FBE711680268006A530501D508700AE0C4
:100D7000D30501D5088006E0130603D5C217C1E9E3
:100D8000000200E0086001207047000001694A1C71
:100D900002610878704700B58FB0CDE901310021BC
:100DA000059105497944CDE9031011466846FFF7DE
:100DB00083FC0FB000BD0000E5FFFFFF0A6802F8EA
:100DC000010B0A60704700002DE9FF5F15468A4657
:100DD0000446DFF8AC80F8440027D8E900103E460E
:100DE000CDE9001010E03AF816106A4602A801F0AA
:100DF00023FA411C07D02178890603D5E269391806
:100E000091420DD80744761C2078800602D5E0690F
:100E1000B84205DDAE42E6DB3AF816000028E2D122
:100E2000A069C01BA0612046FFF7E0FED8E90010D2
:100E3000CDE90010002017E03AF818106A4602A821
:100E400001F0FAF9B0F1FF3F81460BD000250DF11A
:100E5000080B05E0D4E901211BF8050090476D1C43
:100E60004D45F7D308F10100B0428046E4DB206A2B
:100E7000384420622046FFF7CFFEBDE8FF9F000008
:100E8000BE8C00002DE9F0418046D21D22F0070201
:100E90000025D2E90002F52915A614D0011E72F131
:100EA000000106DA0023D0EB030063EB020211A677
:100EB00008E0D8F800108B0701D50FA602E049071B
:100EC00001D50EA601251146002408F1240704E0EF
:100ED00000F07EFB30323A55641C50EA0102F7D133
:100EE0002B46324621464046BDE8F041FFF7E0BEC2
:100EF000000000002D0000002B000000200000007A
:100F000030B4002100F1240408E002F00705D20803
:100F1000303542EA4372DB086554491C52EA030546
:100F2000F3D10468002310A2250707D5A40600D436
:100F300021B1C46901230DA2641EC46130BCFFF756
:100F4000B7BE10B5044621461068FFF77FFE024683
:100F50002046BDE810400023D2E7D21D22F0070151
:100F6000D1E90023CCE700000000000030000000C1
:100F7000F0B40D460188090502D5214C7C4402E0FD
:100F80001F4C7C440E34002100F1240608E002F0DE
:100F90000F071209E75D42EA03721B097754491CE7
:100FA00052EA0307F3D102780023120704D5702D0B
:100FB00006D009B1022311342246F0BCFFF778BEF7
:100FC00001231034F8E770B504460D462146106839
:100FD000FFF73CFE024629462046BDE8704000234C
:100FE000C6E7D21D22F00703D3E90023C0E7036858
:100FF000126843F0200303600823C3610023B7E7AE
:10100000208B00003A2800D2303820F02002412AFC
:1010100001D3A2F13700884201D34FF0FF3070476F
:101020002DE9FF4F06468BB00878FF2806D0491CF3
:101030002D2805D000244FF0000908E000200CE026
:101040000124F8E709EB8903491C00EB4309087800
:10105000FF28F7D114B1C9F10000814610780025AE
:101060002C46AA4629462D2801D02B2804D1521CF3
:101070002D2813D0002082468B461078FF280FD0F1
:101080004FF0000C0A21521CA5FB017804FB0181E2
:1010900005FB0C11C5194BEB0104EEE70120EAE753
:1010A000002108464FF00000BAF1000F02D000EB1B
:1010B00080004008C0F38157012F01DD4FF0FF375A
:1010C0000E9955EA040009EB01080BD04FF0020914
:1010D00018F5FA7F16DA4FEACA70002F706008DD43
:1010E000012007E04FEACA70C6E900B00FB0BDE8C2
:1010F000F08F0020306000F04DFAC0F80090182109
:10110000084616E0B8F5FA7F18DD002F02DAF74836
:10111000784401E0F6487844D0E90010C6E90010B0
:1011200040EACA70706000F035FAC0F800901421EF
:1011300008460FB0BDE8F04F08F010BC002108468B
:101140004FF00000B8F10001099002DAC7F1000287
:1011500000E03A4601DAC8F1000106A800F0FAFF03
:1011600006AB93E8070003AB83E8070044F23E00B8
:101170005BEA04010090584604D144F21E012C465B
:101180005D460091210C0904014306D10099240415
:1011900044EA15442D041039009104F07F410143C5
:1011A00006D10099240244EA15642D020839009101
:1011B00004F07041014306D10099240144EA1574FA
:1011C0002D01091F009104F04041014306D100990F
:1011D000A40044EA9574AD00891E009104F000411A
:1011E000084304D100986D196441401E00904FF0EF
:1011F00001033A466846B8F1000FCDE9014503A95D
:1012000002DD01F092FE01E001F065FEBAF1000F8F
:1012100004460D4601D084F00044002108464FF0FA
:101220000000099940F2FF77484010F00C0F07D1F9
:1012300024F00040284303D0C4F30A50B84212D12E
:1012400000F0A8F9C0F80090C4F30A50B8420AD1DF
:10125000A8487844D0E90010C6E9001004F0004125
:101260000843706042E7C6E900543FE72DE9FF4FAD
:101270001F464FF0000A4FF0FF38454691B0D7E9BE
:101280000146CDF83CA000F081F9C0680168405CDF
:101290001090B96912986D1C8847396A8146884751
:1012A0000028F6D1B9F1FF3F0AD0002E24F4D06413
:1012B00011DDB9F12B0F08D0B9F12D0F0BD102E0E0
:1012C000404615B013E744F48064B96912986D1C68
:1012D0008847761E8146600504A901D52D2000E0CF
:1012E0002B20002E01F1010B0DF130088DF81000BC
:1012F0003FDDB9F1690F08D0B9F1490F05D0B9F157
:101300006E0F02D0B9F14E0F1CD13B4601A80095DB
:1013100080E85002DDE912126FF0020008F089FB4C
:10132000C11CCED10EE0B96912986D1C8847814668
:101330001398761E44F4007405600F98401C002E2C
:101340000F9016DDB9F1300FEDD0B9F1780F02D062
:10135000B9F1580F0DD10F9801280AD13B46CDE9BC
:101360000054DDE91212001F029608F060FBC11C58
:10137000A7D1109989453ED144F0800406E0139925
:10138000681CAAF1010A44F400740860B9696D1C74
:101390001298761E884730288146F0D02BE01099AD
:1013A000894505D1200603D4761E44F0800418E058
:1013B000484606F0E8F908B3761E0DF123018B4587
:1013C00044F4007408D2A9F130000BF8010B200698
:1013D00007D5AAF1010003E0200602D40AF10100BA
:1013E0008246A00502D51399681C0860B969129855
:1013F0006D1C88478146002ED1DC53E0002E51DD64
:10140000B9F1650F02D0B9F1450F4BD1A00549D50F
:10141000B9696D1C1298761E24F440748847002E1A
:1014200081460CDD2B2804D0B9F12D0F07D144F4EF
:101430008074B96912986D1C8847761E8146E00554
:1014400001D52D2100E02B2108F8011BCDF80080EB
:1014500021E0761E0DF13901884544F400740CD268
:10146000A9F1300010F0FF0088F8000002D10099C7
:10147000884509D908F1010806E0E00501D51E48B4
:1014800001E042F20F708246B96912986D1C8847DC
:10149000814613980560002E04DD484606F073F976
:1014A0000028D6D1F96912988847FF2053468BF857
:1014B000000088F8000000200A900B9004AA0CA9F4
:1014C0000AA8FFF7ADFDA00502D46FF00100F8E611
:1014D00014F0240F12D0E0071CD13868DDE90A129D
:1014E000031D3B600068C0E9001213E0988A000009
:1014F0008A8A00004E890000F1D8FFFF0AA96846D9
:1015000006F02EF9E00705D13868009A011D396010
:10151000006802602846D4E602681144137801602E
:1015200018467047D16005497944516104497944AE
:10153000116200211161114600F052BCEDFFFFFF66
:1015400029010000426842B1016811F8013B23B152
:10155000521EC0E90012184670470121C160881E62
:10156000704742685AB1C368016843B983688B42C7
:1015700005D0491E521CC0E90012002070474FF0F0
:10158000FF30704700487047404A002000487047CD
:10159000604A002000487047404A002003464068E7
:1015A0008C46002818BF88423CBF03464068F8D3E9
:1015B00018681844884207D00CF1030020F0070097
:1015C000001D411A521A0146081D0A60FEF771BF3C
:1015D00030B5B0F10A024FEA900E71F100034EEA05
:1015E000817EB0EB0E0061EB91014FEA101E4EEAD6
:1015F000017E10EB0E0041EB11114FEA102E4EEA66
:10160000016E10EB0E0041EB11214FEA104E4EEA35
:10161000014E10EB0E0041EB1141401841F1000169
:101620004FEAD00040EA41704FEAD10110EB80054B
:101630004FEA810444EA907444EB01046D1944EBD1
:101640000404521BA3414FF0000348BF0A3200D5E7
:1016500030BD401C41F1000130BD10B5044600F022
:1016600039FE0068005D00F0010010BD70472DE9F3
:10167000FF4F0C461E464FF0FF378BB0D2E90001FA
:10168000DDF860800A908A46C1F30A5505B93D46E7
:10169000002108464FF00000BAF1000F00F44000AE
:1016A00005DA00EB80004FF4400101EA50004FEAF8
:1016B0009059B9F1010F00DDB9460A9850EA4A0085
:1016C0000ED044F61050A5F2FF3545432F14B8F163
:1016D000000F1ED07542291E1EDDC9F100021CE05C
:1016E000B8F1010F4FF0000001D0302103E0F243C8
:1016F00005E02154401CB042FBDB304600220021B3
:1017000021540B99C1F80880C1E900200FB0BDE851
:10171000F08FBD1B6D1CDEE74A4600DA694206A861
:1017200000F018FD06AB93E8070003AB83E8070061
:1017300050460A9901F0FBF88DE80700A0F500502B
:101740001F3800900398002D0ADD42F21F014A461F
:101750000844002303A90390684601F0A7FB09E0B1
:10176000A0F500504A461F38002303A9039068469D
:1017700001F0C6FB8DE807000004000C03D04FF019
:10178000FF30410800E01046B8F1000F03D00022FE
:10179000009215461EE0751E05D4FFF719FF303282
:1017A00062556D1EF9D5B3460122084302D00022CE
:1017B0007F1C04E02078302801D100227F1E002AFF
:1017C000099784D01DE0112D07DAFFF701FF3032B1
:1017D00062556D1C50EA0102F5D1084302D0009811
:1017E000C8B10EE00021681E05E0235C625C635412
:1017F0002254401E491C8142F7DBAB46A81B401E09
:101800000990002004F80B000B98099AC0F8088092
:10181000C0E9002B7AE711264FF0000857E72DE9C1
:10182000F04F88460446D21D22F0070191B0D1E95D
:101830000001CDE90A0105F064FE02460B98C00FD5
:1018400001D02D2007E02068810701D52B2002E080
:10185000202101EAC000032A099001D0072A05DBF4
:1018600003464146204600F049FD0BE12078800602
:1018700001D5E06900E00620B8F1650F814606D089
:10188000B8F1660F18D0B8F1670F70D131E00020C1
:10189000B9F1110F009001DB112301E009F10103FF
:1018A0000AAA01A90CA8FFF7E2FEDDE90C700026E8
:1018B00009F10105834647E001204B4600904FF0B7
:1018C00000470AAA01A90CA8FFF7D1FEDDE90DB077
:1018D0000C995D46002610B909F101000D18B9EB0D
:1018E000050003D4C0F1FF3609F10105A5EB09009D
:1018F0002BE0B9F1010F01DA4FF001090020B9F135
:10190000110F0090484601DD112300E003460AAAAA
:1019100001A90CA8FFF7ABFEDDE90C704D460026CF
:101920008346207800070AD4AB4500DA5D4601A85B
:10193000012D04DD411911F8011C302907D04F4554
:1019400002DA17F1040F04DA012082460FE06D1E5F
:10195000EEE7002F02DCED1B3E4403E0781CA842BA
:1019600000DD7D1CB81B00F1010A4FF00047207814
:10197000000703D4AA4501DB4FF0FF3A0021B7F17D
:10198000004F0DF143088DF8431024D002202B2383
:10199000002F01DA7F422D230A21021EA0F101004F
:1019A00000DC5FB197FBF1FC97FBF1F201FB1C7CC3
:1019B00017460CF1300C08F801CDEEE7A8F1010054
:1019C00003702188090501D5452100E06521A0F1BA
:1019D000010800F8011C09980FA9A1EB0807FF1DD9
:1019E00000B10120411901EBEA70A1693844081ADD
:1019F000401EA0612078C00602D42046FFF7F6F80A
:101A0000099828B1D4E901219047206A401C20623E
:101A10002078C00622D52046FFF7E8F81EE0002E09
:101A200004DBB34502DD01A8805D00E03020D4E98D
:101A300001219047206A401C2062761CAAF1010017
:101A40005FEA000A0AD1FFF7A1FDC0680168405CA7
:101A5000D4E901219047206A401C2062281EA5F18C
:101A60000105DCDC07E0D4E9012118F8010B9047FF
:101A7000206A401C2062381EA7F10107F3DC2046D3
:101A8000FFF7CAF8032011B041E600002DE9F04F3E
:101A900004460D46D21D22F0070089B0D0E9009718
:101AA0004846394605F02DFD0246F80F01D02D239A
:101AB00007E02068810701D52B2302E0202101EAFD
:101AC000C0038DF820300BB1012000E00020032A74
:101AD000824601D0072A04DB2946204600F00EFC8E
:101AE0003FE12078800601D40D2500E0E569C7F3C9
:101AF0000A560D2D49DA00214FEA175B08464FF0D0
:101B00000000002F00F4400007DA00EB80004FF4E3
:101B1000400100EBD07001EA60008115012901DD70
:101B20004FF0FF3100224FEA850CBCF1180F06D3AD
:101B30001346ACF118004FF08052C24003E04FF45E
:101B4000801323FA0CF30CF10C0CBCF1200F04D31E
:101B5000ACF1200C09FA0CF001E007FA0CF00029B6
:101B60004FF0004801DD18B90FE00ED140450CD30D
:101B700019EB02095F4121B9404502D19F4329EA8F
:101B80000209BBEB175F00D0761C2088000502D548
:101B90007B48784402E07A487844193808AA302310
:101BA00002F80A30037C0AF10101002E0AF1020A50
:101BB00053546A4602DC4FF0300101E04FF031012E
:101BC0004FF001088DF8001002D0A6F2FF3603E0B6
:101BD00059EA470100D06B4E002D02DC217809073D
:101BE00004D54FF002082E218DF80110C4460021C3
:101BF0000BE0C7F303433F01C35C491C6D1E02F8B1
:101C00000830052908F1010801DA002DF1DC002176
:101C10000CE000EB1973491C1B786D1E082902F8B3
:101C200008304FEA091908F1010801DA002DF0DC4B
:101C300021688B0602D516E0A8F10108E04505DD14
:101C400002EB080313F8013C302BF5D0B8F1000F7C
:101C500009DD02EB080313F8013C2E2B03D1090721
:101C600001D4A8F10108002D05DD3E2102F808107D
:101C70006D1E08F10108407C002E02F8080008F1F2
:101C8000010804DA2D20764202F8080002E02B2039
:101C900002F808000A214FF47A70864208F1010820
:101CA0000BDB96FBF0F3303302F8083096FBF0F3D1
:101CB00008F1010800FB136601E0642E0CDB6420D0
:101CC00096FBF0F3303302F8083096FBF0F308F19E
:101CD000010800FB136601E00A2E06DB96FBF1F01B
:101CE000303002F8080008F1010896FBF1F001FB22
:101CF0001060303002F80800A16908F1010808EB13
:101D0000050202EB0A00081AA0612078C00602D47E
:101D10002046FEF76BFF216A08AE01EB0A00206245
:101D200004E0D4E9012116F8010B9047BAF1010A49
:101D3000F7D22078C00602D52046FEF757FF6E4640
:101D400009E016F8010B3E280FD0D4E90121904795
:101D5000206A401C2062B8F10108F2D22046FEF74A
:101D60005BFF09B00320BDE8F08F206A28442062A1
:101D700003E0D4E90121302090476D1EEBD3F8E752
:101D8000457F000002FCFFFF10B5436913B1AFF3BC
:101D9000008001E0FEF763FF012010BD127800F122
:101DA00024010A7000224A700122EDE711684FF009
:101DB000FF32E9E710B5436913B1AFF3008001E0EA
:101DC000FFF702F8012010BD128800F1240182847F
:101DD0000022C2840122EDE711684FF0FF32E9E7EB
:101DE0002DE9F34F4FF0000A0C4656468DB0012006
:101DF0000C9001F10C000B9062690B980121904747
:101E0000051E2DD0252D2CD0216A8847C0B16269CE
:101E10000B9801219047216A88470028F7D1626911
:101E2000411E0B98904700E0761CA1690D988847E9
:101E3000216A88470028F7D1E1690D988847DBE7D8
:101E4000A1690D988847A842074601D1761CD3E7BF
:101E5000E1690D9888477F1C02D1BAF1000F6FD05D
:101E60006BE162690B9800273D46394690472A2866
:101E700004D162690B98012190470125DFF8D082D7
:101E800062690B9801219047A0F130010A290AD21A
:101E90004745E5DC07EB870100EB4107303FDFD426
:101EA00045F01005ECE7E90601D46FF000476C2817
:101EB0000AD04C2814D0682815D06A280DD0742870
:101EC0001CD07A281AD01DE062690B980121904736
:101ED0006C2802D045F0040514E045F002050DE041
:101EE00045F020050AE062690B98012190476828B7
:101EF00002D045F0080505E045F4006562690B98DD
:101F000001219047C4E9015765283DD019DC5828C4
:101F10007AD00CDC452837D004DC252826D041288F
:101F20009ED131E046282FD0472899D12CE05B285C
:101F300077D0612828D063287CD0642823D15AE048
:101F4000F6E06F2848D008DC66281DD067281BD033
:101F5000692821D06E2816D127E0702845D0732833
:101F600068D0752847D078280DD14DE0A1690D982B
:101F70008847252805463FF469AFE1690D988847F1
:101F80006D1C3FF46AAFD8E00D9923466A466FF0A6
:101F9000010007F04AFDC5E045F0400023464FF040
:101FA00000026060A80736D43EE0E8077FF447AF40
:101FB0002068011D21600068290501D506701BE716
:101FC000290701D5068017E7A90703D5F117C0E94E
:101FD000006111E706600FE745F0400023464FF02F
:101FE00008026060A80716D41EE040F60E0125EA3C
:101FF0000100606016E045F0400023464FF00A0201
:102000006060A80707D40FE045F040006060A807B3
:1020100008D5234610220D996FF00100AFF3008020
:1020200080E007E0102223460D996FF00100FEF7D3
:1020300025FC77E04FF0000963284F46C8464B4621
:10204000CB4602D05B2806D038E0E80601D4012058
:10205000A060012732E06269D4F80CB00B9801212E
:1020600090475E2807D14FF0010949466269D4F8CC
:102070000CB00B989047216939B900210A4603AB8F
:1020800043F82120491C0829FADBD8B3216949B358
:1020900008F1010862690B98012190475D28F4D18D
:1020A000B9F1000F09D0002003A951F82020D24334
:1020B00041F82020401C0828F7DB03AB20690028EA
:1020C00020794FEA40701ED05B462246CDF8008052
:1020D000CDE901970D9900286FF0010020DAAFF3E8
:1020E00000801FE0C11703AA00EBD1614B1121F062
:1020F0001F0102EB8302411A136801208840034349
:102100001360C7E719E00D99224600286FF001001F
:10211000009702DAAFF3008004E0AFF3008001E043
:10212000AFF3008000280ADA401C06D10C9820B1D9
:102130004FF0FF300FB0BDE8F08F5046FAE7E907E7
:1021400001D10AF1010A064400200C9054E6000077
:10215000CCCCCC0C2DE9F047814616468AB03548E8
:1021600078440DC88DE80D0032487844801C03ACDB
:102170000DC884E80D0041F69B300844372190FBE0
:10218000F1F290FBF1F5A5F1800501FB12041B3C77
:1021900002D56442012000E00020DFF898A08046CC
:1021A0000027FA44AAF1BE0A0EE0E0070AD0324640
:1021B000684607EB470101230AEB810100F0A0FE0E
:1021C0008DE8070064107F1C002CEED1194F7F446E
:1021D000AE3F19E0E80715D007EB04100DF1180A1F
:1021E00090E80E008AE80E00C068F04201D198190C
:1021F00008903246012306A903A800F081FE03AB34
:1022000083E807006D10641C002DE3D14FF001033B
:1022100032466946B8F1000F03A802D000F046FE2E
:1022200001E000F06DFEC9E90001C9F808200AB01C
:10223000BDE8F087087A000070B516460C460546E2
:1022400000F048F8036893F80101012806D0FF2C3C
:102250000FD8185D68B101202C7070BDD3F807014C
:102260003246214603F2071303442846BDE8704076
:1022700018474FF0FF3070BD10B500F0B7FABDE859
:10228000104000F0AEBA70477546FFF77BF9AE46D6
:1022900005006946534620F00700854618B020B572
:1022A000FEF7C6F8BDE820404FF000064FF00007EB
:1022B0004FF000084FF0000B21F00701AC46ACE8EE
:1022C000C009ACE8C009ACE8C009ACE8C0098D465B
:1022D0007047000010B5FFF759F9001D10BD00BF91
:1022E0005972000010B5FFF755F9006810BD10B520
:1022F0000446FFF74FF9046010BD00002DE9F041DE
:102300001F46044603260168072A01F4006004DB27
:1023100008B116A505E016A503E008B115A500E073
:1023200015A521F010002060A069C01EA0610FB1AA
:10233000401EA0612046FEF759FC4FB1D4E90121AF
:1023400038469047206A401C2062C01C206206E08C
:10235000206AFAE7D4E9012115F8010B9047761EAF
:10236000F8D22046FEF758FCBDE8F0814E414E0001
:102370006E616E00494E4600696E66002DE9FF4FA2
:102380001F464FF03C0987B04FF00042DDE91410C2
:1023900001F10108DDF858A002EA40500390002046
:1023A00005908346054604460490B969461E089880
:1023B0008847AAF1010A0290BAF1000F3BDD0298AA
:1023C0002E2815D01021FEF71DFE00282EDB4FF021
:1023D000010B0599014317D0B9F1000F0BDB4A46F9
:1023E000C11700F071FA05430C43A9F1040905E097
:1023F000012004900BE008B145F001050120059093
:10240000049820B9361D02E0049800B1361FB9695E
:10241000089808F101088847BBF1000FAAF1010AEA
:102420000290C9D00999C1F80080C5E702987028C8
:1024300008D0502806D0F96908988847BBF1000FEA
:1024400014D04FE0002002900120BBF1000F049057
:1024500009D0B969089808F101088847AAF101096B
:10246000B9F1000F07DCF969089888476FF001009F
:102470000BB0BDE8F08F2B2804D02D280CD14FF0E5
:10248000FF300490B969089808F101088847A9F15C
:102490000109B9F1000FE6DD411CE4D00A21FEF785
:1024A000B1FD0028DFDB029908F1010801EB810191
:1024B00000EB41000290B969089888470A21FEF7AD
:1024C000A1FD099AA9F10109B9F1000FC2F8008034
:1024D00001DD0028E7DAF96908988847049902982D
:1024E00000FB016655EA040004D004F040410900F5
:1024F00002D006E0039898E0A40044EA9574AD0089
:10250000B61E04F00041080002D16D196441761E28
:10251000159810F0240F03D04FF00B095C4803E02E
:102520004FF028096FF07D008246564507DAAAEB86
:1025300006018944B9F1410F01DD4FF04109012045
:102540000021A9F1010200F0BFF9024628400B4624
:102550002140084301D0012100E00021501E0291DA
:1025600043F1FF3128402140084301D0012000E021
:1025700000200299834651EA0B014FD00021084602
:102580004FF00000039900F4400039B100EB8000E7
:102590004FF4400100EBD07001EA60008015012883
:1025A00002DD4FF0FF3000E013D0401C36D002981F
:1025B00060B3BBF1000F0CD14A460120002100F0AE
:1025C00083F928402140084301D0012000E0002089
:1025D000E0B101204A46002100F076F90346401997
:1025E0000A4661412D1A8C4111D3B9F1400F09DD22
:1025F000159810F0240F02D0AAF1340603E0AAF1D6
:10260000170600E0761C00254FF0004406E05B1E34
:1026100042F1FF3220EA030521EA0204CAF1010077
:10262000B04206DA1B49039808430190002000904D
:102630000EE0039AC4F3D321E80A0A43164940EA9C
:1026400044500A433146CDE90002684605F091F84E
:10265000159810F0240F0BD01598C00715D13868C5
:10266000DDE90012031D3B600068C0E900120CE0C8
:1026700002A8694605F074F81598C00705D13868B6
:10268000029A011D3960006802604046F0E60000D1
:1026900002FCFFFF0000F07F0000F03F2DE9FF4F3C
:1026A00092461D4685B04FF00041DDE9124BDDE951
:1026B00014727F1E01EA4B50414940F0FF4940EA45
:1026C0000108002122F020004928049102D04E2860
:1026D00028D04CE03BA0012607C88DE80700A96977
:1026E0000698641C88477F1E014606D41DF8060024
:1026F00018B121F0200181420BD0E9690698884782
:10270000032E34D0082E32D06FF0010009B0BDE89E
:10271000F08F761C032E01D0082EE0D1601CCAF881
:102720000000DCE7A9690698641C88477F1E2AD44C
:1027300020F02000412826D1A9690698641C88470A
:102740007F1E20D420F020004E281CD1A9690698B5
:10275000641C88477F1E48F4002849F48009CAF8A1
:10276000004001D4282806D0E969069888475FEA26
:10277000CB7012D022E0A9690698641C88477F1E9E
:1027800001D4002803DAE96906988847BCE72928BC
:10279000F1D1641CCAF80040E9E71BF0240F07D010
:1027A00028680499031D2B600068C0E9001805E043
:1027B0002868021D2A600068C0F800902046A5E73E
:1027C0000000F07F494E46494E4954590000000030
:1027D00010B50446AFF300802046BDE81040FDF779
:1027E00098BD002801D000F069B8704710B50128E5
:1027F00005D0002103A000F07AF8012010BD09A146
:10280000F8E7000053494752544D454D3A204F7563
:1028100074206F662068656170206D656D6F7279D8
:10282000000000003A2048656170206D656D6F7290
:102830007920636F72727570746564004FF0013CAB
:1028400050F8042B51F8043B9A4221D1A2EB0C031F
:10285000934313EACC1317D150F8042B51F8043BDF
:102860009A4215D1A2EB0C03934313EACC130BD17C
:1028700050F8042B51F8043B9A4209D1A2EB0C0307
:10288000934313EACC13DBD04FF00000704700BF36
:10289000D01A01BAB1FA81F101F0180122FA01F05F
:1028A000CB40C1F12001DBB2C0B2C01A2CFA01F357
:1028B000D11A914311EAC311E6D17047014918209A
:1028C000ABBEFEE726000200B2F120030AD5C2F13A
:1028D000200301FA02F120FA03F300FA02F041EAC0
:1028E0000301704700FA03F14FF00000704770B524
:1028F00005460C460A2000E06D1C00F011F835B1C9
:1029000028780028F8D102E0641C00F009F814B11E
:1029100020780028F8D1BDE870400A20AFF300808D
:1029200008B569468DF800000320ABBE08BD5FEA1C
:10293000400C08BF91F0000F4FEA8C234FEAC122F0
:1029400043EA51514FEA1C5018BF00F5F0404FEADE
:10295000300018BF41F000415FEA6C5C00F0298054
:10296000BCF1FF3F08BF40F080407047130C06BF2A
:1029700012044FF0100C4FF0000C130E04BF1202A3
:102980000CF1080C130F04BF12010CF1040C930F8F
:1029900004BF92000CF1020CD30F04BF52000CF1E3
:1029A000010C11464FF00002A0F11F00A0EB0C003B
:1029B000704711F0004F08BF704731F000413FF4FD
:1029C000D5AF0B0C06BF09044FF0100C4FF0000CF4
:1029D0000B0E04BF09020CF1080C0B0F04BF090118
:1029E0000CF1040C8B0F04BF89000CF1020CCB0F0F
:1029F00004BF49000CF1010CCCF12003A0EB0C004A
:102A000022FA03F302FA0CF241EA030100F1010099
:102A1000704720F07F4C80EA030023F07F47ACEB47
:102A2000070303F57C5300F0004003F1FF032DE999
:102A300080494FEA154B09B44FEA144325EA0B4E7F
:102A400024EA03480FF2042606EB132749083E78D0
:102A50005FEA320203FB0667C7F5000707FB06F6CD
:102A60004FEA54374FEAD64606F1020607FB066CDA
:102A7000CCF1005C4FEA1C472CEA074C07FB06F43C
:102A80000CFB06F504EB15464FEA961634BF002002
:102A90004FF000404FEAD13706FB07FC4FEA1C4CD1
:102AA0000CFB0BF7D21B03FB0CF761EB07010CFBD4
:102AB0000EF7B0EB074072EB17420CFB08F734BF80
:102AC000A2EB0742B2EB074261EB17414FEA0C441D
:102AD0004FEA910706FB07FC4FEA1C4C0CFB0BF777
:102AE000B0EBC74072EB573203FB0CF734BFA2EBDD
:102AF000C742B2EBC74261EB57310CFB0EF7B0EBAC
:102B0000C70072EB57720CFB08F734BFA2EBC70289
:102B1000B2EBC70261EB5771039F4FEA816141EA53
:102B2000921104EBCC044FEAD1374FEA826206FBE4
:102B300007FC42EA90124FEA80604FEA1C4C0CFB03
:102B40000BF7D21B03FB0CF761EB07010CFB0EF735
:102B5000B0EB074072EB17420CFB08F734BFA2EB57
:102B60000742B2EB074261EB17414FEA8C554FEA3F
:102B7000910704EB9C2406FB07FC4FEA1C4C0CFB62
:102B80000BF7B0EBC74072EB573203FB0CF734BFC7
:102B9000A2EBC742B2EBC74261EB57310CFB0EF719
:102BA000B0EBC70072EB57720CFB08F734BFA2EB17
:102BB000C702B2EBC70261EB577115EB4C254FEA28
:102BC000816141EA92114FEA82624FEAD13742EACB
:102BD000901206FB07FC44F100044FEA80604FEAC4
:102BE0001C4C0CFB0BF7D21B03FB0CF761EB070132
:102BF0000CFB0EF7B0EB074072EB17420CFB08F72B
:102C000034BFA2EB0742B2EB074261EB174115EB71
:102C10001C154FEA813141EA92414FEA823242EA81
:102C200090424FEA80304FEA0C7644F1000448EAC3
:102C300003434EEA0B484FF0000EB2EB080C71EB69
:102C4000030724BF624639464EEB0E0E4FF0000BD1
:102C50000018524149414BEB0B0BB2EB080C71EBE6
:102C600003077BF1000B24BF624639464EEB0E0E84
:102C70004FF0000B0018524149414BEB0B0BB2EBEC
:102C8000080C71EB03077BF1000B24BF6246394649
:102C90004EEB0E0E51EA020718BF46F0010616EB86
:102CA0000E7655F1000254F1000103D5BDE889010B
:102CB000BDE80088BDE88901BDE80048B619524169
:102CC00041EB0101A3F10103704780807F7E7D7C91
:102CD0007B7A7978777676757473727171706F6EAE
:102CE0006E6D6C6C6B6A6A69686867666665646459
:102CF000636362616160605F5F5E5E5D5D5C5C5BE3
:102D00005B5A5A5959585857575656555555545451
:102D1000535352525251515050504F4F4F4E4E4DAF
:102D20004D4D4C4C4C4B4B4B4A4A4A4949494848FB
:102D3000484747474746464645454544444444433B
:102D400043434342424242414141000046EA064673
:102D5000A3F570534FEA164646EA42564FEAD2228E
:102D600042EA415210B54FEAD121A3F1010300F02C
:102D70002FF820F0004000F1020C00F0004701EBBA
:102D800000501146BCF5006F40EA070000D210BDAC
:102D9000BAF1000F0AD01CB503B44FF004004FF095
:102DA00004014FF000000FBCBDE810404FF00001DF
:102DB000BBF1010FB9BF04484FF0FF3103480021B8
:102DC00040EA070010BD00BFFFFFEF7F0000F07F6B
:102DD000002B9C4630D477002BD01CB54FEA370728
:102DE00003B44FF010004FF01001BAF1000F06D0FD
:102DF000BCF1000FDCBF40F0080040F008014FF0CC
:102E000000000FBCBDE810400BF1010BBBF1010F3E
:102E100008BF5FEA170722BF12F1010211F1010199
:102E20004FF0004143F1000300F0004043EA00008E
:102E30007047F9D35708D0E746EA064613F1400F2A
:102E40004FEA16461FDD13F1200FDFBF16430A4677
:102E5000002120335B42BED0C3F1200746EA06467C
:102E600002FA07F74FEA164646EA0706C3F12007BB
:102E700022FA03F201FA07F721FA03F14FF00003F7
:102E800042EA0702A7E746EA020646EA06464FEA92
:102E9000164646EA0106BCBF46EA0646360C4FF027
:102EA00000034FF000024FF0000194E72DE9804C41
:102EB0009A46934670B491E8380007C831EA400C4E
:102EC00048BF34EA430C03D5FFF7A3FDFFF780FFAB
:102ED000F0BCBDE8008C2DE9804C9A46934670B456
:102EE00091E8380007C831EA400C48BF34EA430C87
:102EF00003D5FFF78EFDFFF729FFF0BCBDE8008C7E
:102F00002DE9804C9A46934670B491E8380007C882
:102F100010F0804F08BF13F0804F03D100F01AF873
:102F2000FFF756FFF0BCBDE8008C2DE9804C9A46B7
:102F3000934670B491E8380007C810F0804F08BF7E
:102F400013F0804F03D100F005F8FFF7FFFEF0BC4F
:102F5000BDE8008C20F07F4780EA030023F07F4C1F
:102F600007EB0C03A3F57C5300F00040A3F1FE0334
:102F700092F0000F00F0B38095F0000F00F0778022
:102F80002DE901494FEA11404FEA144621EA004871
:102F900000FB06FC24EA064708FB06F607FB08F8D8
:102FA00000FB07F718EB06484CEB164C4FEA124BA8
:102FB00018EB07484FEA15464CEB174022EA0B4E38
:102FC0000BFB06FC25EA06470EFB06F607FB0EFE8A
:102FD0000BFB07F71EEB064E4CEB164C4FF00006B2
:102FE0001EEB074E4CEB174B18EB0B0840F10000A3
:102FF00018EB0E0B58EB000840F100008F1A4FF051
:1030000000013CBFC943661B14BFB5EB040C002193
:103010003CBFC943F61B4FEA17444EEA8E0E27EA1F
:1030200004454FEA1C4704FB07622CEA074C05FBEA
:1030300007F70CFB05F604FB0CFC16EB074642EB0E
:10304000174216EB0C4642EB1C421BEB060658EBF4
:103050000202414146EA9E0601D5BDE80189B61942
:10306000524141EB0101A3F10103BDE801894FEA9F
:1030700014454FEA114724EA054621EA074C05FBAF
:1030800007F406FB07F70CFB06F105FB0CFC11EB44
:10309000074144EB17444FEA124711EB0C4144EB54
:1030A0001C4422EA074C05FB07F206FB07F70CFB62
:1030B00006F605FB0CFC16EB074642EB174216EB37
:1030C0000C4642EB1C456A1854F1000148BF70479A
:1030D000B619524141EB0101A3F10103704795F08C
:1030E000000F37D04FEA11424FEA144721EA024657
:1030F00024EA074C02FB07F106FB07F70CFB06F47A
:1031000002FB0CFC14EB074441EB17414FEA154757
:1031100014EB0C4441EB1C4125EA074C02FB07F57C
:1031200006FB07F70CFB06F602FB0CFC16EB07464A
:1031300045EB174516EB0C4645EB1C42121951F1B5
:10314000000148BF7047B619524141EB0101A3F19C
:10315000010370474FEA14454FEA114724EA054638
:1031600021EA074C05FB07F106FB07F70CFB06F20B
:103170004FF0000605FB0CFC12EB074241EB174138
:1031800012EB0C4251EB1C4148BF7047921841EBC7
:103190000101A3F1010370471FB50B460446014628
:1031A00022221846FDF72EFC0748011F0A1F131F95
:1031B000CDE90032CDE902101B1F0C3A03A12046D5
:1031C000FDF73EFB1FBD00003C050020423A256490
:1031D000202C202564202C2566202C2566202C25DB
:1031E00064202C2564200A0010B5014630220748CF
:1031F000FDF708FC0A2005490346312281F830001A
:10320000BDE81040A1F5F57002F0FCB8C60400203E
:10321000FEE70000014800F046BA000070050020FB
:10322000014800F040BA00009805002038B50F4C66
:1032300040F2FF1525600025A560E56008252561A1
:103240000B4C050A25706070080AA070E170100A26
:1032500020716271180AA0710449E3716B4622461D
:10326000A1F5D07000F0C0F838BD000010070020B4
:103270000C000020002070470020704710B500228D
:103280000449054802F0CEFE0449034802F0C4FE9A
:10329000002010BD543B0020B830002054330020E3
:1032A00010B50146034802F0B7FE024802F098FE4E
:1032B000002010BDB83000200A46094910B5D1F8E9
:1032C0009012D1F8141209B1012010BD0146044832
:1032D00002F0A8FEBDE81040014802F001BF000066
:1032E000B830002030B5154C23685D6945F04005C5
:1032F0005D612368DC6844F01004DC600F4C4034EE
:1033000023681D6825F001051D6023681D68ED0711
:10331000F7D125680A4BAB602368D860206801614B
:10332000206842602068016841F4802101602068C3
:10333000016841F00101016030BD0000DC020020A5
:103340000410014001681823CAB2103AB2FBF3F22C
:10335000054B6FF30901032A9B5CC36500D9091D66
:103360008165084670470000669A000810B501465E
:1033700000208B698A6A4FF0C07453B1B3F5005FC7
:1033800015D072B1012A0CD0022A0AD0032A09D121
:1033900004E01AB1012A06D0022A03D1C96AC90180
:1033A00000D5012010BDC96AA142FAD010BD002A83
:1033B000F7D0012AF2D0022AF3D0032AF3D010BDAD
:1033C0007047704790F82020012A07D0022A05D0C4
:1033D000416A41F4802141620120704700684269DE
:1033E0000A43426100207047F0B590F8205004680D
:1033F000A468012D05D0022D03D0416A41F480213B
:1034000053E014F0406F01D1E5004BD5C4F30164E3
:10341000022C03D9416A41F4000146E00125A54090
:103420001D608B684FF4C0759BB1CE6833434E6806
:1034300043EAC603066805EB0417F3514FF4C27361
:10344000076803EB04130E69FE50097D012905D0BE
:1034500009E00E88CB6843EA4653EBE70168CE5893
:1034600046F48076CE501179D2F805304FF4C67606
:1034700041EA0323016806EB04168B511178D2F858
:1034800001204FF4C47341EA0221026803EB0413E4
:10349000D150006805EB0411425842F0010242503D
:1034A0000020F0BD416A41F4001141620120F0BDED
:1034B00010B590F82020012A07D0022A05D0416AD1
:1034C00041F480214162012010BD3B48D0F8002228
:1034D00042F00102C0F80022D0F8002222F47C520F
:1034E000C0F80022D0F800224B6A42EA0322C0F85A
:1034F00000220A7D02F01F0301229A40D0F81C32FC
:103500009343C0F81C32CB69B3B9D0F80C32934363
:10351000C0F80C328C894B6864F31F434C6900EB94
:10352000C404C4F840320C890B6864F31F434C692F
:1035300000EBC404C4F84432CB69012B16D1D0F897
:103540000C321343C0F80C320C884B6864F31F43F1
:103550004C6900EBC404C4F840320C89CB6864F3B6
:103560001F434C6900EBC404C4F844328B69002B40
:10357000D0F804320ED01343C0F804320B69002B8C
:10358000D0F8143208D01343C0F81432096A012964
:1035900004D008E09343EFE79343F5E7D0F81C121B
:1035A0001143C0F81C12D0F8001221F00101C0F83C
:1035B0000012002010BD000000640040704730B5CC
:1035C00090F82040012C05D0022C03D0416A41F430
:1035D00080215DE00468002955D02469A40754D0F7
:1035E0004FF4D874056804EB01142D5915F0040547
:1035F000956005682D594ED0ED08556005682C5929
:10360000C4F34004D4604FF4DA74056804EB011489
:103610002D5905F00F05156105682D59C5F30725CE
:10362000956105682C59240C54614FF4DC720468D0
:1036300002EB0112A4581C700468A458240A5C70A0
:103640000468A458240C9C700468A258120EDA7006
:103650004FF4DE72046802EB0112A4581C71046876
:10366000A458240A5C710468A458240C9C71046852
:10367000A258120EDA71006881B1016941F020018F
:103680000161002030BDE468A8E7416A41F40011FF
:103690004162012030BD6D0D1560AFE7C16841F09A
:1036A0002001C160EDE72DE9F05F054600680024C8
:1036B0004669D0F804908768D0F80CB0D0F810A014
:1036C000D0F81880F10748D0F90714D001218160A3
:1036D000B80703D5284600F03CFA0CE0780702D57D
:1036E0004FF4006407E0380702D54FF4805402E03D
:1036F000284600F02DFAF80516D529684FF4807099
:103700008860B80503D5284600F025FA0CE0780556
:1037100002D544F4005407E0380502D544F480444F
:1037200002E0284600F016FAF80316D529684FF48F
:1037300080308860B80303D5284600F00EFA0CE00C
:10374000780302D544F4004407E0380302D544F47A
:10375000803402E0284600F0FFF9300707D55FEA21
:10376000CB6004D52968102044F40074C860700749
:103770004FF0080707D55FEA0B7004D52868C760CB
:10378000284600F097F9B00706D52868C06880077A
:1037900002D0284600F090F9700607D55FEACA60AB
:1037A00004D52968102044F480640861B00607D568
:1037B0005FEA0A7004D528680761284600F09AF984
:1037C000F00606D528680069800702D0284600F078
:1037D00092F9B00308D55FEAC96005D529681020C1
:1037E0004860284600F088F9F00307D55FEA0970C1
:1037F00004D528684760284600F0B0F9300446D563
:103800005FEA497040D5F00504D55FEAC87001D081
:1038100044F00104B00504D55FEA887001D544F096
:103820000204700504D55FEA487001D544F0040431
:10383000300529D518F0700F26D008F07000402808
:1038400015D006DC102809D020280AD0302816D13F
:103850000AE050280ED0602811D10EE044F0080490
:103860000DE044F010040AE044F0200407E044F0C6
:10387000400404E044F0800401E044F480742868CB
:10388000816921F070018161296804204860002C61
:1038900005D0686A204368622846FFF78FFEBDE8BE
:1038A000F09F70B5040003D094F8200010B104E03C
:1038B000012070BD204600F081F82068016821F0E9
:1038C0000201016000F0B4FA0546052604E000F0AC
:1038D000AFFA401B0A2811D8206840688007F6D448
:1038E0002068016841F00101016000F0A1FA05467D
:1038F0000BE000F09DFA401B0A2806D9606A40F4EC
:103900000030606284F82060D2E720684068C00719
:10391000EFD0207E0128206801683DD021F0800191
:103920000160607E01282068016838D021F04001E4
:103930000160A07E01282068016833D021F02001B9
:103940000160E07E0128206801682ED041F010015E
:103950000160207F01282068016829D021F008013A
:103960000160607F01282068016824D021F00401F3
:103970000160D4E902010843D4E904121143084369
:103980006168491E08432168C86100206062012007
:1039900084F82000002070BD41F08001C0E741F0B4
:1039A0004001C5E741F02001CAE721F01001CFE74F
:1039B00041F00801D4E741F00401D9E7F0B587B040
:1039C000044614216846FDF794F83549354ADFF876
:1039D000CCE04868D4F800C0324B03240225092605
:1039E00010320027401CF44521D14860012807D13E
:1039F000106840F000701060106800F000700590D2
:103A0000186840F00800186018688DE8B00000F0F1
:103A10000800CDE9046069460394234800F01CF9CE
:103A200000220621142000F071FA142031E0DFF8A2
:103A30007CE0F4452FD1D2F800C04CF0806CC2F885
:103A400000C0D2F800C001280CF0806CCDF814C082
:103A5000486007D1106840F000701060106800F0F6
:103A600000700590186840F00200186018686946F8
:103A700000F00200059060208DE8A100CDE903462A
:103A80000B4800F0E9F800220621402000F03EFA41
:103A9000402000F02DFA07B0F0BD000000640040A7
:103AA0000400002030380240000C02400068004052
:103AB000000402407047000000B589B007AB6A46B9
:103AC0000021FFF77CFD0098A0F2012007280AD80A
:103AD0000649C0B20870064900EB400001EB001037
:103AE00007A904F055F809B000BD0000040000204B
:103AF000C005002070477047704770B5044690F8C5
:103B00002000012804D0606A40F40020606217E0C1
:103B1000022084F820002068016821F00101016082
:103B200000F086F905460DE000F082F9401B0A28F6
:103B300008D9606A40F400306062052084F82000F3
:103B4000012070BD20684068C007EDD1606270BD83
:103B50007047704770477047704770477047000064
:103B60002DE9F041044600F063F905465CB10026FA
:103B700084F83460022084F835002068016821F060
:103B8000010101600DE00120BDE8F08100F050F975
:103B9000401B052805D920206065032084F83500E6
:103BA000F2E720680068C007F0D121680A68204861
:103BB0000240D4E901031843D4E903352B431843E9
:103BC00063691843A3691843E3691843236A1843D8
:103BD0001043626A042A03D1D4E90B231A43104329
:103BE000086020684069656A20F0070128460D4397
:103BF000012704280CD1A06A0543E06A40B12046A1
:103C0000FFF7B4FB20B14020606584F83570BAE757
:103C1000206845612046FFF795FB94F85C203F2122
:103C200091408160666584F835700020ACE7000043
:103C30003F8010F070B5044600F0FAF80546601CAD
:103C400002D004480078044400F0F2F8401BA0427F
:103C5000FAD370BD1C0000202DE9F84FDFF88C91DD
:103C6000002209F1040A0AF1040B4FF00F080BF1CE
:103C7000040E01260B6896403340B34271D14C6864
:103C8000022C01D0122C11D1D40800EB84073D6A1C
:103C90005407E40E08FA04FC25EA0C05D1F810C01C
:103CA0000CFA04FC4CEA050CC7F820C00768540065
:103CB000032591F804C0A5400CF0030CAF430CFAA7
:103CC00004FC4CEA070CC0F800C04F68012F05D077
:103CD000022F03D0112F01D0122F11D18768D1F8F4
:103CE0000CC0AF430CFA04FC4CEA070CC0F808C047
:103CF0004768B7430E79C6F3001696403E434660C8
:103D0000C668AE438D68A5403543C5604C68E40085
:103D100065D5374C256845F480452560246822F038
:103D2000030504F480440094324C2E19D6F8087828
:103D30009407250F08FA05F4A7432F4CA04201D1A0
:103D4000002424E02D4CA04201D101241FE02C4C82
:103D5000A04201D102241AE02A4CA04202D103243D
:103D600015E03CE0284CA04201D104240FE0274C90
:103D7000A04201D105240AE0254CA04201D106242D
:103D800005E0244CA04201D1072400E00824AC4007
:103D90003C43C6F80848D9F800404D464E689C435D
:103DA000F60300D51C432C60DAF8004055464E68F7
:103DB0009C43B60300D51C432C60DBF800405D46F5
:103DC0004E689C43F60200D51C432C60DEF8004090
:103DD00075464E689C43B60200D51C432C60521CAD
:103DE000102AFFF446AFBDE8F88F0000003C014008
:103DF000443802400030014000000240000402400C
:103E000000080240000C0240001002400014024072
:103E100000180240001C0240426931EA020200D14F
:103E20000904816170470AB1816170470904FBE7A9
:103E300001488068704700001C000020024881682B
:103E400002781144816070471C0000200B4810B5B7
:103E5000016841F400710160016841F48061016012
:103E6000016841F480710160032000F06FF80020C8
:103E700000F006F800F024F8002010BD003C0240DD
:103E800070B50D4D04464FF47A712878B1FBF0F00F
:103E90000A490968B1FBF0F001F022F848B9102C8A
:103EA00007D200222146501E00F030F800206C603E
:103EB00070BD012070BD00001C0000202800002003
:103EC0000A4808B5016841F480410160006800F4C7
:103ED000804000900548001F016841F0805101605A
:103EE000006800F08050009008BD00004438024097
:103EF000002809DB00F01F020121914040098000E9
:103F000000F1E020C0F8001170470000F0B40E4B43
:103F10001B68C3F30223C3F10704042C00D9042453
:103F20001D1D072D01D2002300E0DB1E012606FA2D
:103F300004F56D1E0D409D409E40761E164045EADC
:103F40000601F0BC03F0F5BA0CED00E0064A00F003
:103F5000070110684FF6FF03184040EA01200349AB
:103F600008431060704700000CED00E00000FA0507
:103F700070470068416200207047F0B50368586AD6
:103F800039B19C6A4FF4827500EB144400204E1E38
:103F90000AE040EA024098620FE005EB8007DF5933
:103FA000401C04EB1744C0B2B042F6D344EA0240CE
:103FB0004FF4807202EB810158500020F0BDD0F820
:103FC000040402F0E0BAC1EBC10200EB8202D0F8B7
:103FD0000404926C02F033BAC1EBC10200EB82021E
:103FE000D0F80404D2F8082202F08CBAD0F8040405
:103FF00002F0CBBA70B504460B0601F00F00C0EB1F
:10400000C00104EB81014FF001024FF0000503D520
:1040100081F83D203C3103E081F8FD5101F5FE714E
:10402000087094F8BC03012808D084F8BC232068E9
:1040300002F020FE84F8BC53002070BD022070BD49
:1040400070B5044601F00F006268904201D901206A
:1040500070BD0B0601F00F01C1EBC10104EB810142
:104060004FF001024FF0000503D581F83D203C31AF
:1040700003E081F8FD5101F5FE718D70087094F830
:10408000BC03012808D084F8BC23206802F0CCFFD0
:1040900084F8BC53002070BD022070BD01F00F01F8
:1040A000C1EBC10100EB8100D0F8140270472DE98B
:1040B000F04104460F0601F00F00C0EBC00104EB15
:1040C00081014FF001064FF0000503D581F83D60F6
:1040D0003C3103E081F8FD5101F5FE7108708A6002
:1040E000CB704A7802B1C880022B00D10D7194F8D0
:1040F000BC03012809D084F8BC63206802F00CFDE1
:10410000284684F8BC53BDE8F0810220FBE770B577
:104110000D4601F00F04C4EBC40100EB8101C1F8AE
:104120001032C1F808220023C1F8143281F8FD31A1
:1041300081F8FC41036901F5FE71012B00D10A6190
:104140002A07027C006803D002F0C6FF002070BD81
:1041500002F0B2FEFAE770B504460D4601F00F001A
:104160006168884201D9012070BD29064FF0000620
:104170004FF0010207D5C0EBC00104EB810181F8CB
:104180003D203C3107E0C5EBC50104EB810181F81E
:10419000FD6101F5FE718A70087094F8BC03012876
:1041A00007D084F8BC23206802F06AFF280702D0F9
:1041B00007E0022070BD217C04F57172206802F0D6
:1041C00007FF84F8BC63002070BD70B50D4601F098
:1041D0000F04C4EBC40100EB81010B658A6400236A
:1041E0004B65012381F83D3001F83C4F0369012BF9
:1041F00000D10A612A07027C006803D002F06CFF3C
:10420000002070BD02F058FEFAE700002DE9F84FDB
:1042100005680446284603F086F800287ED1206809
:1042200003F0ADF8002879D0206803F0A8F88007E3
:1042300004D52068416901F002014161206803F062
:104240009EF8010304F5717000906CD5002620687B
:1042500003F074F880464FF4004ADFF8F0B35CE0F6
:104260005FEAC87056D0F1B2206803F080F80746C4
:10427000C00708D005EB46110120C1F8080B3146F4
:10428000204601F0E9F9380726D52068D0F840909B
:1042900000EB4610D0F8081B2269012A0FD0EC4B26
:1042A000994503D1090401D5C0F808AB204600F0B8
:1042B000BFFAD9450BD92069012803D007E0D945B9
:1042C000F0D8F3E720680121009A02F081FE05EBA7
:1042D00046110820C1F8080BF80604D505EB461175
:1042E0001020C1F8080BB8060CD52069012804D1AC
:1042F00020680121009A02F06BFE05EB4610202198
:10430000C0F8081BB80405D505EB46104FF4005162
:10431000C0F8081B4FEA5808761C01E093E102E060
:10432000B8F1000F9CD1206803F029F840034FF04A
:1043300000095FD5206802F0FAFF8046002656E0AB
:104340005FEAC87050D0F1B2206802F0FEFF074665
:10435000C00727D006F00F01012202FA01F0D5F8BC
:1043600034188143C5F8341805EB4610C0F8082905
:104370002069012807D1C6EBC60004EB8000D0E914
:10438000112111448164F1B22046FFF71CFE20691F
:10439000012807D136B9206D20B920680121009A83
:1043A00002F016FE380704D505EB46110820C1F8C7
:1043B0000809F80604D505EB46111020C1F80809D4
:1043C000780604D505EB46104021C0F80819B80757
:1043D00004D505EB46100221C0F80819380603D5AC
:1043E0003146204601F0A4F94FEA5808761CB8F18E
:1043F000000FA5D1206802F0C2FF002811DAD5F81D
:10440000040820F00101C5F8041894F8F403012809
:104410002BD0204600F0F0F92068416901F00041FE
:104420004161206802F0ABFF00050BD5D5F8080804
:10443000C00702D0204600F023FA2068416901F449
:1044400000614161206802F09AFFC00460D5D5F890
:10445000040820F00101C5F804181021206802F0BA
:1044600043FF00214FF67F3219E084F8F4930021D6
:104470002046FFF77DFDCFE705EB4110C0F8082986
:10448000D0F8003923F40013C0F80039C0F8082B25
:10449000D0F8003B23F40013C0F8003B491C6068CF
:1044A0008842E9D8D5F81C0840F00111C5F81C185D
:1044B000206B002828460DD0D0F8840840F00B016E
:1044C000C5F88418D5F8440840F00B012846C5F813
:1044D00044180DE0D0F8140842F22B010843C5F847
:1044E0001408D5F8100840F00B012846C5F810183C
:1044F000D0F8000820F4FE61C5F80018217C20687F
:10450000009A02F065FD2068416901F48051416123
:10451000206802F034FF800415D5206802F03CFBCF
:10452000206802F0F3FEE06000F0F8FA0146227B1A
:10453000206802F05FFF204600F048F920684169DA
:1045400001F400514161206802F019FFC00634D522
:104550002068816921F0100181612F6A07F00F0046
:10456000C0EBC00004EB8006C7F3434006F5FE76BF
:10457000022802D0062811D01AE047F6F070074250
:1045800016D0C7F30A1217462846F16802F0FBFE60
:10459000F0683844F060B069384408E008222846E2
:1045A000009902F0F0FEB069C7F30A110844B06147
:1045B0002068816941F010018161206802F0DFFE0E
:1045C000000707D5204600F01BF92068416901F07B
:1045D00008014161206802F0D2FEC00208D5002126
:1045E000204600F037F82068416901F480114161EC
:1045F000206802F0C4FE800208D50021204600F0A9
:104600002DF82068416901F400114161206802F031
:10461000B6FE400007D52046FFF7D1FC206841696F
:1046200001F080414161206802F0A9FE40070AD5EF
:1046300020684568680702D52046FFF7D7FC206848
:10464000416829434160BDE8F88F00000A30544FAB
:104650000A31544FD0F8040401F0E6BFD0F8040446
:1046600001F0E4BF2DE9F0418AB0040005D094F8D0
:10467000BD032668002520B108E001200AB0BDE88E
:10468000F08184F8BC53204600F05EF8032084F8E3
:10469000BD03F06BC00500D42561206802F006FC64
:1046A00004F11001282288466846FCF7F0F994E8E6
:1046B0000F0002F08BFA0227C8BB0021206802F02D
:1046C00071FE002101260EE0C1EBC10004EB800069
:1046D00080F83D6000F83C1FC180C5708560C560F2
:1046E000491CC9B2456160688842EDD8002111E0DB
:1046F000C1EBC10004EB800080F8FD5180F8FC1193
:1047000080F8FF51C0F80452C0F80852491CC9B2E1
:10471000C0F8105260688842EAD8282241466846AC
:10472000FCF7B5F994E80F0002F0FCFA10B184F838
:10473000BD73A2E784F8385084F8BD63206802F0A6
:10474000E5FA00209AE7000010B586B0044614216F
:104750006846FCF7CEF92068B0F1A04F2FD1194878
:104760000021026842F001020260006800F00100CE
:1047700005904FF4C05000900220CDE901010320C4
:1047800003900A20049069460F48FFF765FA0D4828
:10479000001D016841F0800101600A481430016881
:1047A00041F4804101600068002200F480400590DF
:1047B00005214320FFF7AAFB4320FFF799FB06B032
:1047C00010BD0000303802400000024070B50446C1
:1047D000C068012570B1022801D0FEF7F2FD29461C
:1047E000D4F8040401F073FFD4F80404BDE8704069
:1047F00001F033BF0025F2E7D0F8040401F055BF03
:10480000D0F8040401F057BF10B5044690F8BC037B
:1048100001280BD0012084F8BC0384F838102068EC
:1048200002F0D7FD002084F8BC0310BD022010BDAB
:10483000D0F8042400F57171104601F054BF10B592
:104840000446006894F8BC13012906D0012184F8BD
:10485000BC13A16A012902D008E0022010BDA169A1
:10486000012903D0816B41F480318163206802F01B
:1048700041FA206802F022FD002084F8BC0310BD3C
:1048800010B50446D0F8040401F06CFF2068D0F89D
:10489000001E41F00101C0F8001E206A002804D06B
:1048A0000248016841F00601016010BD10ED00E012
:1048B0002DE9F843044600684FF00109C1074FF0A5
:1048C000000501D1400726D5DFF80C81C8F86850F3
:1048D000FFF7AEFA0646414F04E0FFF7A9FA801B46
:1048E000022857D838680001F7D46068217A80011F
:1048F00040EA0170394984310860C8F86890FFF7D0
:1049000097FA064604E0FFF793FA801B022841D885
:1049100038680001F7D52078800752D52F484030FD
:10492000016841F08051016000682D4F00F0805017
:104930000090386840F480703860FFF779FA0646D6
:1049400004E0FFF775FA801B022823D83868C005F9
:10495000F7D5224E7036306810F4407020D0A1890F
:1049600001F4407181421BD030681E4920F4407030
:10497000C1F800900D6030603068C00710D0FFF7BC
:1049800057FA054641F2883707E0FFF751FA401B16
:10499000B84202D90320BDE8F88330688007F4D517
:1049A000E0680E49C0F301220831032A0BD00868E1
:1049B00020F4F81008603068A189C1F30B010843A6
:1049C00030600020E7E70A68074B22F4F81218402D
:1049D00002430A60EFE7000000004742003802404F
:1049E00000700040400E4742FFFCFF0F2DE9F047EA
:1049F0000D46040065D0DFF81491D9F80000EFB23D
:104A000000F00F00A84207D289F80070D9F8000022
:104A100000F00F00A84254D120683D4E810712D506
:104A2000400703D5306840F4E0503060207800073C
:104A300003D5306840F4604030603068A16820F0F1
:104A4000F000084330602078C0072DD030496068FE
:104A50000839012812D0022813D0032811D0096880
:104A6000890700292DDA316821F003010143316003
:104A7000FFF7DEF9804641F2883A0EE009688903C3
:104A8000EFE709688901ECE7FFF7D2F9A0EB08012D
:104A9000514502D90320BDE8F0873068616800F015
:104AA0000C00B0EB810FEFD1D9F80010484601F0AF
:104AB0000F01A94207D90770006800F00F00A84253
:104AC00001D00120E7E72078400705D53068E1688C
:104AD00020F4E050084330602078000706D53068A5
:104AE000216920F4604040EAC100306000F03CF8E9
:104AF0003168084AC1F30311515CC8400649086097
:104B00000020FFF7BDF90020C5E70000003C02408F
:104B1000083802406E9A000828000020014800680A
:104B20007047000028000020044805490068096813
:104B3000044AC1F38221515CC8407047280000201C
:104B4000083802407E9A0008044805490068096850
:104B5000044AC1F34231515CC8407047280000202C
:104B6000083802407E9A0008154810B5006810F019
:104B70000C01144813D0144B04290FD008290ED16E
:104B80000F4C241F216801F03F022168490207D51C
:104B90002068C0F38810A0FB030106E0184610BD92
:104BA0002168C1F38811A1FB00010023FBF7A8FCD9
:104BB0002168C1F30141491C4900B0FBF1F010BD6F
:104BC000083802400024F400001BB7002DE9F84F1C
:104BD000040073D02078BD4DC00748D0BB480830D2
:104BE0000168C1F38101012908D00068C0F3810088
:104BF00002280AD1281D0068400206D528688003D3
:104C000035D560680028E4D031E06068B0F5803FB9
:104C100010D0B0F5A02F286810D020F48030286084
:104C2000286820F4802028606068A0B1FFF700F9B0
:104C300006460CE0286840F48030F4E740F4802019
:104C40002860F7E7FFF7F4F8801B642872D828681B
:104C50008003F7D50BE0FFF7EBF8064604E0FFF71B
:104C6000E7F8801B6428F1D828688003F7D42078FF
:104C7000DFF85C9280074FF0000A3ED59348083079
:104C8000016811F00C0F09D00068C0F38100022800
:104C90000BD18E48001D0068400206D428688007AA
:104CA00015D5E068012809D111E0E068B8B101200C
:104CB000C9F80000FFF7BCF8064605E003E1FFF77E
:104CC000B7F8801B0228C1D828688007F7D5286864
:104CD000216920F0F80040EAC10028600DE0C9F821
:104CE00000A0FFF7A5F8064604E0FFF7A1F8801B37
:104CF00002281FD828688007F7D42078000722D51B
:104D0000724F74496069743770B101200860FFF711
:104D10008FF8064604E0FFF78BF8801B022809D8BD
:104D200038688007F7D50EE0C1F800A0FFF780F8DB
:104D3000064605E081E0FFF77BF8801B02287CD85F
:104D400038688007F7D42078400769D5DFF87CB150
:104D50004FF000080BF1400BDBF80000C0000CD452
:104D6000DBF8001041F08051CBF80010DBF80000B8
:104D70004FF0010800F080500090574F3868C00590
:104D80000FD4386840F480703860FFF751F8064659
:104D900004E0FFF74DF8801B02284ED83868C005A4
:104DA000F7D54A4FA068703701280FD0052838681A
:104DB00010D020F001003860386820F0040038601E
:104DC000A068B0B1FFF734F806460EE0386840F04E
:104DD0000100F4E740F004003860F7E7FFF728F837
:104DE000811B41F28830814265D838688007F5D54B
:104DF0000DE0FFF71DF8064606E0FFF719F8811BE6
:104E000041F28830814256D838688007F5D4B8F12D
:104E1000000F05D0DBF8001021F08051CBF8001016
:104E2000A069C8B3294908310968C1F38101022981
:104E300049D00228504607D000E03CE0C9F86000A5
:104E4000FEF7F6FF044639E04F46C9F86000FEF76A
:104E5000EFFF064604E0FEF7EBFF801B02282AD88E
:104E600028688001F7D4D4E907010843A16A1B4AE6
:104E7000490802EB0141626A41EA8211084394F851
:104E80002C1040EA01611148001D016001203866C4
:104E9000FEF7CEFF044605E013E0FEF7C9FF001B56
:104EA000022808D828688001F7D50AE0FEF7C0FF7D
:104EB000001B022802D90320BDE8F88F2868800172
:104EC000F4D40020F8E70120F6E7000000380240A3
:104ED00000004742800E4742007000400000FFFF84
:104EE00010B5401EB0F1807F01D3012010BD4FF0FE
:104EF000E02460610F21601702F01BFB0020A0611D
:104F000007202061002010BD70477047704770B5C2
:104F10000446006801694FF00005C943890715D4AC
:104F2000C168C943890711D4E91E016101202077B6
:104F3000206880698007204602D0FFF7E7FF04E081
:104F400000F098F8204600F096F82577206801696F
:104F5000C943490717D4C168C943490713D46FF03F
:104F600004010161022020772068806910F4407FED
:104F7000204602D0FFF7CAFF04E000F07BF820468D
:104F800000F079F8257720680169C943090716D42C
:104F9000C168C943090712D46FF0080101610420F8
:104FA00020772068C0698007204602D0FFF7AEFF57
:104FB00004E000F05FF8204600F05DF825772068F7
:104FC0000169C943C90617D4C168C943C90613D4C6
:104FD0006FF010010161082020772068C06910F48B
:104FE000407F204602D0FFF791FF04E000F042F836
:104FF000204600F040F8257720680169C943C907B9
:1050000008D1C168C943C90704D1891E016120467E
:1050100000F032F820680169C943090609D4C16863
:10502000C943090605D46FF0800101612046FFF7EE
:105030006BFF20680169C943490609D4C168C943A7
:10504000490605D46FF040010161204600F0ECF8FC
:1050500020680169C94389060BD4C168C943890620
:1050600007D46FF0200101612046BDE87040FFF7D2
:105070004CBF70BD7047704770B55E492DED028B17
:1050800088427CD15C4E7068401C7060B0F57A7FBD
:1050900001DB002070603079584CC00727D102F046
:1050A000D5FC02F083FC7061554904F5887002F06C
:1050B00031FDD4ED480A94ED460A524802F088FDCD
:1050C0005048D0ED0F0A5048C4ED490A94ED4A0A01
:1050D00002F07EFD4C4800231A4690ED120A194654
:1050E000BDEEC00A10EE100A00B2FEF79FF870681D
:1050F0000A2190FBF1F201FB1201F9B9B6F9001097
:1051000000EE101AB8EEC00ADFED400A404920EE6A
:10511000200AB1F9001000EE901AF8EEE00A9FEDB7
:105120003D1A00EE810ADFED3C0A20EE200ADFED99
:105130003B0A80EE201A84ED481A3180642590FBEA
:10514000F5F105FB1100002850D102F087FC344C2A
:105150000120A061FBF744F9C11700EB91516FF3F7
:105160000901401AE061FBF73BF9C11700EB9151CF
:105170006FF30901401AB7EE000A206200E035E043
:1051800084ED000AFBF72CF9C11700EB91516FF386
:105190000901401A00EE100A9FED228AB8EEC00AFB
:1051A00020EE080A84ED010AFBF71AF9C11700EB9B
:1051B00091516FF30901401A00EE100AB8EEC00ACF
:1051C00020EE080A84ED020A706890FBF5F105FBF9
:1051D0001101616290FBF5F105FB1100A062204610
:1051E000BDEC028BBDE87040FDF7FEBFBDEC028B4D
:1051F00070BD0000400700202C000020580800204F
:1052000080060020EC070020800700209A99193FB3
:10521000340A0020CDCCCC3E0000B443000025442D
:1052200040050020CDCCCC3D704770B5040004D0C3
:1052300094F83900002510B106E0012070BD84F813
:105240003850204600F022F8242084F839002068E5
:10525000C16821F40051C160204600F0A5FB206820
:10526000016921F4904101612068416921F02A011E
:1052700041612068C16841F40051C160E5632020AC
:1052800084F8390084F83A00002070BD2DE9F04F11
:1052900087B0054614216846FBF72BFCDFF840C1B8
:1052A000296800264F4802240123032707224FF0D4
:1052B000006A4FF4806B61453AD14A491031D1F808
:1052C00000C04CF4802CC1F800C0096801F48021B2
:1052D0000591016841F0040101600068029300F04B
:1052E00004000590B802CDE90004CDE903726946D7
:1052F0003D48FEF7B1FC3E4C3C482060C4E901A6A5
:10530000C4E9036B80156661C4E906603804C4E92A
:1053100008062046FEF724FC08B1FEF752F86C633D
:10532000002211462720A563FEF7F0FD272052E05A
:10533000DFF8C0C0614550D12A491431D1F800C00E
:105340004CF0100CC1F800C0096801F01001059183
:10535000016841F001010160016801F0010105915E
:10536000016841F0020101600068984600F0020007
:1053700005904FF400708DE81101CDE9037291465C
:1053800069461D48FEF768FC80208DE81101CDE9D3
:10539000037969461948FEF75FFC154C1848A0349C
:1053A0002060C4E901A6C4E9036B80156661C4E905
:1053B00006604FF44030C4E908062046FEF7D0FBF3
:1053C00008B1FDF7FEFF6C63002211462520A5639E
:1053D000FEF79CFD2520FEF78BFD07B0BDE8F08FA2
:1053E0000048004030380240000802402860024077
:1053F0007C02002000100140000002400004024036
:10540000406402402DE9F843044690F839001E46F6
:1054100017460D46202850D1A5B19FB194F8380009
:1054200001284AD0012084F838004FF00008C4F861
:105430003C80212084F83900FEF7FAFCA7848146DD
:10544000E78426E00120BDE8F883E08C401EE0847C
:10545000A0684B46B0F5805F4FF000024FF080012E
:105460002046009603D000F0F5FBE8B90DE000F00F
:10547000F1FBC8B928882168C0F30800486020699A
:1054800008B16D1C05E0AD1C03E0216815F8010BA7
:105490004860E08C0028D8D14B46002240212046AD
:1054A000009600F0D7FB08B10320CCE7202084F859
:1054B000390084F838800020C5E70220C3E7FEE702
:1054C000F0B500230A24302537261F4610E0B4EB40
:1054D000107F02D905EB107C01E006EB107C01F88F
:1054E00013C001EB430C00015B1C8CF80170DBB2B4
:1054F0009342ECD3F0BD0000114808B5016841F4B7
:1055000000110160016801F400110091016841F48B
:10551000800101600068002200F4800000901146C4
:105520000C20FEF7F3FC0C20FEF7E2FC00221146F3
:105530003A20FEF7EBFCBDE808403A20FEF7D8BC65
:105540003038024030B587B014216846FBF7D1FAF5
:105550001648016841F001010160016801F0010194
:105560000591016841F004010160016801F0040146
:105570000591016841F08001016000680C4D00F068
:1055800080004FF4E0540590012221462846FEF7A2
:105590004AFC01210220CDE90210CDE90041694613
:1055A0002846FEF759FB07B030BD000030380240F6
:1055B000001C02400D4810B50B4901600C494160C8
:1055C00000214FF480628160C0E903120422C0E927
:1055D0000521C161FFF729FE002803D0BDE8104076
:1055E000FDF7EFBE10BD0000004800403C02002067
:1055F000A086010010B500220F49104800F0F8FE07
:1056000008B1FDF7DEFE0E490C4801F0D1F808B1F3
:10561000FDF7D7FE0B49094800F0F6FC08B1FDF78D
:10562000D0FE064801F01AF9002803D0BDE810406A
:10563000FDF7C7BE10BD0000EC010020B83000200F
:10564000A4010020DC010020FEE770470148FEF7BE
:10565000DDBD0000544300202DE9F04105460068FF
:105660000E46016C00EB4614D4F8080B2B694FF47E
:1056700000424FF0200C012B07D02B4B99424CD10C
:10568000010446D5C4F8082B4BE0DFF8A0E003077F
:1056900005F5717711D5714503D9000401D5C4F81A
:1056A000082B2846FFF7C4F83A460121286801F084
:1056B0008FFC0820C4F8080B33E0830602D5C4F839
:1056C00008CB2EE010F0280F2BD1714501D9000432
:1056D000D8D4C6EBC60005EB8000D4F8102BD0F868
:1056E0000412C2F312028A1AC0F81422D0F8082257
:1056F0001144C0F80812F1B22846FEF76DFC86B9D5
:10570000D5F8100268B93A460121286801F060FC1A
:1057100007E0800601D5C4F808CBF1B22846FEF7B1
:105720005BFC0020BDE8F0810A31544F0A30544F31
:105730002DE9F84F0E46C1EBC60100EB810481460E
:10574000D0F80080D4E914103C34884202D90120FA
:10575000BDE8F88F081AA168814200D20846C01C33
:10576000870808EB461A15E0451AA068A84200D23F
:105770000546E81C870899F810000090ABB2F2B219
:105780004046E16801F0AAFEE0682844E060A069B4
:105790002844A061DAF8180980B2B84205D3D4E9E8
:1057A0000501814201D20028DED1D4E905018842F9
:1057B00008D806F00F0101208840D8F8341881433A
:1057C000C8F834180020C3E730B4034C4466034CD7
:1057D000846630BC02F0D4BA817D0008A17D000847
:1057E00030B5144C23685D6945F040055D61236860
:1057F000DC6844F01004DC600F4C23681D6825F061
:1058000001051D6023681D68ED07F7D125680B4B66
:10581000AB602368D860206801612068426020681E
:10582000016841F4802101602068016841F00101B4
:10583000016030BD3C0200207C0200200448004092
:105840000C4810B50A4901604FF4E1314160002174
:1058500081600C22C160C0E904128161C161FFF75F
:10586000E4FC002803D0BDE81040FDF7AABD10BD40
:1058700000100140DC02002010B5FFF7E1FF0449F1
:10588000BDE810406222A1F16200FDF72BBD0000CF
:10589000DE03002010B5FEF7D1FA03F081FC0128E9
:1058A00003D0BDE8104003F0EBB910BD30B597B0A0
:1058B00030216846FBF71DF914210CA8FBF719F9F4
:1058C00000241E481194129413941494016841F01A
:1058D00080510160006800F0805015901848016800
:1058E00041F4804101600068022500F48040159079
:1058F00001200090000401908001CDE906500620AF
:105900000890A820CDE9090507200B906846FFF70D
:105910005DF90F20CDE90C054FF4A050CDE90E4004
:10592000E802109005210CA8FFF760F805481490D4
:10593000119511A8FEF7BCFF17B030BD40380240EA
:105940000070004000031E001048016841F470011F
:1059500001600F48016841F0010101600C4A00211B
:105960000832116002680B4B1A400260031D0A4A9C
:105970001A60026822F48022026005480C3001603F
:1059800002495806803908607047000088ED00E041
:1059900000380240FFFFF6FE103000240148FFF7F8
:1059A000B6BA0000400700202DE9F0410446006827
:1059B0000169E26821F4405111430161A168206945
:1059C000E26901436069104301432068C26849F2FB
:1059D0000C639A430A43C26020684169A26921F4BA
:1059E000407111434161E0696425B0F5004F974A69
:1059F000974920684FF032083FD0884201D090424A
:105A00007CD1FFF7A1F800EBC00101EB0010616849
:105A10008900B0FBF1F6FFF797F800EBC00101EB4E
:105A2000001061688900B0FBF1F0B0FBF5F06FF099
:105A30001801484306EB800108EB0110B0FBF5F0BC
:105A400000F0F006FFF780F800EBC00101EB00105A
:105A500061688900B0FBF1F0B0FBF5F006EB0016D1
:105A6000FFF772F800EBC00101EB001061688900DC
:105A7000B0FBF1F7FFF768F8D2E0884201D090421E
:105A80003DD1FFF761F800EBC00101EB0010616848
:105A90004900B0FBF1F0B0FBF5F00601FFF754F858
:105AA00000EBC00101EB001061684900B0FBF1F7A9
:105AB000FFF74AF800EBC00101EB001061684900F4
:105AC000B0FBF1F0B0FBF5F06FF01801484307EBC5
:105AD000800108EBC100B0FBF5F000F0F80006EB28
