:020000040800F2
:100000009851002045030008D33A0008D33900086E
:10001000D13A000805210008014400080000000052
:100020000000000000000000000000005102000875
:100030004522000800000000AD020008413D000814
:100040005F0300085F0300085F0300085F03000808
:100050005F0300085F0300085F0300085F030008F8
:100060005F0300085F0300085F0300085F030008E8
:100070005F0300085F0300085F0300085F030008D8
:100080005F0300085F0300085F0300085F030008C8
:10009000092100085F0300085F0300085F030008F0
:1000A0005F0300085F0300085F0300085F030008A8
:1000B000493E00085F0300085F0300085F03000873
:1000C0005F0300085F0300085F0300085F03000888
:1000D0005F0300087D4200085F03000859430008E1
:1000E0005F0300085F0300085F0300085F03000868
:1000F0005F0300085F0300085F0300085F03000858
:100100005F0300085F0300085F0300085F03000847
:100110005F0300085F0300085F0300085F03000837
:100120005F0300085F0300085F0300085F03000827
:100130005F0300085F0300085F0300085F03000817
:10014000152100085F0300085F0300085F03000833
:100150005F0300085F0300085F0300085F030008F7
:100160005F0300085F0300085F0300085F030008E7
:100170005F0300085F0300085F0300080000000041
:100180005F0300085F03000800F002F800F051F878
:100190000AA090E8000C82448344AAF10107DA45E2
:1001A00001D100F046F8AFF2090EBAE80F0013F0E3
:1001B000010F18BFFB1A43F0010318470068000045
:1001C00020680000103A24BF78C878C1FAD85207D6
:1001D00024BF30C830C144BF04680C6070470000C1
:1001E0000023002400250026103A28BF78C1FBD840
:1001F000520728BF30C148BF0B607047642900F028
:100200008181002070471FB506F0F2FA00F08FFAE6
:1002100000F06EFE04000020002106F0E1F8401C12
:1002200060600020002106F0C5F8E0601FBD10B539
:1002300010BD01F09FF81146FFF7E5FF04F098FBB1
:1002400001F0FCFA03B4FFF7F2FF03BC01F054FB2A
:100250002C4B19680868B0E8F04F80F30988BFF3A9
:100260006F8F4FF0000080F311887047000000008E
:1002700008480068006880F308884FF0000080F3A9
:10028000148862B661B6BFF34F8FBFF36F8F00DF84
:1002900000BF00BF08ED00E0DFF80C00016841F48A
:1002A00070010160704700BF88ED00E0EFF3098046
:1002B000BFF36F8F134B1A681EF0100F08BF20EDAD
:1002C000108A20E9F04F106009B44FF0100080F35D
:1002D0001188BFF34F8FBFF36F8F05F041FB4FF0D5
:1002E000000080F3118809BC19680868B0E8F04F75
:1002F0001EF0100F08BFB0EC108A80F30988BFF31E
:100300006F8F704760000020EFF30580704700009A
:100310000B49D1F800C04A685CF8043B10681844E7
:1003200042F8040B8C4528BFA1F1DC0C8A4228BF9F
:10033000A1F1DC02C1F800C04A6020F00040704723
:100340002C2F00200948804709480047FEE7FEE7B8
:10035000FEE7FEE7FEE7FEE7FEE7FEE7FEE7FEE775
:1003600004480549054A064B70470000F53D000862
:1003700089010008982F0020985100209831002012
:100380009831002053EA020C00F069802DE9F04B0F
:100390004FF00006002B1FBFB3FA83F503FA05F4F4
:1003A00024FA05F65E4012BF1643B2FA82F502FA4D
:1003B00005F4C5F120051EBF22FA05FC44EA0C0431
:1003C000203556EA044C4FEA144418BF641C4FF021
:1003D00000084FF00009904271EB030C39D300295B
:1003E00019BFB1FA81F701FA07F6B0FA80F700FAFF
:1003F00007F6C7F120071EBF20FA07FC46EA0C06E5
:100400002037B6FBF4FCA7EB0507103F07F01F0BE6
:10041000CBF120060CFA0BFB2CFA06F644BFB346D0
:100420000026202FA4BF5E464FF0000B5BEA060CAF
:1004300008BF4FF0010B19EB0B09ABFB027C48EB3B
:100440000608C01B06FB02CC0BFB03CC71EB0C01B6
:10045000C1E70B46024641464846BDE8F08B13B55E
:100460004FF000004FF00001AFF30080BDE81C40EA
:10047000704700000FB41CB5074B06AA7B446946C1
:100480000090059800F029FA0020694600F038FA3B
:100490001CBC5DF814FB0000810400002DE9F04154
:1004A0000E460446002020622046E168884730B3AB
:1004B000252805D0D4E901219047206A401CF2E7A5
:1004C000E168204600278847050018D0A5F14100C3
:1004D000192802D820354FF40067324629462046B5
:1004E0002760FFF78BFE40B1012804D0F61D26F0EF
:1004F00007060836D8E7361DD6E72846DAE7206A29
:10050000BDE8F0812DE9F041064600241068752908
:10051000314616A510D0AFF30080002802DA404221
:1005200013A507E031688A0701D512A502E0490743
:1005300004D511A5012401E0AFF3008000210A22B7
:1005400006F1240709E0B0FBF2FCB0FBF2F302FB7A
:100550001C00303078541846491C0028F3D123463B
:100560002A463046BDE8F04100F059B900000000CD
:100570002D0000002B000000200000000FB400B58B
:100580008DB010A9099000910B904FF0FF300A90A8
:1005900000200C90064878440690064878446A4645
:1005A00007900F9909A800F041FC0DB05DF814FB0D
:1005B000B3080000CB0800002DE9FF5F1D464FF097
:1005C000FF3B91464FF000085F46D5E90146A96917
:1005D00001987F1C8847296A824688470028F6D1FF
:1005E000BAF1FF3F0CD0002E24F4C06419DD600680
:1005F00014D5BAF12B0F09D0BAF12D0F0ED103E0AB
:10060000584604B0BDE8F09F44F48064A96901989D
:100610007F1C8847761E8246002E02DDBAF1300F1D
:1006200003D0B9F1000F26D032E0A969761E0198F7
:100630007F1C44F400748847002E824605DDBAF121
:10064000780F06D0BAF1580F03D0B9F1000F10D0CF
:100650001EE0B9F1000F02D0B9F1100F18D1A9694D
:10066000761E01987F1C24F400748847824610206F
:1006700002E0082000E00A20814609E0A96908FBA1
:100680000908761E01987F1C44F40074884782464E
:10069000002E05DD4946504600F037F90028EDDA16
:1006A000E96901988847A00502D46FF00100A8E726
:1006B000E00725D1600613D5600502D5C8F100001A
:1006C00000E0404629680A1D2A600968220501D514
:1006D000087015E0220701D5088011E008600FE0DE
:1006E0002868011D29600068210502D580F8008076
:1006F00006E0210702D5A0F8008001E0C0F80080E4
:1007000038467EE70B4910B5A1F17C020A4CC2E9DC
:100710003712372106E000EB104342F82130074B37
:1007200000FB03400B1EA1F10101F4DC10BD012010
:10073000E8E70000CC2E0020E119D666CD0D0100BF
:10074000032A40F2308010F0030C00F0158011F8FD
:10075000013BBCF1020F624498BF11F801CB00F8D5
:10076000013B38BF11F8013BA2F1040298BF00F829
:1007700001CB38BF00F8013B11F0030300F0868382
:10078000083AC0F0088051F8043B083A51F804CB0D
:10079000A0E80810F5E7121D5CBF51F8043B40F8D3
:1007A000043BAFF30080D20724BF11F8013B11F8DE
:1007B00001CB48BF11F8012B24BF00F8013B00F822
:1007C00001CB48BF00F8012B70474FF0000200B585
:1007D000134694469646203922BFA0E80C50A0E864
:1007E0000C50B1F12001BFF4F7AF090728BFA0E812
:1007F0000C5048BF0CC05DF804EB890028BF40F8DE
:10080000042B08BF704748BF20F8022B11F0804F1F
:1008100018BF00F8012B70477047704770472DE9EB
:10082000F0470D4699469246044600F124080168B7
:10083000880604D5E06921F01001216000E0012064
:10084000A84201DD471B00E00027A1697A1902EBED
:100850000900081AA0612078C00602D42046AFF330
:100860000080002608E0D4E901211AF8060090472C
:10087000206A401C761C20624E45F4DB2078C006BE
:100880000AD52046AFF3008006E0D4E901213020EC
:100890009047206A401C2062381EA7F10107F4DC53
:1008A00007E0D4E9012118F805009047206A401CB0
:1008B0002062281EA5F10105F3DC2046AFF300807D
:1008C0002078000602D50220BDE8F0870120FBE772
:1008D00001694A1C02610878704700B58FB0CDE904
:1008E00001310021059105497944CDE903101146F4
:1008F0006846FFF7D3FD0FB000BD0000E5FFFFFF26
:100900000A6802F8010B0A6070473A2800D23038B2
:1009100020F02002412A01D3A2F13700884201D3FE
:100920004FF0FF30704700002DE9FF4F06468BB0B7
:100930000878FF2806D0491C2D2805D000244FF048
:10094000000908E000200CE00124F8E709EB890326
:10095000491C00EB43090878FF28F7D114B1C9F10D
:1009600000008146107800252C46AA4629462D28ED
:1009700001D02B2804D1521C2D2813D000208246F0
:100980008B461078FF280FD04FF0000C0A21521C24
:10099000A5FB017804FB018105FB0C11C5194BEB8C
:1009A0000104EEE70120EAE7002108464FF00000CD
:1009B000BAF1000F02D000EB80004008C0F381576D
:1009C000012F01DD4FF0FF370E9955EA040009EBC6
:1009D00001080BD04FF0020918F5FA7F16DA4FEA3A
:1009E000CA70002F706008DD012007E04FEACA706E
:1009F000C6E900B00FB0BDE8F08F0020306000F015
:100A00007BFAC0F800901821084616E0B8F5FA7F86
:100A100018DD002F02DAF748784401E0F648784400
:100A2000D0E90010C6E9001040EACA70706000F01A
:100A300063FAC0F80090142108460FB0BDE8F04FEB
:100A400005F0E0BE002108464FF00000B8F10001BB
:100A5000099002DAC7F1000200E03A4601DAC8F173
:100A6000000106A800F010FC06AB93E8070003ABFA
:100A700083E8070044F23E005BEA04010090584618
:100A800004D144F21E012C465D460091210C09045C
:100A9000014306D10099240444EA15442D04103979
:100AA000009104F07F41014306D10099240244EAF9
:100AB00015642D020839009104F07041014306D1FC
:100AC0000099240144EA15742D01091F009104F0D6
:100AD0004041014306D10099A40044EA9574AD0059
:100AE000891E009104F00041084304D100986D195B
:100AF0006441401E00904FF001033A466846B8F149
:100B0000000FCDE9014503A902DD01F088F901E0FC
:100B100001F05BF9BAF1000F04460D4601D084F0F4
:100B20000044002108464FF00000099940F2FF7789
:100B3000484010F00C0F07D124F00040284303D0A8
:100B4000C4F30A50B84212D100F0D6F9C0F80090B0
:100B5000C4F30A50B8420AD1A8487844D0E900103A
:100B6000C6E9001004F000410843706042E7C6E99E
:100B700000543FE72DE9FF4F1F464FF0000A4FF0AA
:100B8000FF38454691B0D7E90146CDF83CA000F0CA
:100B9000AFF9C0680168405C1090B96912986D1C8B
:100BA0008847396A814688470028F6D1B9F1FF3F66
:100BB0000AD0002E24F4D06411DDB9F12B0F08D037
:100BC000B9F12D0F0BD102E0404615B013E744F404
:100BD0008064B96912986D1C8847761E814660054D
:100BE00004A901D52D2000E02B20002E01F1010BDE
:100BF0000DF130088DF810003FDDB9F1690F08D014
:100C0000B9F1490F05D0B9F16E0F02D0B9F14E0F0D
:100C10001CD13B4601A8009580E85002DDE9121284
:100C20006FF0020005F055FEC11CCED10EE0B9698F
:100C300012986D1C884781461398761E44F4007400
:100C400005600F98401C002E0F9016DDB9F1300F93
:100C5000EDD0B9F1780F02D0B9F1580F0DD10F983E
:100C600001280AD13B46CDE90054DDE91212001FEC
:100C7000029605F02CFEC11CA7D1109989453ED1E2
:100C800044F0800406E01399681CAAF1010A44F4B8
:100C900000740860B9696D1C1298761E8847302868
:100CA0008146F0D02BE01099894505D1200603D468
:100CB000761E44F0800418E0484603F0CCFC08B3EC
:100CC000761E0DF123018B4544F4007408D2A9F17E
:100CD00030000BF8010B200607D5AAF1010003E054
:100CE000200602D40AF101008246A00502D513991C
:100CF000681C0860B96912986D1C88478146002EEF
:100D0000D1DC53E0002E51DDB9F1650F02D0B9F10D
:100D1000450F4BD1A00549D5B9696D1C1298761EB7
:100D200024F440748847002E81460CDD2B2804D023
:100D3000B9F12D0F07D144F48074B96912986D1C74
:100D40008847761E8146E00501D52D2100E02B2144
:100D500008F8011BCDF8008021E0761E0DF1390165
:100D6000884544F400740CD2A9F1300010F0FF0063
:100D700088F8000002D10099884509D908F10108D6
:100D800006E0E00501D51E4801E042F20F70824600
:100D9000B96912986D1C8847814613980560002E2A
:100DA00004DD484603F057FC0028D6D1F9691298B3
:100DB0008847FF2053468BF8000088F80000002089
:100DC0000A900B9004AA0CA90AA8FFF7ADFDA00594
:100DD00002D46FF00100F8E614F0240F12D0E007FF
:100DE0001CD13868DDE90A12031D3B600068C0E9C8
:100DF000001213E0C85F0000BA5F00007E5E0000D2
:100E0000F1D8FFFF0AA9684603F012FCE00705D1FC
:100E10003868009A011D3960006802602846D4E6EF
:100E2000026811441378016018467047D160054983
:100E300079445161044979441162002111611146DC
:100E400000F068B8EDFFFFFFC7000000426842B144
:100E5000016811F8013B23B1521EC0E90012184687
:100E600070470121C160881E704742685AB1C3684B
:100E7000016843B983688B4205D0491E521CC0E902
:100E80000012002070474FF0FF30704710B5203A35
:100E9000C0F00B80B1E81850203AA0E81850B1E833
:100EA0001850A0E81850BFF4F5AF5FEA027C24BFE9
:100EB000B1E81850A0E8185044BF18C918C0BDE8E0
:100EC00010405FEA827C24BF51F8043B40F8043BA9
:100ED00008BF7047D20728BF31F8023B48BF11F85E
:100EE000012B28BF20F8023B48BF00F8012B7047B8
:100EF00000487047542F002000487047342F0020CE
:100F000010B5044600F05CFA0068005D00F00100D6
:100F100010BD00002DE9F34F4FF0000A0C46564675
:100F20008DB001200C9001F10C000B9062690B98C0
:100F300001219047051E2DD0252D2CD0216A8847F0
:100F4000C0B162690B9801219047216A8847002847
:100F5000F7D16269411E0B98904700E0761CA169A9
:100F60000D988847216A88470028F7D1E1690D98D4
:100F70008847DBE7A1690D988847A842074601D159
:100F8000761CD3E7E1690D9888477F1C02D1BAF13E
:100F9000000F6FD06BE162690B9800273D46394620
:100FA00090472A2804D162690B98012190470125B6
:100FB000DFF8D08262690B9801219047A0F13001DF
:100FC0000A290AD24745E5DC07EB870100EB410718
:100FD000303FDFD445F01005ECE7E90601D46FF0AF
:100FE00000476C280AD04C2814D0682815D06A28ED
:100FF0000DD074281CD07A281AD01DE062690B9895
:10100000012190476C2802D045F0040514E045F01A
:1010100002050DE045F020050AE062690B98012108
:101020009047682802D045F0080505E045F40065C2
:1010300062690B9801219047C4E9015765283DD0AA
:1010400019DC58287AD00CDC452837D004DC252858
:1010500026D041289ED131E046282FD0472899D16B
:101060002CE05B2877D0612828D063287CD06428C6
:1010700023D15AE0F6E06F2848D008DC66281DD05E
:1010800067281BD0692821D06E2816D127E0702848
:1010900045D0732868D0752847D078280DD14DE009
:1010A000A1690D988847252805463FF469AFE16995
:1010B0000D9888476D1C3FF46AAFD8E00D99234620
:1010C0006A466FF0010005F000FCC5E045F0400005
:1010D00023464FF000026060A80736D43EE0E807E0
:1010E0007FF447AF2068011D21600068290501D504
:1010F00006701BE7290701D5068017E7A90703D566
:10110000F117C0E9006111E706600FE745F0400004
:1011100023464FF008026060A80716D41EE040F690
:101120000E0125EA0100606016E045F0400023460C
:101130004FF00A026060A80707D40FE045F04000B6
:101140006060A80708D5234610220D996FF00100B2
:10115000AFF3008080E007E0102223460D996FF086
:101160000100FFF729FA77E04FF0000963284F46A6
:10117000C8464B46CB4602D05B2806D038E0E8068E
:1011800001D40120A060012732E06269D4F80CB0DC
:101190000B98012190475E2807D14FF0010949467D
:1011A0006269D4F80CB00B989047216939B90021D5
:1011B0000A4603AB43F82120491C0829FADBD8B3BF
:1011C000216949B308F1010862690B980121904730
:1011D0005D28F4D1B9F1000F09D0002003A951F81E
:1011E0002020D24341F82020401C0828F7DB03AB25
:1011F0002069002820794FEA40701ED05B462246C5
:10120000CDF80080CDE901970D9900286FF001001D
:1012100020DAAFF300801FE0C11703AA00EBD16111
:101220004B1121F01F0102EB8302411A13680120C8
:10123000884003431360C7E719E00D992246002850
:101240006FF00100009702DAAFF3008004E0AFF323
:10125000008001E0AFF3008000280ADA401C06D1CC
:101260000C9820B14FF0FF300FB0BDE8F08F504622
:10127000FAE7E90701D10AF1010A064400200C90BF
:1012800054E60000CCCCCC0C2DE9F0478146164644
:101290008AB0354878440DC88DE80D00324878444E
:1012A000801C03AC0DC884E80D0041F69B30084457
:1012B000372190FBF1F290FBF1F5A5F1800501FBE0
:1012C00012041B3C02D56442012000E00020DFF83C
:1012D00098A080460027FA44AAF1BE0A0EE0E00773
:1012E0000AD03246684607EB470101230AEB810129
:1012F00000F080FD8DE8070064107F1C002CEED10B
:10130000194F7F44AE3F19E0E80715D007EB0410F2
:101310000DF1180A90E80E008AE80E00C068F0424D
:1013200001D1981908903246012306A903A800F0BC
:1013300061FD03AB83E807006D10641C002DE3D151
:101340004FF0010332466946B8F1000F03A802D0FE
:1013500000F026FD01E000F04DFDC9E90001C9F8EB
:1013600008200AB0BDE8F0870C570000004870471D
:10137000342F00207546FFF7F9FFAE460500694699
:10138000534620F00700854618B020B5FEF7E8FF69
:10139000BDE820404FF000064FF000074FF0000876
:1013A0004FF0000B21F00701AC46ACE8C009ACE8F7
:1013B000C009ACE8C009ACE8C0098D467047000020
:1013C00010B5FFF795FD001D10BD00BF15500000C2
:1013D00010B5FFF791FD006810BD10B50446FFF78A
:1013E0008BFD046010BD00002DE9FF4F1F464FF03C
:1013F0003C0987B04FF00042DDE9141001F101080B
:10140000DDF858A002EA4050039000200590834682
:10141000054604460490B969461E08988847AAF113
:10142000010A0290BAF1000F3BDD02982E2815D078
:101430001021FFF76AFA00282EDB4FF0010B059907
:10144000014317D0B9F1000F0BDB4A46C11700F07A
:101450003FFA05430C43A9F1040905E0012004907B
:101460000BE008B145F0010501200590049820B972
:10147000361D02E0049800B1361FB969089808F1DA
:1014800001088847BBF1000FAAF1010A0290C9D0F8
:101490000999C1F80080C5E70298702808D0502843
:1014A00006D0F96908988847BBF1000F14D04FE0C7
:1014B000002002900120BBF1000F049009D0B9690F
:1014C000089808F101088847AAF10109B9F1000F4D
:1014D00007DCF969089888476FF001000BB0BDE898
:1014E000F08F2B2804D02D280CD14FF0FF30049022
:1014F000B969089808F101088847A9F10109B9F10B
:10150000000FE6DD411CE4D00A21FFF7FEF90028B8
:10151000DFDB029908F1010801EB810100EB4100DA
:101520000290B969089888470A21FFF7EEF9099AED
:10153000A9F10109B9F1000FC2F8008001DD00280E
:10154000E7DAF969089888470499029800FB016670
:1015500055EA040004D004F04041090002D006E03E
:10156000039898E0A40044EA9574AD00B61E04F018
:101570000041080002D16D196441761E159810F0E3
:10158000240F03D04FF00B095C4803E04FF028090B
:101590006FF07D008246564507DAAAEB06018944C2
:1015A000B9F1410F01DD4FF0410901200021A9F1FE
:1015B000010200F08DF9024628400B462140084305
:1015C00001D0012100E00021501E029143F1FF31C2
:1015D00028402140084301D0012000E0002002996A
:1015E000834651EA0B014FD0002108464FF000001E
:1015F000039900F4400039B100EB80004FF4400142
:1016000000EBD07001EA60008015012802DD4FF088
:10161000FF3000E013D0401C36D0029860B3BBF11D
:10162000000F0CD14A460120002100F051F928405A
:101630002140084301D0012000E00020E0B101205A
:101640004A46002100F044F9034640190A46614128
:101650002D1A8C4111D3B9F1400F09DD159810F006
:10166000240F02D0AAF1340603E0AAF1170600E025
:10167000761C00254FF0004406E05B1E42F1FF326D
:1016800020EA030521EA0204CAF10100B04206DAA9
:101690001B49039808430190002000900EE0039A34
:1016A000C4F3D321E80A0A43164940EA44500A43E6
:1016B0003146CDE90002684602F0C3FF159810F0EC
:1016C000240F0BD01598C00715D13868DDE900123A
:1016D000031D3B600068C0E900120CE002A86946E7
:1016E00002F0A6FF1598C00705D13868029A011DBF
:1016F0003960006802604046F0E6000002FCFFFF2F
:101700000000F07F0000F03F2DE9FF4F92461D469C
:1017100085B04FF00041DDE9124BDDE914727F1E08
:1017200001EA4B50414940F0FF4940EA01080021DD
:1017300022F020004928049102D04E2828D04CE005
:101740003BA0012607C88DE80700A9690698641C1C
:1017500088477F1E014606D41DF8060018B121F007
:10176000200181420BD0E96906988847032E34D0C6
:10177000082E32D06FF0010009B0BDE8F08F761C62
:10178000032E01D0082EE0D1601CCAF80000DCE76F
:10179000A9690698641C88477F1E2AD420F020007F
:1017A000412826D1A9690698641C88477F1E20D449
:1017B00020F020004E281CD1A9690698641C884797
:1017C0007F1E48F4002849F48009CAF8004001D47B
:1017D000282806D0E969069888475FEACB7012D0BE
:1017E00022E0A9690698641C88477F1E01D400285E
:1017F00003DAE96906988847BCE72928F1D1641C17
:10180000CAF80040E9E71BF0240F07D028680499C4
:10181000031D2B600068C0E9001805E02868021D60
:101820002A600068C0F800902046A5E70000F07F1D
:10183000494E46494E4954590000000010B504462F
:10184000AFF300802046BDE81040FEF7FBBC00006F
:101850004FF0013C50F8042B51F8043B9A4221D13F
:10186000A2EB0C03934313EACC1317D150F8042BCB
:1018700051F8043B9A4215D1A2EB0C03934313EAAF
:10188000CC130BD150F8042B51F8043B9A4209D1E8
:10189000A2EB0C03934313EACC13DBD04FF0000010
:1018A000704700BFD01A01BAB1FA81F101F01801F6
:1018B00022FA01F0CB40C1F12001DBB2C0B2C01A64
:1018C0002CFA01F3D11A914311EAC311E6D1704702
:1018D000B2F120030AD5C2F1200301FA02F120FA85
:1018E00003F300FA02F041EA0301704700FA03F142
:1018F0004FF000007047000001491820ABBEFEE722
:1019000026000200704720F07F4C80EA030023F09D
:101910007F47ACEB070303F57C5300F0004003F175
:10192000FF032DE980494FEA154B09B44FEA1443F0
:1019300025EA0B4E24EA03480FF2042606EB132790
:1019400049083E785FEA320203FB0667C7F50007E5
:1019500007FB06F64FEA54374FEAD64606F1020671
:1019600007FB066CCCF1005C4FEA1C472CEA074CE5
:1019700007FB06F40CFB06F504EB15464FEA96163A
:1019800034BF00204FF000404FEAD13706FB07FC80
:101990004FEA1C4C0CFB0BF7D21B03FB0CF761EB63
:1019A00007010CFB0EF7B0EB074072EB17420CFB84
:1019B00008F734BFA2EB0742B2EB074261EB1741D5
:1019C0004FEA0C444FEA910706FB07FC4FEA1C4C18
:1019D0000CFB0BF7B0EBC74072EB573203FB0CF775
:1019E00034BFA2EBC742B2EBC74261EB57310CFBED
:1019F0000EF7B0EBC70072EB57720CFB08F734BF61
:101A0000A2EBC702B2EBC70261EB5771039F4FEA2B
:101A1000816141EA921104EBCC044FEAD1374FEADD
:101A2000826206FB07FC42EA90124FEA80604FEAAE
:101A30001C4C0CFB0BF7D21B03FB0CF761EB0701F3
:101A40000CFB0EF7B0EB074072EB17420CFB08F7EC
:101A500034BFA2EB0742B2EB074261EB17414FEAFA
:101A60008C554FEA910704EB9C2406FB07FC4FEAD8
:101A70001C4C0CFB0BF7B0EBC74072EB573203FB6F
:101A80000CF734BFA2EBC742B2EBC74261EB573150
:101A90000CFB0EF7B0EBC70072EB57720CFB08F7AC
:101AA00034BFA2EBC702B2EBC70261EB577115EB73
:101AB0004C254FEA816141EA92114FEA82624FEA76
:101AC000D13742EA901206FB07FC44F100044FEACA
:101AD00080604FEA1C4C0CFB0BF7D21B03FB0CF78E
:101AE00061EB07010CFB0EF7B0EB074072EB1742FE
:101AF0000CFB08F734BFA2EB0742B2EB074261EBE5
:101B0000174115EB1C154FEA813141EA92414FEA2A
:101B1000823242EA90424FEA80304FEA0C7644F13A
:101B2000000448EA03434EEA0B484FF0000EB2EBC4
:101B3000080C71EB030724BF624639464EEB0E0ECC
:101B40004FF0000B0018524149414BEB0B0BB2EB2D
:101B5000080C71EB03077BF1000B24BF624639468A
:101B60004EEB0E0E4FF0000B0018524149414BEB6B
:101B70000B0BB2EB080C71EB03077BF1000B24BFDE
:101B8000624639464EEB0E0E51EA020718BF46F088
:101B9000010616EB0E7655F1000254F1000103D553
:101BA000BDE88901BDE80088BDE88901BDE80048BD
:101BB000B619524141EB0101A3F101037047808046
:101BC0007F7E7D7C7B7A7978777676757473727197
:101BD00071706F6E6E6D6C6C6B6A6A69686867664F
:101BE00066656464636362616160605F5F5E5E5DE1
:101BF0005D5C5C5B5B5A5A59595858575756565555
:101C000055555454535352525251515050504F4FB6
:101C10004F4E4E4D4D4D4C4C4C4B4B4B4A4A4A4906
:101C20004949484848474747474646464545454449
:101C30004444444343434342424242414141000001
:101C400046EA0646A3F570534FEA164646EA425660
:101C50004FEAD22242EA415210B54FEAD121A3F114
:101C6000010300F02FF820F0004000F1020C00F01A
:101C7000004701EB00501146BCF5006F40EA070039
:101C800000D210BDBAF1000F0AD01CB503B44FF05A
:101C900004004FF004014FF000000FBCBDE81040FD
:101CA0004FF00001BBF1010FB9BF04484FF0FF3105
:101CB0000348002140EA070010BD00BFFFFFEF7F8F
:101CC0000000F07F002B9C4630D477002BD01CB551
:101CD0004FEA370703B44FF010004FF01001BAF18C
:101CE000000F06D0BCF1000FDCBF40F0080040F050
:101CF00008014FF000000FBCBDE810400BF1010BD4
:101D0000BBF1010F08BF5FEA170722BF12F1010202
:101D100011F101014FF0004143F1000300F00040D8
:101D200043EA00007047F9D35708D0E746EA064671
:101D300013F1400F4FEA16461FDD13F1200FDFBFEE
:101D400016430A46002120335B42BED0C3F1200770
:101D500046EA064602FA07F74FEA164646EA07063B
:101D6000C3F1200722FA03F201FA07F721FA03F17F
:101D70004FF0000342EA0702A7E746EA020646EAF6
:101D800006464FEA164646EA0106BCBF46EA064644
:101D9000360C4FF000034FF000024FF0000194E7C3
:101DA0002DE9804C9A46934670B491E8380007C8F4
:101DB00031EA400C48BF34EA430C03D5FFF7A3FDDA
:101DC000FFF780FFF0BCBDE8008C2DE9804C9A46FF
:101DD000934670B491E8380007C831EA400C48BF18
:101DE00034EA430C03D5FFF78EFDFFF729FFF0BC63
:101DF000BDE8008C2DE9804C9A46934670B491E87A
:101E0000380007C810F0804F08BF13F0804F03D18F
:101E100000F01AF8FFF756FFF0BCBDE8008C2DE982
:101E2000804C9A46934670B491E8380007C810F089
:101E3000804F08BF13F0804F03D100F005F8FFF783
:101E4000FFFEF0BCBDE8008C20F07F4780EA030075
:101E500023F07F4C07EB0C03A3F57C5300F000400C
:101E6000A3F1FE0392F0000F00F0B38095F0000F95
:101E700000F077802DE901494FEA11404FEA1446FE
:101E800021EA004800FB06FC24EA064708FB06F6A8
:101E900007FB08F800FB07F718EB06484CEB164C5D
:101EA0004FEA124B18EB07484FEA15464CEB174028
:101EB00022EA0B4E0BFB06FC25EA06470EFB06F654
:101EC00007FB0EFE0BFB07F71EEB064E4CEB164C0A
:101ED0004FF000061EEB074E4CEB174B18EB0B08B0
:101EE00040F1000018EB0E0B58EB000840F1000029
:101EF0008F1A4FF000013CBFC943661B14BFB5EBFE
:101F0000040C00213CBFC943F61B4FEA17444EEABC
:101F10008E0E27EA04454FEA1C4704FB07622CEAB1
:101F2000074C05FB07F70CFB05F604FB0CFC16EB56
:101F3000074642EB174216EB0C4642EB1C421BEBEA
:101F4000060658EB0202414146EA9E0601D5BDE86D
:101F50000189B619524141EB0101A3F10103BDE82A
:101F600001894FEA14454FEA114724EA054621EA60
:101F7000074C05FB07F406FB07F70CFB06F105FB16
:101F80000CFC11EB074144EB17444FEA124711EBED
:101F90000C4144EB1C4422EA074C05FB07F206FB0C
:101FA00007F70CFB06F605FB0CFC16EB074642EBAD
:101FB000174216EB0C4642EB1C456A1854F100011F
:101FC00048BF7047B619524141EB0101A3F101032B
:101FD000704795F0000F37D04FEA11424FEA14478F
:101FE00021EA024624EA074C02FB07F106FB07F749
:101FF0000CFB06F402FB0CFC14EB074441EB17410D
:102000004FEA154714EB0C4441EB1C4125EA074C01
:1020100002FB07F506FB07F70CFB06F602FB0CFCC0
:1020200016EB074645EB174516EB0C4645EB1C42F5
:10203000121951F1000148BF7047B619524141EBE6
:102040000101A3F1010370474FEA14454FEA11471C
:1020500024EA054621EA074C05FB07F106FB07F7D2
:102060000CFB06F24FF0000605FB0CFC12EB0742DE
:1020700041EB174112EB0C4251EB1C4148BF70473A
:10208000921841EB0101A3F1010370471FB50B4604
:102090000446014622221846FEF752FB0748011F5C
:1020A0000A1F131FCDE90032CDE902101B1F0C3AA5
:1020B00003A12046FEF762FA1FBD0000D4030020F2
:1020C000423A2564202C202564202C2566202C25CE
:1020D00066202C2564202C2564200A0010B50146BA
:1020E00030220748FEF72CFB0A200549034631221F
:1020F00081F83000BDE81040A1F5F57001F00CBC8E
:102100005E030020FEE70000014800F00EBA000068
:1021100008040020014800F008BA00003004002044
:1021200038B50F4C40F2FF1525600025A560E5602D
:10213000082525610B4C050A25706070080AA070FF
:10214000E170100A20716271180AA0710449E371EC
:102150006B462246A1F5D07000F088F838BD00002B
:10216000A80500200C00002030B5154C23685D69DF
:1021700045F040055D612368DC6844F01004DC60D4
:102180000F4C403423681D6825F001051D6023684D
:102190001D68ED07F7D125680A4BAB602368D8604E
:1021A00020680161206842602068016841F4802154
:1021B00001602068016841F00101016030BD00004C
:1021C000740100200410014001681823CAB2103ABB
:1021D000B2FBF3F2054B6FF30901032A9B5CC36565
:1021E00000D9091D8165084670470000066900088E
:1021F00010B5014600208B698A6A4FF0C07453B154
:10220000B3F5005F15D072B1012A0CD0022A0AD0B2
:10221000032A09D104E01AB1012A06D0022A03D107
:10222000C96AC90100D5012010BDC96AA142FAD00E
:1022300010BD002AF7D0012AF2D0022AF3D0032AD7
:10224000F3D010BD7047704790F82020012A07D0C6
:10225000022A05D0416A41F4802141620120704781
:10226000006842690A43426100207047F0B590F867
:1022700020500468A468012D05D0022D03D0416AC6
:1022800041F4802153E014F0406F01D1E5004BD5BB
:10229000C4F30164022C03D9416A41F4000146E011
:1022A0000125A5401D608B684FF4C0759BB1CE68B9
:1022B00033434E6843EAC603066805EB0417F3513F
:1022C0004FF4C273076803EB04130E69FE50097DD7
:1022D000012905D009E00E88CB6843EA4653EBE7B5
:1022E0000168CE5846F48076CE501179D2F8053088
:1022F0004FF4C67641EA0323016806EB04168B51BE
:102300001178D2F801204FF4C47341EA0221026827
:1023100003EB0413D150006805EB0411425842F05E
:10232000010242500020F0BD416A41F400114162B7
:102330000120F0BD10B590F82020012A07D0022A14
:1023400005D0416A41F480214162012010BD3B4823
:10235000D0F8002242F00102C0F80022D0F800229A
:1023600022F47C52C0F80022D0F800224B6A42EAE4
:102370000322C0F800220A7D02F01F0301229A40C6
:10238000D0F81C329343C0F81C32CB69B3B9D0F8F3
:102390000C329343C0F80C328C894B6864F31F43B2
:1023A0004C6900EBC404C4F840320C890B6864F338
:1023B0001F434C6900EBC404C4F84432CB69012BC1
:1023C00016D1D0F80C321343C0F80C320C884B688D
:1023D00064F31F434C6900EBC404C4F840320C8919
:1023E000CB6864F31F434C6900EBC404C4F8443267
:1023F0008B69002BD0F804320ED01343C0F804329E
:102400000B69002BD0F8143208D01343C0F81432F3
:10241000096A012904D008E09343EFE79343F5E705
:10242000D0F81C121143C0F81C12D0F8001221F091
:102430000101C0F80012002010BD0000006400403F
:10244000704730B590F82040012C05D0022C03D005
:10245000416A41F480215DE00468002955D0246977
:10246000A40754D04FF4D874056804EB01142D5917
:1024700015F00405956005682D594ED0ED0855609E
:1024800005682C59C4F34004D4604FF4DA7405682D
:1024900004EB01142D5905F00F05156105682D5940
:1024A000C5F30725956105682C59240C54614FF438
:1024B000DC72046802EB0112A4581C700468A45872
:1024C000240A5C700468A458240C9C700468A25808
:1024D000120EDA704FF4DE72046802EB0112A45897
:1024E0001C710468A458240A5C710468A458240C64
:1024F0009C710468A258120EDA71006881B10169FA
:1025000041F020010161002030BDE468A8E7416A84
:1025100041F400114162012030BD6D0D1560AFE73F
:10252000C16841F02001C160EDE72DE9F05F05468B
:10253000006800244669D0F804908768D0F80CB091
:10254000D0F810A0D0F81880F10748D0F90714D0BF
:1025500001218160B80703D5284600F03CFA0CE061
:10256000780702D54FF4006407E0380702D54FF42E
:10257000805402E0284600F02DFAF80516D52968A7
:102580004FF480708860B80503D5284600F025FA1E
:102590000CE0780502D544F4005407E0380502D574
:1025A00044F4804402E0284600F016FAF80316D5F9
:1025B00029684FF480308860B80303D5284600F0BE
:1025C0000EFA0CE0780302D544F4004407E0380327
:1025D00002D544F4803402E0284600F0FFF93007C9
:1025E00007D55FEACB6004D52968102044F4007455
:1025F000C86070074FF0080707D55FEA0B7004D575
:102600002868C760284600F097F9B00706D5286803
:10261000C068800702D0284600F090F9700607D500
:102620005FEACA6004D52968102044F48064086118
:10263000B00607D55FEA0A7004D528680761284606
:1026400000F09AF9F00606D528680069800702D0E4
:10265000284600F092F9B00308D55FEAC96005D5B5
:10266000296810204860284600F088F9F00307D553
:102670005FEA097004D528684760284600F0B0F981
:10268000300446D55FEA497040D5F00504D55FEACD
:10269000C87001D044F00104B00504D55FEA887029
:1026A00001D544F00204700504D55FEA487001D5F5
:1026B00044F00404300529D518F0700F26D008F036
:1026C0007000402815D006DC102809D020280AD038
:1026D000302816D10AE050280ED0602811D10EE023
:1026E00044F008040DE044F010040AE044F0200433
:1026F00007E044F0400404E044F0800401E044F4C6
:1027000080742868816921F0700181612968042042
:102710004860002C05D0686A204368622846FFF7AD
:102720008FFEBDE8F09F70B5040003D094F8200040
:1027300010B104E0012070BD204600F081F820684F
:10274000016821F00201016000F0A2FA05460526A9
:1027500004E000F09DFA401B0A2811D82068406868
:102760008007F6D42068016841F00101016000F0A3
:102770008FFA05460BE000F08BFA401B0A2806D9B9
:10278000606A40F40030606284F82060D2E720681C
:102790004068C007EFD0207E0128206801683DD046
:1027A00021F080010160607E01282068016838D036
:1027B00021F040010160A07E01282068016833D02B
:1027C00021F020010160E07E0128206801682ED000
:1027D00041F010010160207F01282068016829D0A4
:1027E00021F008010160607F01282068016824D081
:1027F00021F004010160D4E902010843D4E9041284
:10280000114308436168491E08432168C8610020DC
:102810006062012084F82000002070BD41F080013A
:10282000C0E741F04001C5E741F02001CAE721F0CF
:102830001001CFE741F00801D4E741F00401D9E7E6
:10284000F0B587B0044614216846FDF7BEFF354950
:10285000354ADFF8CCE04868D4F800C0324B032496
:102860000225092610320027401CF44521D148607A
:10287000012807D1106840F000701060106800F067
:1028800000700590186840F00800186018688DE81E
:10289000B00000F00800CDE90460694603942348C5
:1028A00000F00AF900220621142000F05FFA14203B
:1028B00031E0DFF87CE0F4452FD1D2F800C04CF0D5
:1028C000806CC2F800C0D2F800C001280CF0806C07
:1028D000CDF814C0486007D1106840F00070106057
:1028E000106800F000700590186840F00200186051
:1028F0001868694600F00200059060208DE8A1008C
:10290000CDE903460B4800F0D7F80022062140200D
:1029100000F02CFA402000F01BFA07B0F0BD0000D8
:10292000006400400400002030380240000C0240E7
:1029300000680040000402407047000000B589B004
:1029400007AB6A460021FFF77CFD0098A0F201204A
:1029500007280AD80649C0B20870064900EB4000B3
:1029600001EB001007A902F05BF809B000BD000000
:10297000040000205804002070477047704770B56D
:10298000044690F82000012804D0606A40F400203A
:10299000606217E0022084F820002068016821F0BE
:1029A0000101016000F074F905460DE000F070F9D6
:1029B000401B0A2808D9606A40F400306062052094
:1029C00084F82000012070BD20684068C007EDD168
:1029D000606270BD704770477047704770477047BE
:1029E000704700002DE9F041044600F051F905461A
:1029F0005CB1002684F83460022084F83500206839
:102A0000016821F0010101600DE00120BDE8F081C5
:102A100000F03EF9401B052805D920206065032001
:102A200084F83500F2E720680068C007F0D121681B
:102A30000A6820480240D4E901031843D4E9033569
:102A40002B43184363691843A3691843E369184388
:102A5000236A18431043626A042A03D1D4E90B2382
:102A60001A431043086020684069656A20F0070136
:102A700028460D43012704280CD1A06A0543E06ACB
:102A800040B12046FFF7B4FB20B14020606584F8D8
:102A90003570BAE7206845612046FFF795FB94F84A
:102AA0005C203F2191408160666584F8357000208C
:102AB000ACE700003F8010F02DE9F84FDFF88C9173
:102AC000002209F1040A0AF1040B4FF00F080BF180
:102AD000040E01260B6896403340B34271D14C6816
:102AE000022C01D0122C11D1D40800EB84073D6ACE
:102AF0005407E40E08FA04FC25EA0C05D1F810C0CE
:102B00000CFA04FC4CEA050CC7F820C00768540016
:102B1000032591F804C0A5400CF0030CAF430CFA58
:102B200004FC4CEA070CC0F800C04F68012F05D028
:102B3000022F03D0112F01D0122F11D18768D1F8A5
:102B40000CC0AF430CFA04FC4CEA070CC0F808C0F8
:102B50004768B7430E79C6F3001696403E43466079
:102B6000C668AE438D68A5403543C5604C68E40037
:102B700065D5374C256845F480452560246822F0EA
:102B8000030504F480440094324C2E19D6F80878DA
:102B90009407250F08FA05F4A7432F4CA04201D152
:102BA000002424E02D4CA04201D101241FE02C4C34
:102BB000A04201D102241AE02A4CA04202D10324EF
:102BC00015E03CE0284CA04201D104240FE0274C42
:102BD000A04201D105240AE0254CA04201D10624DF
:102BE00005E0244CA04201D1072400E00824AC40B9
:102BF0003C43C6F80848D9F800404D464E689C430F
:102C0000F60300D51C432C60DAF8004055464E68A8
:102C10009C43B60300D51C432C60DBF800405D46A6
:102C20004E689C43F60200D51C432C60DEF8004041
:102C300075464E689C43B60200D51C432C60521C5E
:102C4000102AFFF446AFBDE8F88F0000003C0140B9
:102C500044380240003001400000024000040240BD
:102C600000080240000C0240001002400014024024
:102C700000180240001C0240426931EA020200D101
:102C80000904816170470AB1816170470904FBE75B
:102C900001488068704700001C00002002488168DD
:102CA00002781144816070471C0000200B4810B569
:102CB000016841F400710160016841F480610160C4
:102CC000016841F480710160032000F06FF800207A
:102CD00000F006F800F024F8002010BD003C02408F
:102CE00070B50D4D04464FF47A712878B1FBF0F0C1
:102CF0000A490968B1FBF0F000F07CFB48B9102CE0
:102D000007D200222146501E00F030F800206C60EF
:102D100070BD012070BD00001C00002028000020B4
:102D20000A4808B5016841F480410160006800F478
:102D3000804000900548001F016841F0805101600B
:102D4000006800F08050009008BD00004438024048
:102D5000002809DB00F01F0201219140400980009A
:102D600000F1E020C0F8001170470000F0B40E4BF5
:102D70001B68C3F30223C3F10704042C00D9042405
:102D80001D1D072D01D2002300E0DB1E012606FADF
:102D900004F56D1E0D409D409E40761E164045EA8E
:102DA0000601F0BC01F02DBB0CED00E0064A00F07E
:102DB000070110684FF6FF03184040EA012003495D
:102DC00008431060704700000CED00E00000FA05B9
:102DD0002DE9F843044600684FF00109C1074FF0A0
:102DE000000501D1400726D5DFF80C81C8F86850EE
:102DF000FFF74EFF0646414F04E0FFF749FF801BF7
:102E0000022857D838680001F7D46068217A800119
:102E100040EA0170394984310860C8F86890FFF7CA
:102E200037FF064604E0FFF733FF801B022841D836
:102E300038680001F7D52078800752D52F484030F8
:102E4000016841F08051016000682D4F00F0805012
:102E50000090386840F480703860FFF719FF06462C
:102E600004E0FFF715FF801B022823D83868C0054F
:102E7000F7D5224E7036306810F4407020D0A1890A
:102E800001F4407181421BD030681E4920F440702B
:102E9000C1F800900D6030603068C00710D0FFF7B7
:102EA000F7FE054641F2883707E0FFF7F1FE401BC9
:102EB000B84202D90320BDE8F88330688007F4D512
:102EC000E0680E49C0F301220831032A0BD00868DC
:102ED00020F4F81008603068A189C1F30B010843A1
:102EE00030600020E7E70A68074B22F4F812184028
:102EF00002430A60EFE7000000004742003802404A
:102F000000700040400E4742FFFCFF0F2DE9F047E4
:102F10000D46040065D0DFF81491D9F80000EFB237
:102F200000F00F00A84207D289F80070D9F800001D
:102F300000F00F00A84254D120683D4E810712D501
:102F4000400703D5306840F4E05030602078000737
:102F500003D5306840F4604030603068A16820F0EC
:102F6000F000084330602078C0072DD030496068F9
:102F70000839012812D0022813D0032811D009687B
:102F8000890700292DDA316821F0030101433160FE
:102F9000FFF77EFE804641F2883A0EE00968890319
:102FA000EFE709688901ECE7FFF772FEA0EB080183
:102FB000514502D90320BDE8F0873068616800F010
:102FC0000C00B0EB810FEFD1D9F80010484601F0AA
:102FD0000F01A94207D90770006800F00F00A8424E
:102FE00001D00120E7E72078400705D53068E16887
:102FF00020F4E050084330602078000706D53068A0
:10300000216920F4604040EAC100306000F036F8E9
:103010003168084AC1F30311515CC8400649086091
:103020000020FFF75DFE0020C5E70000003C0240E5
:10303000083802400E6900082800002004480549AD
:1030400000680968044AC1F38221515CC840704796
:1030500028000020083802401E690008044805497D
:1030600000680968044AC1F34231515CC8407047A6
:1030700028000020083802401E690008154810B5D5
:10308000006810F00C01144813D0144B04290FD021
:1030900008290ED10F4C241F216801F03F0221683E
:1030A000490207D52068C0F38810A0FB030106E0A1
:1030B000184610BD2168C1F38811A1FB000100234F
:1030C000FDF760F92168C1F30141491C4900B0FBDB
:1030D000F1F010BD083802400024F400001BB700D6
:1030E0002DE9F84F040073D02078BD4DC00748D0BB
:1030F000BB4808300168C1F38101012908D000688C
:10310000C0F3810002280AD1281D0068400206D5BC
:103110002868800335D560680028E4D031E0606815
:10312000B0F5803F10D0B0F5A02F286810D020F463
:1031300080302860286820F4802028606068A0B172
:10314000FFF7A6FD06460CE0286840F48030F4E75F
:1031500040F480202860F7E7FFF79AFD801B642881
:1031600072D828688003F7D50BE0FFF791FD06467B
:1031700004E0FFF78DFD801B6428F1D828688003E8
:10318000F7D42078DFF85C9280074FF0000A3ED534
:1031900093480830016811F00C0F09D00068C0F3A3
:1031A000810002280BD18E48001D0068400206D421
:1031B0002868800715D5E068012809D111E0E0688A
:1031C000B8B10120C9F80000FFF762FD064605E02E
:1031D00003E1FFF75DFD801B0228C1D82868800746
:1031E000F7D52868216920F0F80040EAC10028607E
:1031F0000DE0C9F800A0FFF74BFD064604E0FFF71D
:1032000047FD801B02281FD828688007F7D4207844
:10321000000722D5724F74496069743770B101207C
:103220000860FFF735FD064604E0FFF731FD801B1F
:10323000022809D838688007F7D50EE0C1F800A049
:10324000FFF726FD064605E081E0FFF721FD801B24
:1032500002287CD838688007F7D42078400769D5E1
:10326000DFF87CB14FF000080BF1400BDBF80000F9
:10327000C0000CD4DBF8001041F08051CBF80010F6
:10328000DBF800004FF0010800F080500090574F2D
:103290003868C0050FD4386840F480703860FFF794
:1032A000F7FC064604E0FFF7F3FC801B02284ED82B
:1032B0003868C005F7D54A4FA068703701280FD08D
:1032C0000528386810D020F001003860386820F0F8
:1032D00004003860A068B0B1FFF7DAFC06460EE0E3
:1032E000386840F00100F4E740F004003860F7E788
:1032F000FFF7CEFC811B41F28830814265D83868E7
:103300008007F5D50DE0FFF7C3FC064606E0FFF7A2
:10331000BFFC811B41F28830814256D83868800753
:10332000F5D4B8F1000F05D0DBF8001021F0805182
:10333000CBF80010A069C8B3294908310968C1F366
:103340008101022949D00228504607D000E03CE024
:10335000C9F86000FFF79CFC044639E04F46C9F805
:103360006000FFF795FC064604E0FFF791FC801B28
:1033700002282AD828688001F7D4D4E90701084335
:10338000A16A1B4A490802EB0141626A41EA8211C3
:10339000084394F82C1040EA01611148001D0160B7
:1033A00001203866FFF774FC044605E013E0FFF7E0
:1033B0006FFC001B022808D828688001F7D50AE0B6
:1033C000FFF766FC001B022802D90320BDE8F88F36
:1033D00028688001F4D40020F8E70120F6E7000017
:1033E0000038024000004742800E47420070004013
:1033F0000000FFFF10B5401EB0F1807F01D3012017
:1034000010BD4FF0E02460610F21601700F0F9FF5C
:103410000020A06107202061002010BD7047704788
:10342000704770B50446006801694FF00005C94354
:10343000890715D4C168C943890711D4E91E016100
:1034400001202077206880698007204602D0FFF79E
:10345000E7FF04E000F098F8204600F096F82577A2
:1034600020680169C943490717D4C168C94349079E
:1034700013D46FF004010161022020772068806975
:1034800010F4407F204602D0FFF7CAFF04E000F0AE
:103490007BF8204600F079F8257720680169C94358
:1034A000090716D4C168C943090712D46FF008018F
:1034B0000161042020772068C0698007204602D07F
:1034C000FFF7AEFF04E000F05FF8204600F05DF883
:1034D000257720680169C943C90617D4C168C94363
:1034E000C90613D46FF0100101610820207720680D
:1034F000C06910F4407F204602D0FFF791FF04E03E
:1035000000F042F8204600F040F825772068016975
:10351000C943C90708D1C168C943C90704D1891E75
:103520000161204600F032F820680169C9430906AC
:1035300009D4C168C943090605D46FF0800101614F
:103540002046FFF76BFF20680169C943490609D48B
:10355000C168C943490605D46FF0400101612046A6
:1035600000F0ECF820680169C94389060BD4C168F2
:10357000C943890607D46FF0200101612046BDE8E8
:103580007040FFF74CBF70BD7047704770B55E4923
:103590002DED028B88427CD15C4E7068401C7060BF
:1035A000B0F57A7F01DB002070603079584CC0079D
:1035B00027D101F093F901F061F97061554904F5E3
:1035C000887001F0EFF9D4ED480A94ED460A5248AC
:1035D00001F046FA5048D0ED0F0A5048C4ED490AB0
:1035E00094ED4A0A01F03CFA4C4800231A4690ED4B
:1035F000120A1946BDEEC00A10EE100A00B2FEF71C
:103600008FFD70680A2190FBF1F201FB1201F9B9FC
:10361000B6F9001000EE101AB8EEC00ADFED400A4D
:10362000404920EE200AB1F9001000EE901AF8EEA1
:10363000E00A9FED3D1A00EE810ADFED3C0A20EE24
:10364000200ADFED3B0A80EE201A84ED481A318013
:10365000642590FBF5F105FB1100002850D101F025
:1036600045F9344C0120A061FCF752FEC11700EB74
:1036700091516FF30901401AE061FCF749FEC1174F
:1036800000EB91516FF30901401AB7EE000A206276
:1036900000E035E084ED000AFCF73AFEC11700EBCC
:1036A00091516FF30901401A00EE100A9FED228A32
:1036B000B8EEC00A20EE080A84ED010AFCF728FEE5
:1036C000C11700EB91516FF30901401A00EE100A87
:1036D000B8EEC00A20EE080A84ED020A706890FB7A
:1036E000F5F105FB1101616290FBF5F105FB11009D
:1036F000A0622046BDEC028BBDE87040FEF7EEBC38
:10370000BDEC028B70BD0000D80500202C0000200D
:10371000F00600201805002084060020180600206E
:103720009A99193FCC080020CDCCCC3E0000B44380
:1037300000002544D8030020CDCCCC3D704770B5A7
:10374000040004D094F83900002510B106E00120EF
:1037500070BD84F83850204600F022F8242084F808
:1037600039002068C16821F40051C160204600F092
:10377000FDFB2068016921F49041016120684169E5
:1037800021F02A0141612068C16841F40051C16003
:10379000E563202084F8390084F83A00002070BDE9
:1037A0002DE9F04F87B0054614216846FDF70DF866
:1037B000DFF840C1296800264F480224012303276F
:1037C00007224FF0006A4FF4806B61453AD14A49B5
:1037D0001031D1F800C04CF4802CC1F800C0096849
:1037E00001F480210591016841F004010160006845
:1037F000029300F004000590B802CDE90004CDE981
:10380000037269463D48FFF757F93E4C3C4820603B
:10381000C4E901A6C4E9036B80156661C4E90660CA
:103820003804C4E908062046FFF7DCF808B1FEF7C3
:103830000AFD6C63002211462720A563FFF796FA64
:10384000272052E0DFF8C0C0614550D12A49143129
:10385000D1F800C04CF0100CC1F800C0096801F0AC
:1038600010010591016841F001010160016801F05A
:1038700001010591016841F002010160006898466C
:1038800000F0020005904FF400708DE81101CDE9C1
:103890000372914669461D48FFF70EF980208DE8B6
:1038A0001101CDE9037969461948FFF705F9154C6F
:1038B0001848A0342060C4E901A6C4E9036B801550
:1038C0006661C4E906604FF44030C4E9080620464A
:1038D000FFF788F808B1FEF7B6FC6C6300221146CA
:1038E0002520A563FFF742FA2520FFF731FA07B03C
:1038F000BDE8F08F00480040303802400008024028
:103900002860024014010020001001400000024025
:1039100000040240406402402DE9F843044690F858
:1039200039001E4617460D46202850D1A5B19FB13B
:1039300094F8380001284AD0012084F838004FF06C
:103940000008C4F83C80212084F83900FFF7A0F972
:10395000A7848146E78426E00120BDE8F883E08C57
:10396000401EE084A0684B46B0F5805F4FF0000237
:103970004FF080012046009603D000F04DFCE8B9DE
:103980000DE000F049FCC8B928882168C0F30800A0
:103990004860206908B16D1C05E0AD1C03E021689A
:1039A00015F8010B4860E08C0028D8D14B46002266
:1039B00040212046009600F02FFC08B10320CCE700
:1039C000202084F8390084F838800020C5E70220E0
:1039D000C3E7FEE7114808B5016841F40011016032
:1039E000016801F400110091016841F48001016057
:1039F0000068002200F48000009011460C20FFF7C0
:103A0000B5F90C20FFF7A4F9002211463A20FFF780
:103A1000ADF9BDE808403A20FFF79AB930380240C6
:103A200030B587B014216846FCF7CFFE1648016810
:103A300041F001010160016801F001010591016897
:103A400041F004010160016801F004010591016881
:103A500041F08001016000680C4D00F080004FF4DF
:103A6000E0540590012221462846FFF70CF9012178
:103A70000220CDE90210CDE9004169462846FFF752
:103A80001BF807B030BD000030380240001C024077
:103A90000D4810B50B4901600C49416000214FF4FD
:103AA00080628160C0E903120422C0E90521C1617E
:103AB000FFF745FE002803D0BDE81040FEF7C3BB6A
:103AC00010BD000000480040D4000020A086010086
:103AD000FEE7704730B4034C4466034C846630BC48
:103AE00001F096B8114C0008314C000830B5144C68
:103AF00023685D6945F040055D612368DC6844F03A
:103B00001004DC600F4C23681D6825F001051D6062
:103B100023681D68ED07F7D125680B4BAB60236860
:103B2000D86020680161206842602068016841F423
:103B3000802101602068016841F00101016030BD11
:103B4000D400002014010020044800400C4810B5A7
:103B50000A4901604FF4E1314160002181600C228B
:103B6000C160C0E904128161C161FFF7E8FD00286E
:103B700003D0BDE81040FEF766BB10BD0010014049
:103B80007401002010B5FFF7E1FF0449BDE81040C3
:103B90006222A1F16200FEF7E7BA0000760200207F
:103BA00010B502F02FFA164C206100F097FE00F0DD
:103BB00065FE60611349144800F0F4FE134C14488C
:103BC000D4ED480A94ED460A00F04AFF1048D0EDC3
:103BD0000F0A1048C4ED490A94ED4A0A00F040FF6C
:103BE0000C4800231A4690ED120ABDE81040BDEEC5
:103BF000C00A194610EE100A00B2FEF791BA000092
:103C00002C0000201805002000080020F0060020ED
:103C1000840600201806002010B502F0F3F91249BE
:103C2000DFED120A9FED131AC860B1F90200144AC1
:103C300000EE100A0E48B8EEC00AB0F9000020EEFF
:103C4000200A00EE900AF8EEE00A00EE810ADFEDAD
:103C50000A0A20EE200ADFED090A80EE201A82ED22
:103C6000481A488010BD00002C0000209A99193F86
:103C7000CC080020CDCCCC3E0000B443000025444D
:103C8000F006002070B52DED028B02F0BBF929493A
:103C9000294C88600120A061FCF73AFBC11700EBBA
:103CA00091516FF30901401AE061FCF731FBC11734
:103CB00000EB91516FF30901401AB7EE000A206240
:103CC00084ED000AFCF724FBC11700EB91516FF360
:103CD0000901401A00EE100A9FED188AB8EEC00ADA
:103CE00020EE080A84ED010AFCF712FBC11700EB75
:103CF00091516FF30901401A00EE100AB8EEC00AA4
:103D000020EE080A84ED020AFCF702FB032590FB73
:103D1000F5F105FB11006062FCF7FAFA90FBF5F192
:103D200005FB1100A0622046BDEC028BBDE870408F
:103D3000FEF7D4B92C000020D8030020CDCCCC3D18
:103D400010B5FEF7ABFF02F04FF9012803D0BDE834
:103D5000104001F0B9BE10BD30B597B030216846B3
:103D6000FCF733FD14210CA8FCF72FFD00241E489E
:103D70001194129413941494016841F080510160DD
:103D8000006800F0805015901848016841F48041A7
:103D900001600068022500F4804015900120009029
:103DA000000401908001CDE9065006200890A8206B
:103DB000CDE9090507200B906846FFF791F90F2020
:103DC000CDE90C054FF4A050CDE90E40E80210906B
:103DD00005210CA8FFF79AF805481490119511A831
:103DE000FEF7F6FF17B030BD4038024000700040CB
:103DF00000031E001048016841F4700101600F4883
:103E0000016841F0010101600C4A00210832116093
:103E100002680B4B1A400260031D0A4A1A600268CE
:103E200022F48022026005480C30016002495806E5
:103E3000803908607047000088ED00E000380240DB
:103E4000FFFFF6FE103000240148FFF7EABA000039
:103E5000D80500207CB501F0B3FB29480025CDE949
:103E600000502B46802227A12C4802F091F82448CC
:103E70000023001FCDE90050642229A12C4802F044
:103E800087F82C48012300901A4619462AA002F010
:103E90000DFA1B4C083CE06002F0B4F802460095B5
:103EA00000230121E06802F057FA2748009002231E
:103EB00001220A2120A002F0F9F9206102F0A2F803
:103EC0000246009500230121206902F045FA1F48AF
:103ED000009003230122642117A002F0E7F960613A
:103EE00002F090F80246009500230121606902F07B
:103EF00033FA206801F05CFCBDE87C4001F080BB37
:103F000050000020765461736B52656D6F74654389
:103F100074726C546872656164000000513F00085F
:103F2000765461736B546573745468726561640090
:103F30005D3F0008A13B00084175746F52656C6FCE
:103F4000616454696D657200193C0008853C000885
:103F500000F0D4FC642001F005FCF9E74FF47A741A
:103F600000F0C4FC204601F0FDFBF9E72DE9F0412B
:103F7000044600680169E26821F44051114301617F
:103F8000A1682069E2690143606910430143206828
:103F9000C26849F20C639A430A43C26020684169CF
:103FA000A26921F4407111434161E0696425B0F5D3
:103FB000004F974A974920684FF032083FD0884217
:103FC00001D090427CD1FFF749F800EBC00101EB32
:103FD000001061688900B0FBF1F6FFF73FF800EBD5
:103FE000C00101EB001061688900B0FBF1F0B0FB8B
:103FF000F5F06FF01801484306EB800108EB011063
:10400000B0FBF5F000F0F006FFF728F800EBC00178
:1040100001EB001061688900B0FBF1F0B0FBF5F036
:1040200006EB0016FFF71AF800EBC00101EB0010D9
:1040300061688900B0FBF1F7FFF710F8D2E0884221
:1040400001D090423DD1FFF709F800EBC00101EB30
:10405000001061684900B0FBF1F0B0FBF5F006011B
:10406000FEF7FCFF00EBC00101EB001061684900A6
:10407000B0FBF1F7FEF7F2FF00EBC00101EB00101F
:1040800061684900B0FBF1F0B0FBF5F06FF018018A
:10409000484307EB800108EBC100B0FBF5F000F0EE
:1040A000F80006EB4006FEF7D9FF00EBC00101EB7C
:1040B000001061684900B0FBF1F7FEF7CFFF3CE06C
:1040C00055E0FEF7BBFF00EBC00101EB001061689B
:1040D0004900B0FBF1F0B0FBF5F00601FEF7AEFFD2
:1040E00000EBC00101EB001061684900B0FBF1F783
:1040F000FEF7A4FF00EBC00101EB0010616849006E
:10410000B0FBF1F0B0FBF5F06FF01801484307EB9E
:10411000800108EBC100B0FBF5F000F0F80006EB01
:104120004006FEF78BFF00EBC00101EB0010616859
:104130004900B0FBF1F7FEF781FF00EBC00101EB96
:10414000001061684900B0FBF1F0B0FBF5F06FF0D2
:104150001801484307EB800108EBC100B0FBF5F004
:1041600000F00700216830448860BDE8F081FEF768
:1041700065FF00EBC00101EB001061688900B0FB36
:10418000F1F6FEF75BFF00EBC00101EB0010616888
:104190008900B0FBF1F0B0FBF5F06FF01801484377
:1041A00006EB800108EB0110B0FBF5F000F0F00623
:1041B000FEF744FF00EBC00101EB001061688900CD
:1041C000B0FBF1F0B0FBF5F006EB0016FEF736FFA2
:1041D00000EBC00101EB001061688900B0FBF1F752
:1041E000FEF72CFF00EBC00101EB001061688900B5
:1041F000B0FBF1F0B0FBF5F06FF01801484307EBAE
:10420000800108EB0110B0FBF5F000F00F00A9E70A
:1042100000140140001001402DE9F0411E461746F0
:1042200088460446069D1CE0681C1AD025B1FEF79E
:104230002FFD801BA84214D92068C16821F4D071D9
:10424000C1602068416921F001014161202084F8AA
:10425000390084F83A00002084F838000320BDE8D3
:10426000F0812068016838EA010004D00020B842DB
:10427000DAD00020F3E70120F9E7000038B52F4835
:1042800000680168890603D501684068009038BD60
:104290002B490968C906FAD501684068274B009088
:1042A000403318680168274C0903016803F1600274
:1042B00021F0010101601868416819D4C1F1310190
:1042C00089B22180312545601868056845F40025CC
:1042D00005601868036843F001030360162922D1C2
:1042E00092F821000A281ED102F59471104618E0B8
:1042F000C1F1240189B22180242545601868056830
:1043000025F4002505601868036843F00103036085
:10431000162908D192F883000A2804D10A49A1F18C
:10432000C600FDF7B3FE228801B00748BDE8304063
:10433000312306A16438FCF79DB800007401002009
:1043400000100140000000203C0300202564202CC8
:104350002025640D0A000000234818B40068016895
:10436000890604D501684068009018BC70471F4951
:104370000968C906F9D5016840681D4A00901068AF
:1043800001681C4C090301684FF0240321F001016E
:10439000016011684868C0F1240080B220804B6041
:1043A0000FD411680B6843F400230B6011680A688E
:1043B00042F001020A601228D7D10F4901F116001C
:1043C0000EE00E498B6A23F400238B6211680A68A1
:1043D00042F001020A601228C7D1074901F13A00F0
:1043E00018BC01F04DB80000D40000200048004087
:1043F0001401002044000020CC080020006002408E
:10440000FEE70907090E002804DB00F1E02080F830
:104410000014704700F00F0000F1E02080F8141D38
:10442000704700000000000030B52DED048B81B016
:10443000B0EE408AF0EE608A6A4651EC180B00F04C
:10444000D7F900989FED329B7E300090002821DC48
:1044500053EC192B51EC180B02F01EF81AD0002166
:1044600040F608004FF00000044651EC180B01F034
:10447000CDFF08EE100A40F6080004EA00014FF0F4
:104480000000B5EEC08AF1EE10FA04BF0220FCF77E
:10449000A4FF2DE00098FF2830DB002108464FF0F4
:1044A000000000F4400553EC192B51EC180B02F0FE
:1044B00069F98CBF002401240220FCF78EFF9FEDD8
:1044C000168A4DB1002C0CBF4FF400004FF4800051
:1044D000A84218BF9FED118A042108464FF0000042
:1044E000002C01BFB1EE480A01B0BDEC048B30BD19
:1044F000B0EE480A01B0BDEC048B30BD51EC180B96
:1045000001F084FF01B000EE100ABDEC048B30BD59
:1045100000000000000000000000807FFFFF7F7FA0
:1045200030B540F2FF742DED048BF0EE608A18EE8A
:10453000901A85B0B0EE408A9FED2B9B05468DED1D
:10454000008B34EA115147D053EC192B51EC180B66
:1045500001F0A2FF40D02A4651EC180B02F087F977
:1045600041EC180B18EE900A8DED008B34EA1050D8
:104570001CD053EC192B51EC180B01F08DFF2BD1F3
:104580000220FCF72AFF00F043F810EE901A18EE14
:10459000900A8DED020B8DED008B61F31E000390F0
:1045A0009DED020B05B0BDEC048B30BD0220FCF785
:1045B00014FF00F01DF810EE901A18EE900A8DED21
:1045C000020B8DED008B61F31E0003909DED020B3D
:1045D00005B0BDEC048B30BD05B0B0EE480AF0EE7E
:1045E000680ABDEC048B30BD000000000000000034
:1045F0009FED050B10B553EC102B51EC100B01F097
:10460000C3FF41EC100B10BD000000000000007063
:104610009FED050B10B553EC102B51EC100B01F076
:10462000B3FF41EC100B10BD0000000000000010B3
:1046300010B5044691ED000BFFF7F6FE84ED000A7D
:1046400010BD10B5044690ED000B0846FFF768FF5B
:1046500084ED000B10BD30380A2801D201207047CC
:1046600000207047D0ED000AF4EEC00AF1EE10FA17
:1046700001DD80ED000AD0ED000AB1EE400AF4EE53
:10468000C00AF1EE10FA01D280ED000A7047000076
:1046900000B58BB000200121CDE906010891009002
:1046A0000190029003900590049069460E48FDF732
:1046B00041FE0D48FEF763F902210B48FDF7C4FDEA
:1046C0000E2009900590084869462830FDF732FE13
:1046D00005482830FEF753F9034802212830FDF73A
:1046E000B3FD0BB000BD0000080400202DE9F0412F
:1046F0001A481949032501600024C0E9015400F15A
:104700000C014FF410264FF4001781E8D000047616
:1047100044768476C47604774477FEF704F808B1CB
:10472000FDF791FD0D480E4928300160C0E90154A4
:1047300000F10C0181E8D000047644768476C476DA
:1047400004774477FDF7EFFF08B1FDF77CFDBDE886
:10475000F041FFF79DBF0000006400400804002006
:104760000068004010B542F210732DED028BF2EE9E
:104770000E0A9FED0E8AB1EE080A5A00B0EE481AF2
:1047800004210B48FFF7A6F9F0EE480ABDEC028BB6
:104790006423BDE81040B7EE001AB2EE040A4FF4ED
:1047A000967203210348FFF795B90000000000004E
:1047B00018060020840600201CB507490020CDE91A
:1047C00000010346642205A1084801F0E1FBBDE8B1
:1047D0001C4001F085B80000480000207654617349
:1047E0006B496E697454687265616400553E0008D7
:1047F00010B582B01446CDE900010023009A236071
:10480000194B21F0004098422ADA024328D0B0F533
:10481000801FA8BF226810DA9FED150B53EC102BF8
:104820009DED000B51EC100B01F0AEFECDE9000147
:104830006FF0350221F0004022600F4B6FF31E51E4
:1048400003EB20501044206041F0FF5040F0005036
:1048500001909DED000B00BF02B051EC100B10BD9C
:104860009DED000BF8E700000000F07F0000000065
:10487000000000000000504302FCFFFF00487047AA
:104880001805002010B586B014216846FBF79DFF7F
:1048900010480021026842F01002026000680E4CCD
:1048A00000F0100005904FF4206000900120CDE949
:1048B0000201019069462046FEF7FEF801225102EE
:1048C0002046FEF7E0F90122D1022046FEF7DBF98F
:1048D00006B010BD30380240001002404FF40071A5
:1048E0000148FEF7C9B90000001002404FF4806192
:1048F0000148FEF7C1B90000001C02404FF40061FE
:104900000148FEF7B9B90000001C024010B586B09E
:1049100014216846FBF759FF13480021026842F052
:10492000800202600068114C00F0800005904FF496
:10493000E05000900120CDE9020101906946204637
:10494000FEF7BAF8012291022046FEF79CF90122F7
:10495000D1022046FEF797F9012211032046FEF707
:1049600092F906B010BD000030380240001C024031
:10497000FEF79CF9FFF7F0F9FFF752F8FFF72AF876
:10498000FFF786F800F074FDFFF7B0FEFFF77AFF3F
:10499000FFF7BCFFFFF7E6FEFFF7F4F8FFF70CFFA9
:1049A000FEE700009FED180A9FED182A80ED0F0A20
:1049B000D0ED020ADFED161AC0ED030A91ED061ADA
:1049C000B8EEC11A21EE021A21EE211A80ED021A68
:1049D00071EE600AD0ED071AC0ED081A20EE800AC9
:1049E000DFED0C0A60EE200A80EE820ADFED0A0A93
:1049F00080ED070A20EE200ADFED080A01EEA00A8A
:104A000080ED060A704700000000FA430000B4433E
:104A10000004003900007042CDCCCC3E9A99193F79
:104A200010B58389C3810A8852BA82814C88D31A0F
:104A300064BA04808C88B3F5805F64BA0481897994
:104A40008172416901DD491E03E013F5805F01DADF
:104A5000491C416102EB4131028A891A816110BD12
:104A600000B530EEC01A80ED080AC0ED050A80EDF1
:104A70000B1AD0ED141A01469FED642A30EEC00ADD
:104A8000F5EEC01AB1EE400AF1EE10FA0ED0B5EE16
:104A9000C01AF1EE10FA02DDF0EE410A01E0F0EE8C
:104AA000400AF4EEE10AF1EE10FA12DCD1ED150A3B
:104AB000F5EEC00AF1EE10FA0ED0B5EEC01AF1EE26
:104AC00010FA01DDB0EE410AB4EEE00AF1EE10FAA0
:104AD00002D2B0EE420A00BD8A6D01F13400032A11
:104AE00002D0042A33D070E091ED000A20EE010AD2
:104AF00081ED0C0A91ED0D0AD1ED010A00EE810A5B
:104B000081ED0D0A91ED0A0AD1ED020A31EE400A5B
:104B100020EE200A81ED0E0A91ED180AFFF7A2FDA2
:104B200091ED0C0AD1ED0D0A01F13C0030EE200AA6
:104B3000D1ED0E0A30EE200A81ED0F0A91ED170A31
:104B4000FFF790FD91ED0F0A81ED100A3DE091ED28
:104B50000A0AD1ED001A71EE400A60EEA10AC1ED19
:104B60000C0AD1ED010A60EE810AC1ED0D0AF0EEEA
:104B7000000A00EE601A91ED090AD1ED020A31EE49
:104B8000000A20EE200A81ED0E0A91ED180AFFF7C7
:104B900069FD91ED0C0AD1ED0D0A01F1480030EEEE
:104BA000200AD1ED0E0A30EE200A81ED110AD1ED76
:104BB000130A30EE800A81ED120A91ED170AFFF711
:104BC00051FD91ED120A81ED130A91ED0A0A81ED72
:104BD000090A91ED0B0A81ED0A0A91ED070A81EDB0
:104BE000060A91ED080A81ED070A91ED040A81EDAC
:104BF000030A91ED050A81ED040A886D032802D0AD
:104C000091ED120A00BD91ED0F0A00BD00000000F9
:104C100001EE903AF8EE611AC0ED181A01EE902AF2
:104C2000F8EE611AC0ED171A816580EC030A70472F
:104C300080EC030A704700002DE9F041184E0F4642
:104C4000044675693068001D00F074FC38B930689E
:104C500090F82C1001208840B1698143B161601C3B
:104C600007D137B13168BDE8F0410E48091D00F0A9
:104C70009BBC30682C44AC424460316805D2B068BB
:104C8000BDE8F041091D00F077BC7068091D00F017
:104C900073FC306B844200D23463BDE8F0810000C5
:104CA00060000020EC0A00202DE9F041054600F0EC
:104CB00087FC2D4E3069401C306130682B4F10B19D
:104CC000F06930B32BE035603069012827D100242A
:104CD00004EB840007EB800000F040FC641C102C07
:104CE000F6D3234800F03AFC2148143000F036FC9B
:104CF0001F48283000F032FC1D483C3000F02EFCEC
:104D00001B48503000F02AFC194870601430B06025
:104D100005E03068E96AC06A884200D83560F06A08
:104D20000121401CF062E86AB26981401143B1611F
:104D300000EB800007EB8000291D00F035FC00F03F
:104D40005FFCF06900280CD03068E96AC06A8842CC
:104D500007D208494FF080500860BFF34F8FBFF370
:104D60006F8FBDE8F0810000600000205C0900202A
:104D70009C0A002004ED00E010B500F021FC0E4C70
:104D8000A068A0B90D4800F0E9FB0C48143000F011
:104D9000E5FB0A4820601430606000220C210A20E4
:104DA00000F0A8FEA06010B105A100F0A7FCBDE8CE
:104DB000104000F025BC00009C000020000B0020EB
:104DC000546D72510000000030B4026C0B46002A92
:104DD0000BD0C1681144C1608468A14201D301684D
:104DE000C16030BC1846FBF7ABBC30BC70472DE946
:104DF000F041856B174604460026026C82B1C7B1AC
:104E0000E068FBF79DFCE168206C091AE16022680C
:104E1000914202D2A168081AE060022F16D017E072
:104E20002068A8B9A06801F057F906460020A060E4
:104E30000EE06068FBF784FC216C606808446060E9
:104E4000A168884204D32068606001E005B16D1E4E
:104E50006D1CA5633046BDE8F08110B50446006BBB
:104E600000F0E2FB2046BDE8104000F0DDBB000092
:104E70000F4842F22831420705D0C01D0C4A20F0ED
:104E80000700821A891A0B4A00230144C2E9000371
:104E90000839103A21F0070111604B600B600B1AC2
:104EA000C0E9001393604FF000405360D06070473A
:104EB000280B0020C0000020134E144DA6F5BE772D
:104EC0004FF08058DFF8489011E000F079FBF0686F
:104ED000C468201D00F02EFB2869401E2861E86888
:104EE000401EE86000F08CFB2046FFF7B6FFE86844
:104EF0000028EAD138680128F9D9C9F80080BFF341
:104F00004F8FBFF36F8FF2E7D80A002060000020B8
:104F100004ED00E02DE9F0479A46DDE90984814679
:104F20006FF00303206B03EB82021044089D20F016
:104F30000706700707D0102080F31188BFF34F8F4A
:104F4000BFF36F8FFEE7002761B1002023180A5CD2
:104F500083F834200A5C12B1401C1028F6D384F880
:104F6000437001E084F83470102D00D30F25E56202
:104F7000C4E91157201D00F0FCFA04F1180000F0FC
:104F8000F8FA2461C5F110006462A061E76484F856
:104F9000507052464946304600F054FA2060B8F14D
:104FA000000F01D0C8F80040BDE8F08730B51149C6
:104FB00000E011460A688242FBD34B685C188442C9
:104FC00003D1406818444860084643681C1894425E
:104FD00009D1084C103C2468A24209D052681A44F6
:104FE00042600A6812680260814200D0086030BDE9
:104FF0000460F9E7C000002070B5002441600B4D4B
:105000000061914206D8D11A8269914206D2011DEF
:10501000686807E09A4203D2994201D3012403E071
:10502000011D286800F0A8FA204670BD9C000020F1
:1050300010B5044600F0C4FAA06B20B1002400F0C3
:10504000DFFA204610BD0124F9E7000030B585B035
:10505000394D67E00198002864DB039C606910B15A
:10506000201D00F067FA04A800F0D8F80246019865
:105070000A2857D2DFE800F00505052D334A05055B
:105080002D3394F8240040F0010084F824000298A5
:10509000A169034601442046FFF7AEFF68B3216AC9
:1050A0002046884794F8240040073BD50020009014
:1050B0000298A169002342181946204601F04CF9D4
:1050C000D8B9102080F31188BFF34F8FBFF36F8FD3
:1050D000FEE714F8240F20F00100207022E094F87D
:1050E000240040F0010084F824000298A06128B157
:1050F000811813462046FFF77FFF13E0102080F34E
:105100001188BFF34F8FBFF36F8FFEE794F8240031
:10511000810703D4204600F087FA03E020F0010065
:1051200084F82400002201A9A86800F05BFE002892
:1051300090D105B030BD00009C0000202DE9FC415D
:105140000F46054600F004FC01A800F067F804468D
:10515000019818B101F048F8BDE8FC81254EAFB1C7
:1051600070680068D0B30027291B3A46B06800F089
:10517000D7FA01F039F80028EED11F494FF08050DE
:105180000860BFF34F8FBFF36F8FE5E7A542EBD801
:1051900001F02AF830682746C068C468201D00F076
:1051A000C9F994F82400410719D5A0692B46411983
:1051B0003A462046FFF720FFA8B1002003460146EB
:1051C00000902A46204601F0C7F860B9102080F30D
:1051D0001188BFF34F8FBFF36F8FFEE707E020F01A
:1051E000010084F82400216A20468847B4E701279B
:1051F000BAE700009C00002004ED00E0064841688A
:10520000096829B14168C968C9684968016370477C
:105210004FF0FF31FAE700006000002070B505464E
:1052200000F0F0FE064E04463069844203D200F0DE
:1052300009F8012000E0002028602046346170BD9C
:105240009C000020F8B5194E20E0C068C4680568CD
:10525000201D00F06FF9216A2046884794F8240049
:10526000400713D5A0692844A84206D9246160608C
:10527000211D306800F080F908E000200346014657
:1052800000902A46204601F067F838B1306801687E
:105290000029DAD17168C6E90010F8BD102080F34A
:1052A0001188BFF34F8FBFF36F8FFEE79C00002084
:1052B00008484068401C4FF0100080F3118804D06B
:1052C000BFF34F8FBFF36F8FFEE7BFF34F8FBFF377
:1052D0006F8FFEE7C8000020084C2068016839B1D4
:1052E000002139B10020FFF729FFFFF7AFFEF4E7F7
:1052F0000121F6E7C0680068F5E700009C00002087
:105300002DE9F041044600F05BF994F9455004F1B1
:10531000240609E0606A48B1304600F029FF08B170
:1053200000F0A4FA6D1E6DB2002DF3DC4FF0FF36D5
:1053300084F8456000F064F900F042F994F94450B3
:1053400004F1100709E0206948B1384600F010FF69
:1053500008B100F08BFA6D1E6DB2002DF3DC84F8FD
:105360004460BDE8F04100F04BB900002DE9F04188
:105370000546002600F0ECFA314F386808B9FFF70F
:1053800077FDF86805424BD1C5B3083568070ED0E4
:1053900005F00700C0F108000544680707D0102099
:1053A00080F31188BFF34F8FBFF36F8FFEE72DB3EC
:1053B0007868854234D8224910310846046801E0F3
:1053C000214604466068A84202D220680028F7D12E
:1053D0003868844224D00E68206808606068083607
:1053E000411B10290FD96019420708D0102080F303
:1053F0001188BFF34F8FBFF36F8FFEE710E041605E
:105400006560FFF7D3FD61687868401A7860BA6814
:10541000904200D2B860F86801430020C4E900015E
:1054200000F0E2FE700707D0102080F31188BFF370
:105430004F8FBFF36F8FFEE73046BDE8F08100006D
:10544000B000002010B5031F4FF080741C601B1FBC
:1054500021F001011960191F044B0B6014390A6017
:10546000091F6FF0020244380A6010BDB1520008F3
:1054700002492422A1F12400FEF738BB06090020CE
:10548000F0B5002855D0002953D00278437842EA7D
:105490000322C2F30A030B8042788478D20842EADE
:1054A0004412C2F30A024A808478C578A40944EA07
:1054B0008504057944EA8524C4F30A048C800579BF
:1054C00046796D0845EAC615C5F30A05CD804679CB
:1054D000C6F301168E724679B609CE728679C779FF
:1054E00046EA07268E81067A477A46EA0726CE8163
:1054F000867AC77A46EA07260E82067B8E74467B3A
:10550000CE74867BC77B46EA07268E82067C407C6B
:10551000A3F580630B80A2F580624A80A4F58064C5
:1055200046EA00208C80A5F58065CD80A0F58060DE
:105530000881F0BDD0E9013201699A60D0E9012308
:105540005A604A68824201D182684A600022026140
:105550000868401E086008687047FEE700F108010F
:105560004FF0FF32C0E90112C1600161002101600A
:10557000704700210161704730B50C68621C02D091
:1055800000F1080202E0026904E01A4653681D684F
:10559000A542FAD953684B6099608A6051600861EE
:1055A0000168491C016030BD42684A6093688B60A5
:1055B00093685960916008610168491C01607047F7
:1055C000102080F31188BFF34F8FBFF36F8F0A490C
:1055D0004868401C486001280CD10848006810F059
:1055E000FF0F07D0102080F31188BFF34F8FBFF358
:1055F0006F8FFEE770470000C800002004ED00E058
:105600000849486828B1401E486001D180F31188DC
:105610007047102080F31188BFF34F8FBFF36F8F57
:10562000FEE70000C800002070B5002827D0144D08
:10563000A0F108046068E968084207D1102080F3EF
:105640001188BFF34F8FBFF36F8FFEE722683AB127
:10565000102080F31188BFF34F8FBFF36F8FFEE7E9
:105660008843606000F074F96068696808446860A5
:105670002046FFF79BFCBDE8704000F0B5BD70BD53
:10568000B00000204FF0E020002101618161054958
:105690004FF47A720968B1FBF2F1491E41610721AA
:1056A000016170472800002010B5FAF72DFE11495E
:1056B00010280ED300F1E02090F8F0030A78904211
:1056C00007D2102080F31188BFF34F8FBFF36F8F85
:1056D000FEE709480068896800F4E060884207D95D
:1056E000102080F31188BFF34F8FBFF36F8FFEE759
:1056F00010BD0000C80000200CED00E010B5074B05
:10570000002253F832401CB1521C062AF9D310BDB6
:1057100043F8321003EBC201486010BD2C09002091
:1057200070B515460E460446FFF74AFF94F944103B
:105730000020491C01D184F8440094F94510491C0B
:1057400001D184F84500FFF75BFFA06B28B92A461A
:10575000314604F1240000F0A7F82046BDE870406F
:10576000FFF7CEBD10B5020014D00F48806B38B1E2
:10577000102080F31188BFF34F8FBFF36F8FFEE7C8
:1057800000F0E6F800211046FFF756FA00F02CFD75
:10579000002807D105494FF080500860BFF34F8FB4
:1057A000BFF36F8F10BD00006000002004ED00E02B
:1057B00070B50446FFF704FF244D04B92C68201D82
:1057C000FFF7B8FE58B9E06A214A00EB800152F8B1
:1057D000211021B901218140A8698843A861A06AEC
:1057E00018B104F11800FFF7A5FEE86A401CE86252
:1057F0002868844207D1211D1648FFF7D5FEE868C6
:10580000401CE86007E02869401E28612046FFF739
:1058100024FBFFF7F3FCFFF7F3FEE869002814D040
:105820002868844211D1A86B38B1102080F3118808
:10583000BFF34F8FBFF36F8FFEE707494FF08050E4
:105840000860BFF34F8FBFF36F8F70BD6000002003
:105850005C090020D80A002004ED00E002498A6AB1
:1058600002604969416070476000002001490120E1
:10587000486270476000002010B50C4650B10949DD
:1058800009681831FFF778FE2046BDE81040012175
:10589000FFF7D2B9102080F31188BFF34F8FBFF309
:1058A0006F8FFEE76000002070B514460D4668B1AA
:1058B0000A4909681831FFF777FE0CB14FF0FF3540
:1058C00021462846BDE87040FFF7B6B9102080F3A6
:1058D0001188BFF34F8FBFF36F8FFEE7600000208A
:1058E0001CB517480024CDE900402346802215A1AD
:1058F000164800F04DFB012803D100F009FD0128F6
:1059000009D0401C1AD1102080F31188BFF34F8FAB
:10591000BFF36F8FFEE7102080F31188BFF34F8F26
:10592000BFF36F8F06484FF0FF3134380163012118
:10593000C1614461BDE81C4000F04CB81CBD0000D2
:105940009400002049444C4500000000B94E000876
:105950000248816B491C8163704700006000002091
:1059600010B51A4CA06B10B10120606210BD002070
:105970006062206821680068096B884204D8216849
:1059800020683431FFF7E9FDA0691149B0FA80F0D1
:10599000C0F11F0000EB800051F820206AB101EB3C
:1059A000800000F10802416849684160914201D1DC
:1059B00049684160C868206010BD102080F31188DC
:1059C000BFF34F8FBFF36F8FFEE700006000002032
:1059D0005C0900201CB537480168374A914207D15D
:1059E000102080F31188BFF34F8FBFF36F8FFEE756
:1059F00000683149491E884207D1102080F3118880
:105A0000BFF34F8FBFF36F8FFEE72C4908780190EB
:105A1000FF20087008788DF800009DF800009DF8C0
:105A2000002000F0F000904207D0102080F3118891
:105A3000BFF34F8FBFF36F8FFEE79DF80000204B41
:105A400000F0100018700720986006E0401E986073
:105A50009DF8000040008DF800009DF80000000651
:105A60009868F3D4032807D0102080F31188BFF37F
:105A70004F8FBFF36F8FFEE74FF44070986001982F
:105A800008700C482030016841F470010160016821
:105A900041F070410160FFF7F5FD00205860FAF712
:105AA000FBFB0848016841F040410160FAF7E0FB68
:105AB00000201CBD00ED00E071C20F4100E400E0D9
:105AC000C800002034EF00E010B5102080F31188EA
:105AD000BFF34F8FBFF36F8F00F09AFA18B10449EC
