:020000040800F2
:1000000010100020850200089942000853410008A2
:100010009542000849200008594C000800000000E3
:10002000000000000000000000000000DD430008A8
:100030003722000800000000ED420008DF430008FE
:100040009F0200089F0200089F0200089F0200080C
:100050009F0200089F0200089F0200089F020008FC
:100060009F0200089F0200089F0200089F020008EC
:100070009F0200089F0200089F0200089F020008DC
:100080009F0200089F0200089F0200089F020008CC
:100090004D2000089F0200089F0200089F020008F0
:1000A0009F0200089F0200089F0200089F020008AC
:1000B000214500089F0200089F0200089F020008D7
:1000C0009F0200089F0200089F0200089F0200088C
:1000D0009F020008DD4900089F020008354B000818
:1000E0009F0200089F0200089F0200089F0200086C
:1000F0009F0200089F0200089F0200089F0200085C
:100100009F0200089F0200089F0200089F0200084B
:100110009F0200089F0200089F0200089F0200083B
:100120009F0200089F0200089F0200089F0200082B
:100130009F0200089F0200089F0200089F0200081B
:100140005D2000089F0200089F0200089F0200082F
:100150009F0200089F0200089F0200089F020008FB
:100160009F0200089F0200089F0200089F020008EB
:100170009F0200089F0200089F0200080000000084
:100180009F0200089F02000800F002F800F051F8FA
:100190000AA090E8000C82448344AAF10107DA45E2
:1001A00001D100F046F8AFF2090EBAE80F0013F0E3
:1001B000010F18BFFB1A43F0010318478C5A0000C7
:1001C000AC5A0000103A24BF78C878C1FAD8520758
:1001D00024BF30C830C144BF04680C6070470000C1
:1001E0000023002400250026103A28BF78C1FBD840
:1001F000520728BF30C148BF0B607047642900F028
:100200002181002070471FB505F038FC00F02FFA5F
:1002100000F00EFE04000020002105F027FA401C2B
:1002200060600020002105F00BFAE0601FBD10B5F2
:1002300010BD01F03FF81146FFF7E5FF04F0BCFFE9
:1002400001F09CFA03B4FFF7F2FF03BC01F0F4FAEB
:100250000B49D1F800C04A685CF8043B10681844A8
:1002600042F8040B8C4528BFA1F1DC0C8A4228BF60
:10027000A1F1DC02C1F800C04A6020F000407047E4
:10028000A40900200948804709480047FEE7FEE727
:10029000FEE7FEE7FEE7FEE7FEE7FEE7FEE7FEE736
:1002A00004480549054A064B70470000BD44000854
:1002B00089010008100A002010100020100C0020F6
:1002C000100C002053EA020C00F069802DE9F04B7D
:1002D0004FF00006002B1FBFB3FA83F503FA05F4B5
:1002E00024FA05F65E4012BF1643B2FA82F502FA0E
:1002F00005F4C5F120051EBF22FA05FC44EA0C04F2
:10030000203556EA044C4FEA144418BF641C4FF0E1
:1003100000084FF00009904271EB030C39D300291B
:1003200019BFB1FA81F701FA07F6B0FA80F700FABF
:1003300007F6C7F120071EBF20FA07FC46EA0C06A5
:100340002037B6FBF4FCA7EB0507103F07F01F0BA7
:10035000CBF120060CFA0BFB2CFA06F644BFB34691
:100360000026202FA4BF5E464FF0000B5BEA060C70
:1003700008BF4FF0010B19EB0B09ABFB027C48EBFC
:100380000608C01B06FB02CC0BFB03CC71EB0C0177
:10039000C1E70B46024641464846BDE8F08B13B51F
:1003A0004FF000004FF00001AFF30080BDE81C40AB
:1003B000704700000FB41CB5074B06AA7B44694682
:1003C0000090059800F05BFA0020694600F06AFA98
:1003D0001CBC5DF814FB0000E50400002DE9F041B1
:1003E0000E460446002020622046E168884730B36C
:1003F000252805D0D4E901219047206A401CF2E766
:10040000E168204600278847050018D0A5F1410083
:10041000192802D820354FF4006732462946204675
:100420002760FFF7EBFE40B1012804D0F61D26F04F
:1004300007060836D8E7361DD6E72846DAE7206AE9
:10044000BDE8F0812DE9F0410646002410687529C9
:10045000314616A510D0AFF30080002802DA4042E2
:1004600013A507E031688A0701D512A502E0490704
:1004700004D511A5012401E0AFF3008000210A2278
:1004800006F1240709E0B0FBF2FCB0FBF2F302FB3B
:100490001C00303078541846491C0028F3D12346FC
:1004A0002A463046BDE8F04100F08BB9000000005C
:1004B0002D0000002B000000200000000FB400B54C
:1004C0008DB010A9099000910B904FF0FF300A9069
:1004D00000200C90064878440690064878446A4606
:1004E00007900F9909A800F073FC0DB05DF814FB9C
:1004F000170900002F0900002DE9FF5F1D464FF08E
:10050000FF3B91464FF000085F46D5E90146A969D7
:1005100001987F1C8847296A824688470028F6D1BF
:10052000BAF1FF3F0CD0002E24F4C06419DD600640
:1005300014D5BAF12B0F09D0BAF12D0F0ED103E06B
:10054000584604B0BDE8F09F44F48064A96901985E
:100550007F1C8847761E8246002E02DDBAF1300FDE
:1005600003D0B9F1000F26D032E0A969761E0198B8
:100570007F1C44F400748847002E824605DDBAF1E2
:10058000780F06D0BAF1580F03D0B9F1000F10D090
:100590001EE0B9F1000F02D0B9F1100F18D1A9690E
:1005A000761E01987F1C24F4007488478246102030
:1005B00002E0082000E00A20814609E0A96908FB62
:1005C0000908761E01987F1C44F40074884782460F
:1005D000002E05DD4946504600F069F90028EDDAA5
:1005E000E96901988847A00502D46FF00100A8E7E7
:1005F000E00725D1600613D5600502D5C8F10000DB
:1006000000E0404629680A1D2A600968220501D5D4
:10061000087015E0220701D5088011E008600FE09E
:100620002868011D29600068210502D580F8008036
:1006300006E0210702D5A0F8008001E0C0F80080A4
:1006400038467EE70B4910B5A1F17C020A4CC2E99D
:100650003712372106E000EB104342F82130074BF8
:1006600000FB03400B1EA1F10101F4DC10BD0120D1
:10067000E8E7000044090020E119D666CD0D01002D
:10068000032A40F2308010F0030C00F0158011F8BE
:10069000013BBCF1020F624498BF11F801CB00F896
:1006A000013B38BF11F8013BA2F1040298BF00F8EA
:1006B00001CB38BF00F8013B11F0030300F02580A7
:1006C000083AC0F0088051F8043B083A51F804CBCE
:1006D000A0E80810F5E7121D5CBF51F8043B40F894
:1006E000043BAFF30080D20724BF11F8013B11F89F
:1006F00001CB48BF11F8012B24BF00F8013B00F8E3
:1007000001CB48BF00F8012B704710B5203AC0F06C
:100710000B80B1E81850203AA0E81850B1E8185002
:10072000A0E81850BFF4F5AF5FEA027C24BFB1E83F
:100730001850A0E8185044BF18C918C0BDE81040B0
:100740005FEA827C24BF51F8043B40F8043B08BFB9
:100750007047D20728BF31F8023B48BF11F8012B80
:1007600028BF20F8023B48BF00F8012B70474FF02C
:10077000000200B5134694469646203922BFA0E8F1
:100780000C50A0E80C50B1F12001BFF4F7AF0907FD
:1007900028BFA0E80C5048BF0CC05DF804EB8900EE
:1007A00028BF40F8042B08BF704748BF20F8022B31
:1007B00011F0804F18BF00F8012B70477047704749
:1007C00070472DE9F0470D4699469246044600F1E0
:1007D00024080168880604D5E06921F01001216031
:1007E00000E00120A84201DD471B00E00027A169CD
:1007F0007A1902EB0900081AA0612078C00602D419
:100800002046AFF30080002608E0D4E901211AF861
:1008100006009047206A401C761C20624E45F4DB9F
:100820002078C0060AD52046AFF3008006E0D4E960
:10083000012130209047206A401C2062381EA7F119
:100840000107F4DC07E0D4E9012118F8050090471E
:10085000206A401C2062281EA5F10105F3DC204619
:10086000AFF300802078000602D50220BDE8F087B3
:100870000120FBE701694A1C02610878704700B556
:100880008FB0CDE901310021059105497944CDE9C9
:10089000031011466846FFF7A1FD0FB000BD000030
:1008A000E5FFFFFF0A6802F8010B0A6070473A286B
:1008B00000D2303820F02002412A01D3A2F13700C3
:1008C000884201D34FF0FF30704700002DE9FF4F01
:1008D00006468BB00878FF2806D0491C2D2805D085
:1008E00000244FF0000908E000200CE00124F8E7A4
:1008F00009EB8903491C00EB43090878FF28F7D16D
:1009000014B1C9F100008146107800252C46AA4692
:1009100029462D2801D02B2804D1521C2D2813D074
:10092000002082468B461078FF280FD04FF0000C35
:100930000A21521CA5FB017804FB018105FB0C1167
:10094000C5194BEB0104EEE70120EAE70021084658
:100950004FF00000BAF1000F02D000EB8000400819
:10096000C0F38157012F01DD4FF0FF370E9955EA93
:10097000040009EB01080BD04FF0020918F5FA7FCB
:1009800016DA4FEACA70002F706008DD012007E018
:100990004FEACA70C6E900B00FB0BDE8F08F002082
:1009A000306000F049FAC0F800901821084616E0BF
:1009B000B8F5FA7F18DD002F02DAF748784401E035
:1009C000F6487844D0E90010C6E9001040EACA7041
:1009D000706000F031FAC0F80090142108460FB0A2
:1009E000BDE8F04F05F054B8002108464FF0000074
:1009F000B8F10001099002DAC7F1000200E03A46BE
:100A000001DAC8F1000106A800F0DEFB06AB93E8AE
:100A1000070003AB83E8070044F23E005BEA0401F1
:100A20000090584604D144F21E012C465D460091C8
:100A3000210C0904014306D10099240444EA154419
:100A40002D041039009104F07F41014306D1009933
:100A5000240244EA15642D020839009104F0704123
:100A6000014306D10099240144EA15742D01091FA0
:100A7000009104F04041014306D10099A40044EAEA
:100A80009574AD00891E009104F00041084304D123
:100A900000986D196441401E00904FF001033A46E2
:100AA0006846B8F1000FCDE9014503A902DD01F068
:100AB00056F901E001F029F9BAF1000F04460D469C
:100AC00001D084F00044002108464FF0000009994D
:100AD00040F2FF77484010F00C0F07D124F000409F
:100AE000284303D0C4F30A50B84212D100F0A4F94D
:100AF000C0F80090C4F30A50B8420AD1A84878441C
:100B0000D0E90010C6E9001004F00041084370600D
:100B100042E7C6E900543FE72DE9FF4F1F464FF07B
:100B2000000A4FF0FF38454691B0D7E90146CDF8AD
:100B30003CA000F07DF9C0680168405C1090B96984
:100B400012986D1C8847396A814688470028F6D17B
:100B5000B9F1FF3F0AD0002E24F4D06411DDB9F1C1
:100B60002B0F08D0B9F12D0F0BD102E0404615B084
:100B700013E744F48064B96912986D1C8847761EA7
:100B80008146600504A901D52D2000E02B20002E10
:100B900001F1010B0DF130088DF810003FDDB9F1C6
:100BA000690F08D0B9F1490F05D0B9F16E0F02D025
:100BB000B9F14E0F1CD13B4601A8009580E85002C8
:100BC000DDE912126FF0020004F0C9FFC11CCED1A2
:100BD0000EE0B96912986D1C884781461398761EFD
:100BE00044F4007405600F98401C002E0F9016DD31
:100BF000B9F1300FEDD0B9F1780F02D0B9F1580F3B
:100C00000DD10F9801280AD13B46CDE90054DDE90A
:100C10001212001F029604F0A0FFC11CA7D1109968
:100C200089453ED144F0800406E01399681CAAF17E
:100C3000010A44F400740860B9696D1C1298761EAC
:100C4000884730288146F0D02BE01099894505D19E
:100C5000200603D4761E44F0800418E0484604F0D1
:100C600032F908B3761E0DF123018B4544F400746C
:100C700008D2A9F130000BF8010B200607D5AAF124
:100C8000010003E0200602D40AF101008246A0051B
:100C900002D51399681C0860B96912986D1C8847C1
:100CA0008146002ED1DC53E0002E51DDB9F1650FF5
:100CB00002D0B9F1450F4BD1A00549D5B9696D1CDA
:100CC0001298761E24F440748847002E81460CDD6D
:100CD0002B2804D0B9F12D0F07D144F48074B969E1
:100CE00012986D1C8847761E8146E00501D52D219E
:100CF00000E02B2108F8011BCDF8008021E0761ED2
:100D00000DF13901884544F400740CD2A9F130008A
:100D100010F0FF0088F8000002D10099884509D939
:100D200008F1010806E0E00501D51E4801E042F2A5
:100D30000F708246B96912986D1C884781461398D6
:100D40000560002E04DD484604F0BDF80028D6D129
:100D5000F96912988847FF2053468BF8000088F8FD
:100D6000000000200A900B9004AA0CA90AA8FFF723
:100D7000ADFDA00502D46FF00100F8E614F0240FD9
:100D800012D0E0071CD13868DDE90A12031D3B6070
:100D90000068C0E9001213E0B0520000A252000047
:100DA00066510000F1D8FFFF0AA9684604F078F800
:100DB000E00705D13868009A011D396000680260BB
:100DC0002846D4E60268114413780160184670473B
:100DD000D160054979445161044979441162002187
:100DE0001161114600F036B8EDFFFFFF630000000F
:100DF000426842B1016811F8013B23B1521EC0E9BB
:100E00000012184670470121C160881E7047426871
:100E10005AB1C368016843B983688B4205D0491E43
:100E2000521CC0E90012002070474FF0FF3070479D
:100E300000487047CC09002000487047AC090020EA
:100E400010B5044600F05CFA0068005D00F0010097
:100E500010BD00002DE9F34F4FF0000A0C46564636
:100E60008DB001200C9001F10C000B9062690B9881
:100E700001219047051E2DD0252D2CD0216A8847B1
:100E8000C0B162690B9801219047216A8847002808
:100E9000F7D16269411E0B98904700E0761CA1696A
:100EA0000D988847216A88470028F7D1E1690D9895
:100EB0008847DBE7A1690D988847A842074601D11A
:100EC000761CD3E7E1690D9888477F1C02D1BAF1FF
:100ED000000F6FD06BE162690B9800273D463946E1
:100EE00090472A2804D162690B9801219047012577
:100EF000DFF8D08262690B9801219047A0F13001A0
:100F00000A290AD24745E5DC07EB870100EB4107D8
:100F1000303FDFD445F01005ECE7E90601D46FF06F
:100F200000476C280AD04C2814D0682815D06A28AD
:100F30000DD074281CD07A281AD01DE062690B9855
:100F4000012190476C2802D045F0040514E045F0DB
:100F500002050DE045F020050AE062690B980121C9
:100F60009047682802D045F0080505E045F4006583
:100F700062690B9801219047C4E9015765283DD06B
:100F800019DC58287AD00CDC452837D004DC252819
:100F900026D041289ED131E046282FD0472899D12C
:100FA0002CE05B2877D0612828D063287CD0642887
:100FB00023D15AE0F6E06F2848D008DC66281DD01F
:100FC00067281BD0692821D06E2816D127E0702809
:100FD00045D0732868D0752847D078280DD14DE0CA
:100FE000A1690D988847252805463FF469AFE16956
:100FF0000D9888476D1C3FF46AAFD8E00D992346E1
:101000006A466FF0010004F0A6FDC5E045F040001F
:1010100023464FF000026060A80736D43EE0E807A0
:101020007FF447AF2068011D21600068290501D5C4
:1010300006701BE7290701D5068017E7A90703D526
:10104000F117C0E9006111E706600FE745F04000C5
:1010500023464FF008026060A80716D41EE040F651
:101060000E0125EA0100606016E045F040002346CD
:101070004FF00A026060A80707D40FE045F0400077
:101080006060A80708D5234610220D996FF0010073
:10109000AFF3008080E007E0102223460D996FF047
:1010A0000100FFF729FA77E04FF0000963284F4667
:1010B000C8464B46CB4602D05B2806D038E0E8064F
:1010C00001D40120A060012732E06269D4F80CB09D
:1010D0000B98012190475E2807D14FF0010949463E
:1010E0006269D4F80CB00B989047216939B9002196
:1010F0000A4603AB43F82120491C0829FADBD8B380
:10110000216949B308F1010862690B9801219047F0
:101110005D28F4D1B9F1000F09D0002003A951F8DE
:101120002020D24341F82020401C0828F7DB03ABE5
:101130002069002820794FEA40701ED05B46224685
:10114000CDF80080CDE901970D9900286FF00100DE
:1011500020DAAFF300801FE0C11703AA00EBD161D2
:101160004B1121F01F0102EB8302411A1368012089
:10117000884003431360C7E719E00D992246002811
:101180006FF00100009702DAAFF3008004E0AFF3E4
:10119000008001E0AFF3008000280ADA401C06D18D
:1011A0000C9820B14FF0FF300FB0BDE8F08F5046E3
:1011B000FAE7E90701D10AF1010A064400200C9080
:1011C00054E60000CCCCCC0C2DE9F0478146164605
:1011D0008AB0354878440DC88DE80D00324878440F
:1011E000801C03AC0DC884E80D0041F69B30084418
:1011F000372190FBF1F290FBF1F5A5F1800501FBA1
:1012000012041B3C02D56442012000E00020DFF8FC
:1012100098A080460027FA44AAF1BE0A0EE0E00733
:101220000AD03246684607EB470101230AEB8101E9
:1012300000F080FD8DE8070064107F1C002CEED1CB
:10124000194F7F44AE3F19E0E80715D007EB0410B3
:101250000DF1180A90E80E008AE80E00C068F0420E
:1012600001D1981908903246012306A903A800F07D
:1012700061FD03AB83E807006D10641C002DE3D112
:101280004FF0010332466946B8F1000F03A802D0BF
:1012900000F026FD01E000F04DFDC9E90001C9F8AC
:1012A00008200AB0BDE8F087584A0000004870479F
:1012B000AC0900207546FFF7F9FFAE460500694608
:1012C000534620F00700854618B020B5FEF7E8FF2A
:1012D000BDE820404FF000064FF000074FF0000837
:1012E0004FF0000B21F00701AC46ACE8C009ACE8B8
:1012F000C009ACE8C009ACE8C0098D4670470000E1
:1013000010B5FFF795FD001D10BD00BF6143000043
:1013100010B5FFF791FD006810BD10B50446FFF74A
:101320008BFD046010BD00002DE9FF4F1F464FF0FC
:101330003C0987B04FF00042DDE9141001F10108CB
:10134000DDF858A002EA4050039000200590834643
:10135000054604460490B969461E08988847AAF1D4
:10136000010A0290BAF1000F3BDD02982E2815D039
:101370001021FFF79CFA00282EDB4FF0010B059996
:10138000014317D0B9F1000F0BDB4A46C11700F03B
:101390003FFA05430C43A9F1040905E0012004903C
:1013A0000BE008B145F0010501200590049820B933
:1013B000361D02E0049800B1361FB969089808F19B
:1013C00001088847BBF1000FAAF1010A0290C9D0B9
:1013D0000999C1F80080C5E70298702808D0502804
:1013E00006D0F96908988847BBF1000F14D04FE088
:1013F000002002900120BBF1000F049009D0B969D0
:10140000089808F101088847AAF10109B9F1000F0D
:1014100007DCF969089888476FF001000BB0BDE858
:10142000F08F2B2804D02D280CD14FF0FF300490E2
:10143000B969089808F101088847A9F10109B9F1CB
:10144000000FE6DD411CE4D00A21FFF730FA002846
:10145000DFDB029908F1010801EB810100EB41009B
:101460000290B969089888470A21FFF720FA099A7B
:10147000A9F10109B9F1000FC2F8008001DD0028CF
:10148000E7DAF969089888470499029800FB016631
:1014900055EA040004D004F04041090002D006E0FF
:1014A000039898E0A40044EA9574AD00B61E04F0D9
:1014B0000041080002D16D196441761E159810F0A4
:1014C000240F03D04FF00B095C4803E04FF02809CC
:1014D0006FF07D008246564507DAAAEB0601894483
:1014E000B9F1410F01DD4FF0410901200021A9F1BF
:1014F000010200F08DF9024628400B4621400843C6
:1015000001D0012100E00021501E029143F1FF3182
:1015100028402140084301D0012000E0002002992A
:10152000834651EA0B014FD0002108464FF00000DE
:10153000039900F4400039B100EB80004FF4400102
:1015400000EBD07001EA60008015012802DD4FF049
:10155000FF3000E013D0401C36D0029860B3BBF1DE
:10156000000F0CD14A460120002100F051F928401B
:101570002140084301D0012000E00020E0B101201B
:101580004A46002100F044F9034640190A466141E9
:101590002D1A8C4111D3B9F1400F09DD159810F0C7
:1015A000240F02D0AAF1340603E0AAF1170600E0E6
:1015B000761C00254FF0004406E05B1E42F1FF322E
:1015C00020EA030521EA0204CAF10100B04206DA6A
:1015D0001B49039808430190002000900EE0039AF5
:1015E000C4F3D321E80A0A43164940EA44500A43A7
:1015F0003146CDE90002684603F05BFC159810F017
:10160000240F0BD01598C00715D13868DDE90012FA
:10161000031D3B600068C0E900120CE002A86946A7
:1016200003F03EFC1598C00705D13868029A011DE9
:101630003960006802604046F0E6000002FCFFFFEF
:101640000000F07F0000F03F2DE9FF4F92461D465D
:1016500085B04FF00041DDE9124BDDE914727F1EC9
:1016600001EA4B50414940F0FF4940EA010800219E
:1016700022F020004928049102D04E2828D04CE0C6
:101680003BA0012607C88DE80700A9690698641CDD
:1016900088477F1E014606D41DF8060018B121F0C8
:1016A000200181420BD0E96906988847032E34D087
:1016B000082E32D06FF0010009B0BDE8F08F761C23
:1016C000032E01D0082EE0D1601CCAF80000DCE730
:1016D000A9690698641C88477F1E2AD420F0200040
:1016E000412826D1A9690698641C88477F1E20D40A
:1016F00020F020004E281CD1A9690698641C884758
:101700007F1E48F4002849F48009CAF8004001D43B
:10171000282806D0E969069888475FEACB7012D07E
:1017200022E0A9690698641C88477F1E01D400281E
:1017300003DAE96906988847BCE72928F1D1641CD7
:10174000CAF80040E9E71BF0240F07D02868049985
:10175000031D2B600068C0E9001805E02868021D21
:101760002A600068C0F800902046A5E70000F07FDE
:10177000494E46494E4954590000000010B50446F0
:10178000AFF300802046BDE81040FEF75BBD0000CF
:101790004FF0013C50F8042B51F8043B9A4221D100
:1017A000A2EB0C03934313EACC1317D150F8042B8C
:1017B00051F8043B9A4215D1A2EB0C03934313EA70
:1017C000CC130BD150F8042B51F8043B9A4209D1A9
:1017D000A2EB0C03934313EACC13DBD04FF00000D1
:1017E000704700BFD01A01BAB1FA81F101F01801B7
:1017F00022FA01F0CB40C1F12001DBB2C0B2C01A25
:101800002CFA01F3D11A914311EAC311E6D17047C2
:10181000B2F120030AD5C2F1200301FA02F120FA45
:1018200003F300FA02F041EA0301704700FA03F102
:101830004FF000007047000001491820ABBEFEE7E2
:1018400026000200704720F07F4C80EA030023F05E
:101850007F47ACEB070303F57C5300F0004003F136
:10186000FF032DE980494FEA154B09B44FEA1443B1
:1018700025EA0B4E24EA03480FF2042606EB132751
:1018800049083E785FEA320203FB0667C7F50007A6
:1018900007FB06F64FEA54374FEAD64606F1020632
:1018A00007FB066CCCF1005C4FEA1C472CEA074CA6
:1018B00007FB06F40CFB06F504EB15464FEA9616FB
:1018C00034BF00204FF000404FEAD13706FB07FC41
:1018D0004FEA1C4C0CFB0BF7D21B03FB0CF761EB24
:1018E00007010CFB0EF7B0EB074072EB17420CFB45
:1018F00008F734BFA2EB0742B2EB074261EB174196
:101900004FEA0C444FEA910706FB07FC4FEA1C4CD8
:101910000CFB0BF7B0EBC74072EB573203FB0CF735
:1019200034BFA2EBC742B2EBC74261EB57310CFBAD
:101930000EF7B0EBC70072EB57720CFB08F734BF21
:10194000A2EBC702B2EBC70261EB5771039F4FEAEC
:10195000816141EA921104EBCC044FEAD1374FEA9E
:10196000826206FB07FC42EA90124FEA80604FEA6F
:101970001C4C0CFB0BF7D21B03FB0CF761EB0701B4
:101980000CFB0EF7B0EB074072EB17420CFB08F7AD
:1019900034BFA2EB0742B2EB074261EB17414FEABB
:1019A0008C554FEA910704EB9C2406FB07FC4FEA99
:1019B0001C4C0CFB0BF7B0EBC74072EB573203FB30
:1019C0000CF734BFA2EBC742B2EBC74261EB573111
:1019D0000CFB0EF7B0EBC70072EB57720CFB08F76D
:1019E00034BFA2EBC702B2EBC70261EB577115EB34
:1019F0004C254FEA816141EA92114FEA82624FEA37
:101A0000D13742EA901206FB07FC44F100044FEA8A
:101A100080604FEA1C4C0CFB0BF7D21B03FB0CF74E
:101A200061EB07010CFB0EF7B0EB074072EB1742BE
:101A30000CFB08F734BFA2EB0742B2EB074261EBA5
:101A4000174115EB1C154FEA813141EA92414FEAEB
:101A5000823242EA90424FEA80304FEA0C7644F1FB
:101A6000000448EA03434EEA0B484FF0000EB2EB85
:101A7000080C71EB030724BF624639464EEB0E0E8D
:101A80004FF0000B0018524149414BEB0B0BB2EBEE
:101A9000080C71EB03077BF1000B24BF624639464B
:101AA0004EEB0E0E4FF0000B0018524149414BEB2C
:101AB0000B0BB2EB080C71EB03077BF1000B24BF9F
:101AC000624639464EEB0E0E51EA020718BF46F049
:101AD000010616EB0E7655F1000254F1000103D514
:101AE000BDE88901BDE80088BDE88901BDE800487E
:101AF000B619524141EB0101A3F101037047808007
:101B00007F7E7D7C7B7A7978777676757473727157
:101B100071706F6E6E6D6C6C6B6A6A69686867660F
:101B200066656464636362616160605F5F5E5E5DA1
:101B30005D5C5C5B5B5A5A59595858575756565515
:101B400055555454535352525251515050504F4F77
:101B50004F4E4E4D4D4D4C4C4C4B4B4B4A4A4A49C7
:101B6000494948484847474747464646454545440A
:101B700044444443434343424242424141410000C2
:101B800046EA0646A3F570534FEA164646EA425621
:101B90004FEAD22242EA415210B54FEAD121A3F1D5
:101BA000010300F02FF820F0004000F1020C00F0DB
:101BB000004701EB00501146BCF5006F40EA0700FA
:101BC00000D210BDBAF1000F0AD01CB503B44FF01B
:101BD00004004FF004014FF000000FBCBDE81040BE
:101BE0004FF00001BBF1010FB9BF04484FF0FF31C6
:101BF0000348002140EA070010BD00BFFFFFEF7F50
:101C00000000F07F002B9C4630D477002BD01CB511
:101C10004FEA370703B44FF010004FF01001BAF14C
:101C2000000F06D0BCF1000FDCBF40F0080040F010
:101C300008014FF000000FBCBDE810400BF1010B94
:101C4000BBF1010F08BF5FEA170722BF12F10102C3
:101C500011F101014FF0004143F1000300F0004099
:101C600043EA00007047F9D35708D0E746EA064632
:101C700013F1400F4FEA16461FDD13F1200FDFBFAF
:101C800016430A46002120335B42BED0C3F1200731
:101C900046EA064602FA07F74FEA164646EA0706FC
:101CA000C3F1200722FA03F201FA07F721FA03F140
:101CB0004FF0000342EA0702A7E746EA020646EAB7
:101CC00006464FEA164646EA0106BCBF46EA064605
:101CD000360C4FF000034FF000024FF0000194E784
:101CE0002DE9804C9A46934670B491E8380007C8B5
:101CF00031EA400C48BF34EA430C03D5FFF7A3FD9B
:101D0000FFF780FFF0BCBDE8008C2DE9804C9A46BF
:101D1000934670B491E8380007C831EA400C48BFD8
:101D200034EA430C03D5FFF78EFDFFF729FFF0BC23
:101D3000BDE8008C2DE9804C9A46934670B491E83A
:101D4000380007C810F0804F08BF13F0804F03D150
:101D500000F01AF8FFF756FFF0BCBDE8008C2DE943
:101D6000804C9A46934670B491E8380007C810F04A
:101D7000804F08BF13F0804F03D100F005F8FFF744
:101D8000FFFEF0BCBDE8008C20F07F4780EA030036
:101D900023F07F4C07EB0C03A3F57C5300F00040CD
:101DA000A3F1FE0392F0000F00F0B38095F0000F56
:101DB00000F077802DE901494FEA11404FEA1446BF
:101DC00021EA004800FB06FC24EA064708FB06F669
:101DD00007FB08F800FB07F718EB06484CEB164C1E
:101DE0004FEA124B18EB07484FEA15464CEB1740E9
:101DF00022EA0B4E0BFB06FC25EA06470EFB06F615
:101E000007FB0EFE0BFB07F71EEB064E4CEB164CCA
:101E10004FF000061EEB074E4CEB174B18EB0B0870
:101E200040F1000018EB0E0B58EB000840F10000E9
:101E30008F1A4FF000013CBFC943661B14BFB5EBBE
:101E4000040C00213CBFC943F61B4FEA17444EEA7D
:101E50008E0E27EA04454FEA1C4704FB07622CEA72
:101E6000074C05FB07F70CFB05F604FB0CFC16EB17
:101E7000074642EB174216EB0C4642EB1C421BEBAB
:101E8000060658EB0202414146EA9E0601D5BDE82E
:101E90000189B619524141EB0101A3F10103BDE8EB
:101EA00001894FEA14454FEA114724EA054621EA21
:101EB000074C05FB07F406FB07F70CFB06F105FBD7
:101EC0000CFC11EB074144EB17444FEA124711EBAE
:101ED0000C4144EB1C4422EA074C05FB07F206FBCD
:101EE00007F70CFB06F605FB0CFC16EB074642EB6E
:101EF000174216EB0C4642EB1C456A1854F10001E0
:101F000048BF7047B619524141EB0101A3F10103EB
:101F1000704795F0000F37D04FEA11424FEA14474F
:101F200021EA024624EA074C02FB07F106FB07F709
:101F30000CFB06F402FB0CFC14EB074441EB1741CD
:101F40004FEA154714EB0C4441EB1C4125EA074CC2
:101F500002FB07F506FB07F70CFB06F602FB0CFC81
:101F600016EB074645EB174516EB0C4645EB1C42B6
:101F7000121951F1000148BF7047B619524141EBA7
:101F80000101A3F1010370474FEA14454FEA1147DD
:101F900024EA054621EA074C05FB07F106FB07F793
:101FA0000CFB06F24FF0000605FB0CFC12EB07429F
:101FB00041EB174112EB0C4251EB1C4148BF7047FB
:101FC000921841EB0101A3F1010370477FB504466C
:101FD0000D46222221462846FEF752FB0748011FE4
:101FE0000A1F131FCDE90032CDE902101B1F0C3A66
:101FF00003A12046FEF762FA7FBD0000A003002087
:10200000423A2564202C202564202C2566202C258E
:1020100066202C2564202C2564200A0010B5044677
:10202000302221460648FEF770FB0A20044981F859
:1020300030000A233122034802F020F810BD0000CE
:1020400028030020DC00002000BFFEE710B5024896
:1020500000F005FB10BD0000A403002010B50248ED
:1020600000F0FDFA10BD0000CC030020F8B50746D3
:102070000C4615461E4640F2FF100D490860002030
:102080008860C86008200861380A0A4908704F70E3
:10209000200A8870CC70280A08714D71300A887146
:1020A000CE716B460A460249034800F0DBF8F8BDE2
:1020B0004405002008000020A403002010B5234B95
:1020C0001B685B6943F04003204C246863611F4B2D
:1020D0001B68DB6843F010031C4C2468E3601C4B56
:1020E0001B681B6823F00103194C2468236007E078
:1020F000174B1B681B6823F00103154C24682360F1
:10210000134B1B681B6803F00103002BF0D1114B2C
:102110000F4C2468A3600E4B1B68D8600C4B1B68E7
:1021200019610B4B1B685A60094B1B681B6843F411
:102130008023074C24682360054B1B681B6843F011
:102140000103034C2468236010BD0000DC00002064
:102150001C010020041001400146087810381823A3
:10216000B0FBF3F20848805CC865032A05D908680B
:102170006FF30900001D886503E008686FF309002C
:102180008865886D70470000925B0008014600205A
:102190008A6A8B69CBB932B1012A0DD0022A03D0E9
:1021A000032A10D10EE000BFCB6A03F08073B3F1B5
:1021B000807F00D1012007E0CB6AB3F1C07F00D15E
:1021C000012001E000E000BF34E08B69B3F5005F5F
:1021D0001AD132B1012A07D0022A03D0032A11D121
:1021E0000AE000BF01200EE0CB6A03F08073B3F178
:1021F000807F00D1012006E0CB6AB3F1C07F00D11F
:10220000012000E000BF15E032B1012A05D0022A0A
:1022100004D0032A0CD103E000BF00BF012008E076
:10222000CB6A03F08073B3F1807F00D1012000E01E
:1022300000BF00BF70477047704710B5024692F864
:102240002030012B01D0022B06D1106840690843D1
:1022500014686061002010BD506A40F48020506214
:102260000120F8E7F0B504460D461E4694F82070AC
:1022700020688368A86800B900E000BF012F01D082
:10228000022F7CD103F0806030B903F0006018B9F0
:1022900003F08050002873D0C3F30161022905D9EF
:1022A000606A40F4000060620120F0BD01208840B7
:1022B0003060A86860B9B5F800C0E86840EA4C5CD6
:1022C000206800F5C07000EB0110C0F800C00FE0FE
:1022D000D5E901C040EACC00D5F80CC040EA0C00BA
:1022E000D4F800C00CF5C07C0CEB011CCCF800004D
:1022F000D5F810C0206800F5C07000EB0110C0F8E0
:1023000004C0287D01280ED1206800F5C07000EBC4
:102310000110406840F4807C206800F5C07000EB3C
:102320000110C0F804C0D079000692F806C040EA57
:102330000C4092F805C040EA0C2C10794CEA000CD5
:10234000206800F5C07000EB0110C0F80CC0D07818
:10235000000692F802C040EA0C4092F801C040EA40
:102360000C2092F800C040EA0C00D4F800C00CF534
:10237000C07C0CEB011CCCF80800206801E016E0E2
:102380000FE000F5C07000EB0110006840F0010C98
:10239000206800F5C07000EB0110C0F800C00020FC
:1023A00083E7606A40F40010606201207DE7606AA4
:1023B00040F480206062012077E70000F0B5044619
:1023C0000A46216894F82050012D01D0022D7ED1BB
:1023D000424901F50071086840F001000860086892
:1023E00020F47C5008600868566A40EA06200860BD
:1023F000107D00F01F06012000FA06F3C86998431B
:10240000C861A1F50071D069C8B9D1F80C02984330
:10241000C1F80C02908880B2968940EA064601F520
:102420001070576940F83760108880B2168940EA0A
:10243000064601F51070576900EBC7004660D06989
:10244000012819D1D1F80C021843C1F80C02908868
:1024500080B2168840EA064601F51070576940F8C8
:102460003760908980B2168940EA064601F51070FF
:10247000576900EBC7004660906928B9D1F804029B
:102480009843C1F8040204E0D1F804021843C1F8EB
:102490000402106928B9D1F814029843C1F8140253
:1024A00004E0D1F814021843C1F81402106A01289C
:1024B00004D1D1F81C021843C1F81C02D1F8000263
:1024C00020F00100C1F800020020F0BDFFE7606AC3
:1024D00040F4802060620120F7E7000000640040C3
:1024E000704770B5044694F82050012D01D0022D9C
:1024F0007CD151B92068C06800F0030080B9606ADF
:1025000040F400106062012070BD2068006900F096
:10251000030028B9606A40F4001060620120F3E70C
:10252000206800F5D87000EB0110006800F004008E
:102530009060906840B9206800F5D87000EB0110F9
:102540000068400D106007E0206800F5D87000EBCF
:1025500001100068C0085060206800F5D87000EBDA
:102560000110006800F002004008D060206800F50B
:10257000D87000EB0110406800F00F001061206877
:1025800000F5D87000EB0110406800F47F40000AAD
:102590009061206800F5D87000EB01104068000CD5
:1025A0005061206800F5D87000EB01108068187049
:1025B000206800F5D87000EB0110806800F47F40BF
:1025C000000A5870206800F5D87000EB0110806890
:1025D00000F47F00000C9870206800F5D87000EBC4
:1025E00001108068000ED870206800E031E000F52E
:1025F000D87000EB0110C0681871206800F5D87021
:1026000000EB0110C06800F47F40000A5871206898
:1026100000F5D87000EB0110C06800F47F00000CDA
:102620009871206800F5D87000EB0110C068000EAA
:10263000D87131B92068C06840F020002668F06089
:1026400005E02068006940F0200026683061002025
:102650005AE7606A40F480206062012054E72DE967
:10266000F05F04460025206846692068D0F8049091
:10267000206887682068D0F80CA02068D0F810B0D7
:102680002068D0F8188006F00100002855D007F027
:102690000100C0B101202168886007F0020018B174
:1026A000204600F0D4FA0EE007F0040010B145F423
:1026B000006508E007F0080010B145F4805502E01D
:1026C000204600F0C3FA07F48070C8B14FF4807060
:1026D0002168886007F4007018B1204600F0B9FA4C
:1026E0000EE007F4806010B145F4005508E007F4EF
:1026F000006010B145F4804502E0204600F0A8FAE1
:1027000007F48030C8B14FF480302168886007F446
:10271000003018B1204600F09EFA0EE007F4802049
:1027200010B145F4004508E007F4002010B145F46D
:10273000803502E0204600F08DFA06F0080038B13E
:102740000AF0100020B145F4007510202168C8601F
:1027500006F0040040B10AF0080028B10820216802
:10276000C860204600F00CFA06F0020038B120687C
:10277000C06800F0030010B1204600F003FA06F034
:10278000400038B10BF0100020B145F480651020F6
:102790002168086106F0200040B10BF0080028B164
:1027A000082021680861204600F01EFA06F010009B
:1027B00038B12068006900F0030010B1204600F035
:1027C00014FA06F4003040B109F0100028B11020CE
:1027D00021684860204600F009FA06F4803040B1D4
:1027E00009F0080028B1082021684860204600F060
:1027F00033FA06F4004088B309F0040078B306F415
:10280000807020B108F0010008B145F0010506F420
:10281000007020B108F0020008B145F0020506F48E
:10282000806020B108F0040008B145F0040506F40A
:102830000060A0B108F0700088B108F07000402876
:1028400017D006DC10280BD020280CD0302819D146
:102850000CE0502810D0602814D110E01DE019E0E1
:1028600045F008050FE045F010050CE045F02005A7
:1028700009E045F0400506E045F0800503E045F439
:10288000807500E000BF00BF2068806920F0700004
:10289000216888610420216848602DB1606A28435E
:1028A00060622046FFF71CFEBDE8F09F70B504464D
:1028B0000CB9012070BD94F8200010B9204600F03A
:1028C000AFF82068006820F002002168086000F07E
:1028D0004BFB05460DE000F047FB401B0A2808D9DA
:1028E000606A40F400306062052084F82000012016
:1028F000E0E72068406800F002000028EBD1206883
:10290000006840F001002168086000F02DFB0546DA
:102910000DE000F029FB401B0A2808D9606A40F44A
:1029200000306062052084F820000120C2E72068A2
:10293000406800F001000028EBD0207E012806D17D
:102940002068006840F080002168086005E0206889
:10295000006820F0800021680860607E012806D1B0
:102960002068006840F040002168086005E02068A9
:10297000006820F0400021680860A07E012806D190
:102980002068006840F020002168086005E02068A9
:10299000006820F0200021680860E07E012806D150
:1029A0002068006820F010002168086005E02068B9
:1029B000006840F0100021680860207F012806D1DF
:1029C0002068006840F008002168086005E0206881
:1029D000006820F0080021680860607F012806D1A7
:1029E0002068006840F004002168086005E0206865
:1029F000006820F0040021680860D4E9020108435F
:102A000021690843616908436168491E08432168D8
:102A1000C86100206062012084F82000002049E79E
:102A200010B586B00446142101A8FDF7A0FE4E495A
:102A30002068884241D14D480068401C4B490860DD
:102A40000846006801280FD100BF002000904848C8
:102A5000006840F00070464908600846006800F0D1
:102A60000070009000BF00BF00BF002000904048F1
:102A70001038006840F008003D49103908600846E9
:102A8000006800F00800009000BF00BF0320019024
:102A9000022002900020039003200490092005905A
:102AA00001A9344800F050F900220621142000F05A
:102AB000E5FA142000F0D2FA54E02F492068884249
:102AC00050D100BF002000902948006840F080608D
:102AD000274908600846006800F08060009000BF49
:102AE00000BF22480068401C204908600846006872
:102AF00001280FD100BF002000901D48006840F061
:102B000000701B4908600846006800F000700090E3
:102B100000BF00BF00BF00200090154810380068BB
:102B200040F002001249103908600846006800F0C1
:102B30000200009000BF00BF6020019002200290C0
:102B400000200390032004900920059001A90B4860
:102B500000F0FAF800220621402000F08FFA402011
:102B600000F07CFA06B010BD0064004004000020B4
:102B700040380240000C024000680040000402405F
:102B80007047000010B58AB0044601AB03AA0021CB
:102B90002046FFF7A6FC0398A0F2012008281AD2CD
:102BA000DFE800F00405060708090A0B00BF00BFB4
:102BB00000BF00BF00BF00BF00BF0398401E084910
:102BC0000870097801EB4101064A02EB011001A9E6
:102BD00002F05AFB00E000BF00BF0AB010BD0000C9
:102BE00018000020F403002070477047704770B54C
:102BF000044694F82000012822D1022084F8200005
:102C00002068006820F001002168086000F0ACF93D
:102C100005460DE000F0A8F9401B0A2808D9606AB3
:102C200040F400306062052084F82000012070BD6F
:102C30002068406800F001000028EBD16062F6E7F0
:102C4000606A40F4002060620120F0E7704770473E
:102C50007047704770477047704700002DE9F0419A
:102C60000446002500F080F9074614B90120BDE8AC
:102C7000F081606A00B100BF00BF002084F834001A
:102C800000BF022084F835002068006820F00100B1
:102C9000216808600AE000F067F9C01B052805D923
:102CA00020206065032084F83500E0E72068006894
:102CB00000F001000028EED1206805682148054099
:102CC000D4E901010843E1680843216908436169C7
:102CD0000843A1690843E1690843216A08430543A1
:102CE000606A042803D1D4E90B0108430543206836
:102CF00005602068456925F00705606A0543606A3C
:102D000004280DD1A06A0543E06A48B12046FFF7C8
:102D10003DFA28B140206065012084F83500A6E71F
:102D2000206845612046FFF717FA064694F85C10C4
:102D30003F208840B06000206065012084F83500A5
:102D4000002094E73F8010F0F8B502460B460025BE
:102D5000002400200021DCE0012606FA01F51E68AF
:102D600006EA0504AC4273D15E68022E02D05E68AA
:102D7000122E13D1CF0802F1200656F827004E0775
:102D8000F70E0F26BE40B0434F07FF0E1E69BE4030
:102D90003043CF0802F1200646F8270010684F00A4
:102DA0000326BE40B0431E7906F003064F00BE4026
:102DB000304310605E68012E08D05E68022E05D098
:102DC0005E68112E02D05E68122E13D190684F00FB
:102DD0000326BE40B0434F00DE68BE4030439060E3
:102DE000506801268E40B0431E79C6F300168E400F
:102DF00030435060D0684F000326BE40B0434F00C0
:102E00009E68BE403043D0605E6806F08056B6F1E2
:102E1000805F7DD100BF00260096404E366846F4A4
:102E200080463E4F3E603E46366806F48046009639
:102E300000BF00BF3A4E8F0856F827008E07370FA5
:102E40000F26BE40B043374EB24202D1002624E0E6
:102E50005EE0354EB24201D101261EE0334EB24251
:102E600001D1022619E0324EB24201D1032614E00C
:102E7000304EB24201D104260FE02F4EB24201D1B2
:102E800005260AE02D4EB24201D1062605E02C4E61
:102E9000B24201D1072600E008268F073F0FBE404F
:102EA00030431F4E8F0846F82700264E3068A04357
:102EB0005E6806F48036B6F5803F00D12043214E8F
:102EC0003060361D3068A0435E6806F40036B6F503
:102ED000003F00D120431B4E361D3060361D306848
:102EE000A0435E6806F48016B6F5801F00D120432B
:102EF000144E08363060361D3068A0435E6806F414
:102F00000016B6F5001F00D120430E4E0C3630607F
:102F1000491C1029FFF420AFF8BD000044380240DE
:102F2000083801400000024000040240000802404E
:102F3000000C024000100240001402400018024041
:102F4000001C0240003C014042690A408A4202D112
:102F50000A04826100E0816170470AB1816101E089
:102F60000B0483617047000001480068704700004F
:102F700028000020034800680349097808440149F3
:102F800008607047280000203000002010B50D4870
:102F9000006840F400700B4908600846006840F47F
:102FA000806008600846006840F480700860032074
:102FB00000F0A2F8002000F007F800F02BF8002045
:102FC00010BD0000003C024070B504460E48007879
:102FD0004FF47A71B1FBF0F00C490968B1FBF0F5E0
:102FE000284600F0CFFC08B1012070BD102C07D29C
:102FF00000222146501E00F041F80548046001E01F
:103000000120F2E70020F0E730000020340000202B
:103010002C00002008B500BF002000900E4800687A
:1030200040F480400C4908600846006800F4804085
:10303000009000BF00BF00BF00200090081F006884
:1030400040F08050091F08600846006800F080507A
:10305000009000BF00BF08BD44380240014608464A
:10306000002809DB00F01F0301229A4043099B005E
:1030700003F1E023C3F8002100BF70472DE9F05FA2
:1030800080460D461646002701F0E8FD0746394602
:103090002A46334601F00700C0F1070ABAF1040FCF
:1030A00002D94FF0040A01E0C0F1070AD14600F14D
:1030B000040ABAF1070F02D24FF0000A01E0A0F1B2
:1030C000030AD4464FF0010A0AFA09FAAAF1010AE2
:1030D0000AEA020A0AFA0CFA4FF0010B0BFA0CFB8F
:1030E000ABF1010B0BEA030B4AEA0B042146404605
:1030F00001F0BCFDBDE8F09F00BF00F00702064BE9
:1031000019684FF6FF031940044B0B4343EA0221B1
:10311000014B196000BF70470CED00E00000FA059C
:10312000F8B5044600250026207800F0010020B9FB
:10313000207800F0040004282FD100205B49886625
:10314000FFF712FF054606E0FFF70EFF401B0228BF
:1031500001D90320F8BD56480068C0F3C0600028BC
:10316000F2D160688101207A41EA007050498431CF
:10317000086001204D498866FFF7F6FE054606E027
:10318000FFF7F2FE401B022801D90320E2E748487E
:103190000068C0F3C0600028F2D0207800F0020080
:1031A00002287DD100BF00200090414840300068D7
:1031B00040F080503E49403108600846006800F009
:1031C0008050009000BF00BF3A48006840F4807013
:1031D00038490860FFF7C8FE054606E0FFF7C4FE61
:1031E000401B022801D90320B4E73248006800F4EC
:1031F00080700028F2D02E487030006800F44076CD
:103200004EB3A08900F44070B04224D028487030FA
:10321000006820F4407601202749086000200860FB
:10322000234870300660006800F0010098B1FFF795
:103230009BFE054608E0FFF797FE401B41F28831F0
:10324000884201D9032085E7194870300068C0F32F
:1032500040000028EFD000BFA08900F44070B0F516
:10326000407F0CD112480830006820F4F810134A4F
:10327000E168114008430E490831086007E00C4836
:103280000830006820F4F81009490831086008483F
:1032900070300068A189C1F30B010843044900E0C4
:1032A00002E07031086000BF002053E70000474291
:1032B0000038024000700040400E4742FFFCFF0F04
:1032C00070B504460D460CB9012070BD5848006821
:1032D00000F00F00A84209D255490D700846006859
:1032E00000F00F00A84201D00120EEE7207800F0A6
:1032F000020002281DD1207800F00400042805D126
:103300004C48006840F4E0504A490860207800F0DA
:103310000800082805D14748006840F46040454946
:1033200008604448006820F0F000A1680843414963
:103330000860207800F00100A8B36068012807D178
:103340003C4808380068C0F34040B8B90120BCE7E9
:103350006068022802D06068032807D13548083821
:103360000068C0F3406048B90120AEE73148083832
:103370000068C0F3400008B90120A6E72D480068A6
:1033800020F00300616808432A490860FFF7ECFD5C
:10339000064609E0FFF7E8FD801B41F288318842CC
:1033A00002D9032091E707E02248006800F00C00F2
:1033B0006168B0EB810FEDD11D48006800F00F008F
:1033C000A84209D91A490D700846006800F00F009C
:1033D000A84201D0012078E7207800F004000428FA
:1033E00007D11448006820F4E050E168084311490F
:1033F0000860207800F00800082808D10D4800680F
:1034000020F46040216940EAC1000A49086000F0E8
:103410003DF808490968C1F30311074A515CC840E7
:10342000064908600020FFF7CFFD00204DE70000AF
:10343000003C0240083802409A5B0008340000203B
:1034400001480068704700003400002000B5FFF715
:10345000F7FF04490968C1F38221034A515CC8405F
:1034600000BD000008380240AA5B000800B5FFF765
:10347000E7FF04490968C1F34231034A515CC8407F
:1034800000BD000008380240AA5B00082DE9F047A3
:10349000002400250026A1462548006800F00C0005
:1034A00020B1042805D008283AD105E0DFF884903F
:1034B00039E0DFF8849036E01D48001F006800F016
:1034C0003F041B48001F006800F4800078B11A48D0
:1034D0001749091F0968C1F38811A0FB0170014653
:1034E000224600233846FCF7EDFE05460EE0114863
:1034F0000F49091F0968C1F38811A0FB017001463B
:10350000224600233846FCF7DDFE05460848001F2A
:103510000068C0F30140401C4600B5FBF6F902E02C
:10352000DFF8109000BF00BF4846BDE8F0870000FC
:10353000083802400024F400001BB700F8B5044628
:103540000CB90120F8BD207800F00100002874D0EB
:10355000F948006800F00C0004280DD0F648006817
:1035600000F00C00082813D1F348001F006800F495
:103570008000B0F5800F0BD1EF4808380068C0F329
:103580004040002859D06068002856D10120D9E772
:1035900000BF6068B0F5803F08D1E7480838006890
:1035A00040F48030E449083908601EE06068B0F5F6
:1035B000A02F0DD1E0480838006840F48020DE4993
:1035C000083908600846006840F4803008600CE064
:1035D000D9480838006820F48030D7490839086095
:1035E0000846006820F48020086000BF606890B141
:1035F000FFF7BAFC054606E0FFF7B6FC401B64285F
:1036000001D903209EE7CC4808380068C0F3404049
:103610000028F1D011E0FFF7A7FC054606E0FFF710
:10362000A3FC401B642801D903208BE7C24808385B
:103630000068C0F340400028F1D1207800F002007B
:1036400002285FD1BC48006800F00C0058B1BA48AD
:10365000006800F00C0008281CD1B748001F006863
:1036600000F48000B0B9B44808380068C0F34000E6
:1036700020B1E068012801D0012063E7AE48083896
:10368000006820F0F800216940EAC100AA49083921
:10369000086037E0E06800B30120A8490860FFF740
:1036A00063FC054606E0FFF75FFC401B022801D9DA
:1036B000032047E7A04808380068C0F3400000280E
:1036C000F1D09D480838006820F0F800216940EAF0
:1036D000C10099490839086014E000209749086042
:1036E000FFF742FC054606E0FFF73EFC401B0228C0
:1036F00001D9032026E7904808380068C0F340004D
:103700000028F1D1207800F0080008282CD1606949
:10371000A8B101208A490860FFF726FC054606E0AB
:10372000FFF722FC401B022801D903200AE7824848
:103730006C300068C0F340000028F1D014E0002095
:103740007F490860FFF710FC054606E0FFF70CFC18
:10375000401B022801D90320F4E677486C3000684A
:10376000C0F340000028F1D1207800F004000428C4
:1037700070D1002670483830006800F0805090B951
:1037800000BF002000906C483830006840F0805046
:103790006949383108600846006800F080500090A0
:1037A00000BF00BF01266748006800F48070B0B910
:1037B0006448006840F4807062490860FFF7D4FBF9
:1037C000054606E0FFF7D0FB401B022801D9032085
:1037D000B8E65C48006800F480700028F2D000BFB2
:1037E000A068012808D154486830006840F0010002
:1037F0005149683108601DE0A06805280DD14E4888
:103800006830006840F004004B49683108600846A1
:10381000006840F0010008600CE04748683000682C
:1038200020F001004449683108600846006820F033
:103830000400086000BFA068A8B1FFF795FB05462B
:1038400009E0FFF791FB401B41F28831884202D921
:10385000032077E626E0384868300068C0F340006F
:103860000028EED013E0FFF77FFB054608E0FFF7E6
:103870007BFB401B41F28831884201D9032061E67D
:103880002D4868300068C0F340000028EFD1012EB9
:1038900007D129483830006820F080502649383157
:1038A000086000BFA069B8B32348006800F00C00AE
:1038B00008285ED0A069022846D100201F4908666A
:1038C000FFF752FB054606E0FFF74EFB401B0228C0
:1038D00001D9032036E6184808380068C0F3406074
:1038E0000028F1D1D4E907010843616A40EA811157
:1038F0000122A06AC2EB500041EA00412C20005D89
:1039000041EA00600C49091F086001200B49086664
:10391000FFF72AFB054607E02DE0FFF725FB401BDC
:10392000022801D903200DE6034808380068C0F3D7
:1039300040600028F1D01EE00838024000004742F5
:10394000800E47420070004000200C490866FFF7D7
:103950000BFB054606E0FFF707FB401B022801D9D9
:103960000320EFE506480068C0F340600028F2D16C
:1039700001E00120E6E50020E4E500000000474208
:103980000038024070B504462546681EB0F1807FBD
:1039900001D301200FE0681E4FF0E02148610F21A4
:1039A0004FF0FF3001F062F900204FF0E021886114
:1039B00007200861002070BD7047704710B50446AD
:1039C0000CB9012010BD94F83D0028B9002084F8FE
:1039D0003C00204600F00CF8022084F83D00211D38
:1039E000206800F0A5FD012084F83D000020E9E7F3
:1039F00038B504462068B0F1804F17D100BF0020D1
:103A000000900B48006840F0010009490860084632
:103A1000006800F00100009000BF00BF03220121F8
:103A20001C20FFF72BFB1C20FFF718FB38BD000004
:103A30004038024001460868C06840F001000B6849
:103A4000D8600868806800F00702062A05D0086878
:103A5000006840F001000B68186000207047704754
:103A600010B5044620680069C0F34000D8B1206852
:103A7000C068C0F34000B0B16FF002002168086177
:103A8000012020772068806900F0030018B12046EB
:103A9000FFF7E5FF05E0204600F0ADF8204600F016
:103AA000ABF80020207720680069C0F38000D8B10F
:103AB0002068C068C0F38000B0B16FF004002168D6
:103AC0000861022020772068806900F4407018B1F6
:103AD0002046FFF7C4FF05E0204600F08CF82046A2
:103AE00000F08AF80020207720680069C0F3C00049
:103AF000D8B12068C068C0F3C000B0B16FF0080052
:103B000021680861042020772068C06900F0030064
:103B100018B12046FFF7A3FF05E0204600F06BF840
:103B2000204600F069F80020207720680069C0F383
:103B30000010D8B12068C068C0F30010B0B16FF0B9
:103B4000100021680861082020772068C06900F40F
:103B5000407018B12046FFF782FF05E0204600F0D4
:103B60004AF8204600F048F80020207720680069D5
:103B700000F0010058B12068C06800F0010030B1C9
:103B80006FF0010021680861204600F037F82068D6
:103B90000069C0F3C01058B12068C068C0F3C010FD
:103BA00030B16FF08000216808612046FFF704FF04
:103BB00020680069C0F3801058B12068C068C0F365
:103BC000801030B16FF0400021680861204600F09D
:103BD00021F920680069C0F3401058B12068C0681E
:103BE000C0F3401030B16FF020002168086120461A
:103BF000FFF7E3FE10BD70477047000070B52DED74
:103C0000028B05469FED720AB0EE408A71488542EC
:103C10007ED171480068401C6F490860B0F57A7F1A
:103C200001DB002008606C49086800EBD071491086
:103C3000A0EB410199BB01F073FA01F03BFA67492F
:103C400008606749674801F0D5FA674890ED481A5F
:103C5000F0EE410A90ED461AB0EE410A634801F0D9
:103C600043FB624890ED0F0A5F4880ED490A90EDF2
:103C7000491AF0EE410A90ED4A1AB0EE410A5C484A
:103C800001F032FB5A4991ED120ABDEEC00A10EE66
:103C9000101A08B200231A461946FEF7E7F94E48F3
:103CA00000680A2190FBF1F201FB120030BB514881
:103CB000B0F9000000EE100AB8EEC00ADFED4E0ABF
:103CC00020EE200A4D48B0F9000000EE900AF8EE10
:103CD000E00A9FED4B1A00EE810AB0EE408A9FED9C
:103CE000490A28EE000ADFED480A80EE201A3E4815
:103CF00080ED481A414800883E49088036480068EF
:103D0000642190FBF1F201FB120000285DD100E07C
:103D10005BE001F00FFA01203C498861FCF798FA5A
:103D20000446C01704EB90508012A4EB8021374862
:103D3000C161FCF78DFA0446C01704EB9050801265
:103D4000A4EB802131480162B7EE000A80ED000A41
:103D5000FCF77EFA0446C01704EB90508012A4EBE7
:103D6000802000EE100AB8EEC00ADFED290A20EE2E
:103D7000200A264880ED010AFCF76AFA0446C017BB
:103D800004EB90508012A4EB802000EE100AB8EEF5
:103D9000C00ADFED1F0A20EE200A1C4880ED020A4F
:103DA0000D480068642190FBF1F201FB12001749F5
:103DB000486209480068642190FBF1F201FB12009F
:103DC000124988620846FEF729F9BDEC028B70BDE6
:103DD000000000004C060020200000201C000020F5
:103DE000B40400209C0700208C060020E005002081
:103DF00074050020240000209A99193F68080020CB
:103E0000CDCCCC3E0000B44300002544C8020020C5
:103E1000CDCCCC3D704710B504460CB9012010BD87
:103E2000A06900B100E000BF94F8390028B9002073
:103E300084F83800204600F027F8242084F8390060
:103E40002068C06820F400502168C860204600F057
:103E5000DBFB2068006920F490402168086120683D
:103E6000406920F02A00216848612068C06840F459
:103E700000502168C8600020E063202084F83900E9
:103E800084F83A000020CAE710B586B00446142131
:103E900001A8FCF76CFC6F49206888425BD100BF29
:103EA000002000906C48006840F480206A49086057
:103EB0000846006800F48020009000BF00BF00BFEB
:103EC0000020009064481038006840F00400624907
:103ED000103908600846006800F00400009000BF38
:103EE00000BF4FF440600190022002900120039037
:103EF000032004900720059001A95848FEF724FFED
:103F00005748584908604FF0006048600021554804
:103F10008160C1604FF48061016100214161816174
:103F20004FF48071C1614FF4403101620021416260
:103F3000FEF794FE08B1FEF77FF900BF49486063C1
:103F4000846300BF002211462720FFF797F827203F
:103F5000FFF784F87CE044492068884278D100BFAC
:103F6000002000903C48001D006840F010003A49D5
:103F7000091D08600846006800F01000009000BFAE
:103F800000BF00BF0020009033481038006840F0A8
:103F900001003149103908600846006800F001004E
:103FA000009000BF00BF00BF0020009008460068DE
:103FB00040F0020008600846006800F0020000902F
:103FC00000BF00BF4815019002200290012003901D
:103FD000032004900720059001A92448FEF7B4FEB1
:103FE0008020019002200290012003900320049081
:103FF0000720059001A91E48FEF7A6FE1D481E4990
:1040000008604FF00060486000211B488160C1607B
:104010004FF4806101610021416181614FF4807141
:10402000C1614FF44031016200214162FEF716FE8A
:1040300008B1FEF701F900BF0F486063846300BF59
:10404000002211462520FFF719F82520FFF706F872
:1040500006B010BD00480040403802400008024051
:10406000286002407C000020001001400000024057
:1040700000040240406402401C0100202DE9F84386
:1040800004460D4616461F464FF0000994F83900C5
:1040900020285CD105B116B90120BDE8F88300BF26
:1040A00094F83800012801D10220F6E7012084F8B5
:1040B000380000BF0020E063212084F83900FEF7BB
:1040C00053FF8146A684E6842BE0E08C401EE0840A
:1040D000A068B0F5805F16D14B46002280212046B3
:1040E000009700F045FC08B10320D6E7A846B8F8D1
:1040F0000000C0F3080021684860206908B9AD1CC1
:104100000FE06D1C0DE04B460022802120460097F9
:1041100000F02EFC08B10320BFE715F8010B216861
:104120004860E08C0028D0D14B4600224021204638
:10413000009700F01DFC08B10320AEE7202084F8B2
:10414000390000BF002084F8380000BFA5E7022036
:10415000A3E700BFFEE7000008B500BF0020009005
:104160001648006840F400101449086008460068CA
:1041700000F40010009000BF00BF00BF00200090BE
:104180000846006840F4800008600846006800F4B3
:104190008000009000BF00BF002211460C20FEF7F7
:1041A0006DFF0C20FEF75AFF002211463A20FEF761
:1041B00065FF3A20FEF752FF08BD0000303802408C
:1041C00000B587B0142102A8FCF7D1FA00BF002087
:1041D00001901F48006840F001001D490860084632
:1041E000006800F00100019000BF00BF00BF002088
:1041F00001900846006840F0040008600846006826
:1042000000F00400019000BF00BF00BF002001903B
:104210000846006840F0800008600846006800F02A
:104220008000019000BF00BF01224FF4E051094817
:10423000FEF793FE4FF4E0500290012003900490AB
:104240000220059002A90348FEF77EFD07B000BDDD
:1042500030380240001C024010B50B480B49086082
:104260000B484860002109488160C1604FF48061BB
:1042700001610421416100218161C161FFF7CBFD32
:1042800008B1FDF7D9FF10BD004800403C000020F8
:10429000A086010000BFFEE7704700002DE9F04155
:1042A0002DED048B04460D4616461F46B0EE408A9F
:1042B000F0EE608AB0EE419A0A4860660A48A0664D
:1042C000B0EE491AF0EE680AB0EE480A3B463246B4
:1042D00029462046D4F864C0E047BDEC048BBDE815
:1042E000F0810000ED5400081555000870470000EB
:1042F00010B5234B1B685B6943F04003204C2468D6
:1043000063611F4B1B68DB6843F010031C4C24687F
:10431000E3601C4B1B681B6823F00103194C2468E5
:10432000236007E0174B1B681B6823F00103154C43
:1043300024682360134B1B681B6803F00103002BE8
:10434000F0D1114B0F4C2468A3600E4B1B68D86052
:104350000C4B1B6819610B4B1B685A60094B1B689F
:104360001B6843F48023074C24682360054B1B68BB
:104370001B6843F00103034C2468236010BD000058
:104380003C0000207C0000200448004010B50B4891
:104390000B4908604FF4E130486000210848816013
:1043A000C16001610C21416100218161C161FFF7A0
:1043B00032FD08B1FDF740FF10BD000000100140C4
:1043C000DC00002010B5FFF7E1FF62220249A1F1F5
:1043D0006200FDF773FE10BDDE010020704710B5CE
:1043E000FEF7C8FD10BD000000B597B030210BA846
:1043F000FCF7BDF9142106A8FCF7B9F900200290DA
:1044000003900490059000BF01902948006840F097
:104410008050274908600846006800F080500190ED
:1044200000BF00BF00BF002001902248006840F498
:104430008040204908600846006800F480400190F0
:1044400000BF00BF01200B9000040C9002201190CF
:104450004105129106211391A82114910221159171
:10446000072116910BA8FFF769F808B1FDF7E4FEE4
:104470000F20069002200790002008904FF4A050D3
:1044800009904FF480500A90052106A8FEF718FF06
:1044900008B1FDF7D1FE022002900748059002A85E
:1044A000FEF73EFE08B1FDF7C7FE17B000BD0000E5
:1044B000403802400070004000031E0014480068AD
:1044C00040F47000124908601248006840F0010092
:1044D0001049086000200F49083108600D48006845
:1044E0000D4908400B4908600C48091D0860081F69
:1044F000006820F48020091F0860002005490C3165
:1045000008604FF000600249803908607047000081
:1045100088ED00E000380240FFFFF6FE1030002476
:1045200010B50248FFF79CFA10BD00004C060020B1
:1045300010B50268294B98420ED0B0F1804F0BD0D5
:10454000274B984208D0274B984205D0264B9842DB
:1045500002D0264B984203D122F070024B681A43D6
:104560001E4B984220D0B0F1804F1DD01C4B98427A
:104570001AD01C4B984217D01B4B984214D01B4B9F
:10458000984211D01A4B98420ED01A4B98420BD039
:10459000194B984208D0194B984205D0184B9842B5
:1045A00002D0184B984203D122F44072CB681A43D0
:1045B00022F080034C6943EA040202608B68C36204
:1045C0000B688362054B984202D0084B984201D198
:1045D0000B6903630123436110BD0000000001402B
:1045E0000004004000080040000C004000040140AE
:1045F00000400140004401400048014000180040D4
:10460000001C0040002000402DE9F04104462068D5
:10461000006920F44050E16808432168086121697D
:10462000A068084361690843E16940EA0105206820
:10463000C06849F20C61884328432168C86020683B
:10464000406920F44070A169084321684861E0692D
:10465000B0F5004F7ED1C4492068884203D0C349D9
:10466000206888425DD1FEF701FF00EBC00101EB3D
:10467000001061684900B0FBF1F06421B0FBF1F07B
:104680000601FEF7F3FE00EBC00101EB00106168CC
:104690004900B0FBF1F7FEF7E9FE00EBC00101EBCA
:1046A000001061684900B0FBF1F06421B0FBF1F04B
:1046B00000EBC00101EB0010A7EB8000322101EB01
:1046C000C0006421B0FBF1F000F0F80006EB4006FA
:1046D000FEF7CCFE00EBC00101EB00106168490061
:1046E000B0FBF1F7FEF7C2FE00EBC00101EB0010DA
:1046F00061684900B0FBF1F06421B0FBF1F000EB20
:10470000C00101EB0010A7EB8000322101EBC000DB
:104710006421B0FBF1F000F00700304421688860AC
:1047200020E1FEF793FE00EBC00101EB0010616891
:104730004900B0FBF1F06421B0FBF1F00601FEF797
:1047400085FE00EBC00101EB001061684900B0FB81
:10475000F1F700E045E0FEF779FE00EBC00101EB68
:10476000001061684900B0FBF1F06421B0FBF1F08A
:1047700000EBC00101EB0010A7EB8000322101EB40
:10478000C0006421B0FBF1F000F0F80006EB400639
:10479000FEF75CFE00EBC00101EB00106168490010
:1047A000B0FBF1F7FEF752FE00EBC00101EB001089
:1047B00061684900B0FBF1F06421B0FBF1F000EB5F
:1047C000C00101EB0010A7EB8000322101EBC0001B
:1047D0006421B0FBF1F000F00700304421688860EC
:1047E000C0E061492068884203D06049206888425F
:1047F0005CD1FEF73BFE00EBC00101EB00106168ED
:104800008900B0FBF1F6FEF731FE00EBC00101EBD1
:10481000001061688900B0FBF1F06421B0FBF1F099
:1048200000EBC00101EB0010A6EB8000322101EB90
:1048300000106421B0FBF1F000F0F006FEF716FE68
:1048400000EBC00101EB001061688900B0FBF1F0E2
:104850006421B0FBF1F006EB0016FEF707FE00EB5B
:10486000C00101EB001061688900B0FBF1F7FEF7B1
:10487000FDFD00EBC00101EB001061688900B0FB99
:10488000F1F06421B0FBF1F000EBC00101EB00108E
:10489000A7EB8000322101EB00106421B0FBF1F0A6
:1048A00000F00F003044216888605BE0FEF7CEFD29
:1048B00000EBC00101EB001061688900B0FBF1F66C
:1048C000FEF7C4FD00EBC00101EB00106168890038
:1048D000B0FBF1F06421B0FBF1F000EBC00101EBA3
:1048E0000010A6EB8000322101EB00106421B0FB28
:1048F000F1F000F0F006FEF7A9FD00EBC00101EBBE
:10490000001061688900B0FBF1F06421B0FBF1F0A8
:1049100006EB0016FEF79AFD00EBC00101EB00105C
:1049200061688900B0FBF1F7FEF790FD00EBC00174
:1049300001EB001061688900B0FBF1F06421B0FB6D
:10494000F1F000EBC00101EB0010A7EB8000322179
:1049500001EB00106421B0FBF1F000F00F003044D7
:1049600021688860BDE8F08100100140001401401A
:104970002DE9F04104460D4617469846069E21E073
:10498000701CF8B12EB1FEF7EFFAA0EB0800B042B0
:1049900018D92068C06820F4D0702168C8602068E9
:1049A000406920F0010021684861202084F8390026
:1049B00084F83A0000BF002084F8380000BF0320CC
:1049C000BDE8F081206800682840A84201D101209C
:1049D00000E00020B842D3D00020F1E708B54B48F2
:1049E0000068006800F0200060B100BF0020009067
:1049F000464800680068009044480068406800909D
:104A000000BF82E04248006800F0100000287CD01F
:104A100000BF002000903D480068006800903B48BF
:104A200000684068009000BF00BF3A480068006816
:104A300000F4002080BB37480068006820F00100C7
:104A4000344909680860334800684068C0F13100A3
:104A50003149088031202F49096848602D48006895
:104A6000006840F400202B49096808602948006864
:104A7000006840F00100274909680860264800885E
:104A800016283BD1254890F821000A2836D1244920
:104A90002248FDF79BFA31E0FFE71E4800680068F6
:104AA00020F001001B49096808601A480068406846
:104AB000C0F124001849088024201649096848607C
:104AC00014480068006820F4002012490968086052
:104AD00010480068006840F001000E49096808604D
:104AE0000D480088162809D10C4890F883000A2840
:104AF00004D10B4909486230FDF768FA31230648B2
:104B0000028808A10A48FBF755FC08BDDC0000201C
:104B1000001001401C010020000000207C0100204A
:104B2000A40200202564202C2025640D0A0000002A
:104B30004002002008B541480068006800F02000ED
:104B400060B100BF002000903C4800680068009001
:104B50003A4800684068009000BF6EE0384800683E
:104B600000F01000002868D000BF002000903348FB
:104B7000006800680090314800684068009000BFFD
:104B800000BF30480068006800F4002058BB2D4882
:104B90000068006820F001002A4909680860294877
:104BA00000684068C0F12400274908802420254976
:104BB0000968486023480068006840F400202149E3
:104BC000096808601F480068006840F001001D493E
:104BD000096808601C48008812282ED11B491C480F
:104BE00000F0AAFC29E017480068006820F00100E6
:104BF000144909680860134800684068C0F124003F
:104C00001149088024200F49096848601148806ACA
:104C100020F400200F4988620A480068006840F0CC
:104C2000010008490968086007480088122804D173
:104C300006490748243000F07FFC08BD3C000020F6
:104C4000004800407C000020380000206808002058
:104C50007E0800200060024000BFFEE702480068B6
:104C6000C0F30220704700000CED00E010B50028F2
:104C700004DB0A07130E054A135406E00A07140E54
:104C8000034A00F00F031B1FD45410BD00E400E0E2
:104C900018ED00E00000000030B52DED048B81B070
:104CA000B0EE408AF0EE608A6A4651EC180B00F0D4
:104CB000BBF900989FED329B7E300090002821DCEC
:104CC00053EC192B51EC180B00F02CFD1AD00021DD
:104CD00040F608004FF00000044651EC180B00F0BD
:104CE000DBFC08EE100A40F6080004EA00014FF071
:104CF0000000B5EEC08AF1EE10FA04BF0220FCF706
:104D00000CFB2DE00098FF2830DB002108464FF017
:104D1000000000F4400553EC192B51EC180B00F087
:104D200077FE8CBF002401240220FCF7F6FA9FEDE9
:104D3000168A4DB1002C0CBF4FF400004FF48000D8
:104D4000A84218BF9FED118A042108464FF00000C9
:104D5000002C01BFB1EE480A01B0BDEC048B30BDA0
:104D6000B0EE480A01B0BDEC048B30BD51EC180B1D
:104D700000F092FC01B000EE100ABDEC048B30BDD7
:104D800000000000000000000000807FFFFF7F7F28
:104D900030B540F2FF742DED048BF0EE608A18EE12
:104DA000901A85B0B0EE408A9FED2B9B05468DEDA5
:104DB000008B34EA115147D053EC192B51EC180BEE
:104DC00000F0B0FC40D02A4651EC180B00F095FEE4
:104DD00041EC180B18EE900A8DED008B34EA105060
:104DE0001CD053EC192B51EC180B00F09BFC2BD171
:104DF0000220FCF792FA00F043F810EE901A18EE39
:104E0000900A8DED020B8DED008B61F31E00039077
:104E10009DED020B05B0BDEC048B30BD0220FCF70C
:104E20007CFA00F01DF810EE901A18EE900A8DED45
:104E3000020B8DED008B61F31E0003909DED020BC4
:104E400005B0BDEC048B30BD05B0B0EE480AF0EE05
:104E5000680ABDEC048B30BD0000000000000000BB
:104E60009FED050B10B553EC102B51EC100B00F01F
:104E7000D1FC41EC100B10BD0000000000000070E0
:104E80009FED050B10B553EC102B51EC100B00F0FF
:104E9000C1FC41EC100B10BD000000000000001030
:104EA00010B5044691ED000BFFF7F6FE84ED000A05
:104EB00010BD10B5044690ED000B0846FFF768FFE3
:104EC00084ED000B10BD30380A2801D20120704754
:104ED00000207047D0ED000AF4EEC00AF1EE10FA9F
:104EE00001DD80ED000AD0ED000AB1EE401AF4EECB
:104EF000C10AF1EE10FA03D2F1EE400AC0ED000A49
:104F00007047000000B58BB0012009900020079089
:104F100001200890002001900290039004900690D8
:104F2000059001A90C48FDF749FA0B48FDF75FFE13
:104F300002210948FDF781F90E200A90069001A987
:104F40000648FDF73BFA0548FDF751FE02210348EC
:104F5000FDF773F90BB000BDA4030020CC030020C3
:104F600010B51C481C4908600320486000211A48FD
:104F70008160C1604FF4102101614FF40011416163
:104F80000021017641768176C17601774177FDF780
:104F90008DFC08B1FDF750F9104811490860032055
:104FA000486000210E488160C1604FF4102101610A
:104FB0004FF4001141610021017641768176C1767E
:104FC00001774177FDF772FC08B1FDF735F9FFF77E
:104FD00099FF10BD00640040A40300200068004059
:104FE000CC03002010B59FED0D1AF2EE0E0AB1EEC3
:104FF000080A42F210735A0004210948FFF74EF9DB
:10500000B7EE001ADFED050AB2EE040A64234FF48E
:10501000967203210348FFF741F910BD000000001C
:1050200074050020E005002010B582B01446CDE9DB
:1050300000010023009A2360194B21F000409842A0
:105040002ADA024328D0B0F5801FA8BF226810DA00
:105050009FED150B53EC102B9DED000B51EC100B3D
:1050600000F0D8FBCDE900016FF0350221F00040DF
:1050700022600F4B6FF31E5103EB20501044206051
:1050800041F0FF5040F0005001909DED000B00BF3B
:1050900002B051EC100B10BD9DED000BF8E70000C5
:1050A0000000F07F000000000000000000005043FE
:1050B00002FCFFFF00487047B404002000B587B031
:1050C000142102A8FBF753FB00BF002001901248F7
:1050D000006840F01000104908600846006800F0C1
:1050E0001000019000BF00BF4FF42060029001202B
:1050F000039004900020059002A90848FDF724FEC3
:10510000012251020548FDF728FF0122D102034880
:10511000FDF723FF07B000BD303802400010024009
:1051200010B54FF400710248FDF70EFF10BD0000EE
:105130000010024010B54FF480610248FDF704FFF3
:1051400010BD0000001C024000B587B0142102A869
:10515000FBF70DFB00BF002001901548006840F0F0
:105160008000134908600846006800F08000019044
:1051700000BF00BF4FF4E050029001200390049064
:105180000020059002A90B48FDF7DEFD01229102E7
:105190000848FDF7E2FE0122D1020648FDF7DDFED8
:1051A000012211030348FDF7D8FE07B000BD00003F
:1051B00030380240001C0240FDF7E8FEFFF714F90A
:1051C000FEF7FEFFFEF7C8FFFFF746F800F0AAF96A
:1051D000FFF7C6FE40F2E731532000F01BFAFFF75D
:1051E0006DFFFFF7B1FFFFF7FDFEFFF7EBF800BF24
:1051F000FEE700009FED1E0A80ED0F0A90ED020A07
:1052000080ED030A91ED060AB8EEC00ADFED190A37
:1052100020EE200ADFED180A20EE200A80ED020AB7
:1052200090ED070A80ED080A90ED020AD0ED030A1E
:1052300030EE600AD0ED0F0A20EE200ADFED0F0AF3
:1052400020EE200ADFED0B0A80EE201A80ED071A0F
:1052500090ED070ADFED0A0A20EE200AD0ED080AD9
:105260009FED081A00EE810A80ED060A70470000E3
:105270000000FA430000B44300040039000070420B
:10528000CDCCCC3E9A99193F8289C2814A780B785D
:1052900042EA03228281CA788B7842EA032212B260
:1052A00002804A790B7942EA032212B202818A799A
:1052B00082728289C389D21AB2F5805F03DD4269A6
:1052C000521E426108E08289C389D21A12F5805FBA
:1052D00002DA4269521C42618389426903EB42321D
:1052E000038AD21A8261704700B50146F0EE401A77
:1052F000B0EE602AC1ED081A81ED052A32EE610A8E
:1053000081ED0B0A91ED140AB5EEC00AF1EE10FA28
:1053100017D091ED0B0AB5EEC00AF1EE10FA02DDDE
:1053200091ED0B0A03E091ED0B0AB1EE400AD1EDCD
:10533000140AB4EEE00AF1EE10FA02DD9FED6A0AFB
:1053400000BD91ED150AB5EEC00AF1EE10FA17D0C6
:1053500091ED0B0AB5EEC00AF1EE10FA02DD91ED07
:105360000B0A03E091ED0B0AB1EE400AD1ED150AEC
:10537000B4EEE00AF1EE10FA02D29FED5B0ADFE72D
:10538000886D03283ED191ED000AD1ED0B0A20EE85
:10539000200A81ED0C0A91ED0D0AD1ED010A91ED83
:1053A0000B1A00EE810A81ED0D0A91ED0B0AD1ED89
:1053B0000A0A30EE600AD1ED020A20EE200A81EDE1
:1053C0000E0AD1ED180AB0EE600A01F13400FFF7C1
:1053D00081FD91ED0C0AD1ED0D0A30EE200AD1EDE0
:1053E0000E0A30EE200A81ED0F0AD1ED170AB0EE59
:1053F000600A01F13C00FFF76DFD91ED0F0A81EDB0
:10540000100A50E0886D04284DD191ED0B0AD1EDC2
:105410000A0A30EE600AD1ED000A20EE200A81ED82
:105420000C0A91ED010AD1ED0B0A20EE200A81ED64
:105430000D0A91ED0B0AD1ED0A0AB0EE001A01EE49
:10544000600AD1ED090A30EE200AD1ED020A20EE01
:10545000200A81ED0E0AD1ED180AB0EE600A01F1C2
:105460003400FFF737FD91ED0C0AD1ED0D0A30EE57
:10547000200AD1ED0E0A30EE200A81ED110A91EDDD
:10548000130AD1ED110A30EE200A81ED120AD1ED96
:10549000170AB0EE600A01F14800FFF71BFD91ED1D
:1054A000120A81ED130A91ED0A0A81ED090A91EDC4
:1054B0000B0A81ED0A0A91ED070A81ED060A91EDCA
:1054C000080A81ED070A91ED040A81ED030A91EDC6
:1054D000050A81ED040A886D032802D191ED0F0AB7
:1054E0002EE791ED120A2BE70000000001EE903A42
:1054F000F8EE611AC0ED181A01EE902AF8EE611A62
:10550000C0ED171A816580ED000AC0ED010A80ED3B
:10551000021A704780ED000AC0ED010A80ED021A00
:105520007047000010B524220249A1F12400FEF7C3
:10553000DFFE10BDA208002000B101B9704702785B
:10554000437842EA0322C2F30A020A804278D21068
:10555000837842EA4312C2F30A024A8082789211A7
:10556000C37842EA8302037942EA8322C2F30A0241
:105570008A8002795210437942EAC312C2F30A02C6
:10558000CA804279C2F301128A72427912119308D9
:10559000CB728279C37942EA032212B28A81027AFB
:1055A000437A42EA032213B201F10C02CB81827AE0
:1055B000C37A42EA032213B201F10C020B82037B8D
:1055C0008B74437BCB74827BC37B42EA03228A8247
:1055D000027C437C42EA032212B20A810A88A2F5C5
:1055E000806212B20A804A88A2F5806212B24A80B2
:1055F0008A88A2F5806212B28A80CA88A2F5806287
:1056000012B2CA800A89A2F5806212B20A8100BF72
:1056100094E7000070B505460C464FF080400749FE
:1056200008600846446000218160C5600161FEF7A2
:10563000C5F90248FEF7FEF970BD00004C060020D7
:1056400010B500290AD00878002807D0054878440A
:10565000FCF79EF8002801D0002010BD02487844D5
:1056600010BD00002A0600002206000010B5002927
:105670000AD00878002807D005487844FCF788F855
:10568000002801D0002010BD0248784410BD000061
:105690001A0600001206000021F00042A2F160523A
:1056A000B2F5801F01F0004328BFD2F17F6C0BD907
:1056B0005FEA001C43EAC20242EB507018BF704719
:1056C00028BF20F001007047B2F5801FBCBF18460C
:1056D00070474FEA410C1CF5001F02D2084600F04B
:1056E000D2B970B500F040F900000089FFF7F6BFAD
:1056F0004FF00040A0F580007047000002494FF0D5
:10570000000000F0C8B900BF0000F87F491058BF82
:10571000C1F140415B1058BFC3F140438B42EFF3EE
:105720000080704751EA030C17D41CF5801F58BF46
:10573000BCF5801F00F10680994218BF704708BF72
:105740009042704707D711F5801F58BF13F5801F8F
:1057500019D499427047894270471CF5801F08D5BB
:10576000BCF5801FF7D58B4218BF704708BF824237
:1057700070474FF4001C1CEB410F38BF1CEB430F6C
:1057800001D28B42704770B500F0EEF892244900C8
:105790004FF000514FF08053FFF7B8BF51EA030CB0
:1057A00017D41CF5801F58BFBCF5801F00F1068080
:1057B000994218BF704708BF9042704707D711F54C
:1057C000801F58BF13F5801F19D499427047894232
:1057D00070471CF5801F08D5BCF5801FF7D58B429C
:1057E00018BF704708BF824270474FF4001C1CEB83
:1057F000410F38BF1CEB430F01D28B42704770B58D
:1058000000F0B2F8922449004FF000514FF080535D
:10581000FFF77CBFDFF848C170B51CEA111E1EBF40
:105820001CEA13159EEA0C0F95EA0C0F00F06F802E
:1058300081EA030423EA4C134EEAD47E21EA4C1198
:1058400041F4801143F48013AE44A1FB024CA0FB51
:105850000365AEF17F7E361955EB0C05A1FB034CB9
:105860004CF10003A0FB021C16EB0C06654153F142
:105870000003094218BF46F0010613F4007F0BD164
:105880004FEA03314FEA0530340341EA155140EA4B
:1058900016506FF003020AE04FEAC3214FEAC52019
:1058A000F40241EA555140EA56506FF0020202EB11
:1058B0002E4201EB025585EACE710AD05FEA440C14
:1058C00018BF24F0004450F1000041F1000120EA2B
:1058D000D47040F2FE7C624500D270BDA84214BF75
:1058E0004FF080444FF04044002E08BF0024BEF12A
:1058F000806FA8BFA1F1C041BDE8704080F28280F6
:105900004FF0000001F1C04101F0004170479EEAF4
:105910000C0F0CEA131518BF95EA0C0F06D04FF0C8
:10592000000081EA030E0EF0004170BD00F01CF88B
:105930008900013E00F007B800F009B84FEA430CB7
:105940005FEA5C5C08D081EA030100F05BB84FEAD3
:10595000410C5FEA5C5CF6D14FF0000001497047F2
:105960000000FF070000F87F0EF1020E2EF0030E7C
:105970005EF8046B364205D4012A43EB030515F5A6
:10598000001F12D8012841EB010C1CF5001F0CD898
:105990000ED14FEAD17C15F5001F0CEB4C0C0CF12D
:1059A000020C08BF4CEBD37C04E04FF0080C01E084
:1059B0004FEAD37C0CEB4C0526FA05F606F00706F9
:1059C000B6F1040C06D20EEB860CBDE870404CF02C
:1059D000010C6047DFE80CF0090B02024FF00041B8
:1059E0004FF00000A1F5002170BD194610460128B6
:1059F00051EB010418BFD4F5001484BF002001F05E
:105A0000004170BD0808A0F500114FEA3101704750
:105A100053EA010C17D41CF5801F58BFBCF5801F3A
:105A200000F106808B4218BF704708BF8242704762
:105A300007D713F5801F58BF11F5801F19D48B426B
:105A400070479B4270471CF5801F08D5BCF5801F2E
:105A5000F7D5994218BF704708BF904270474FF47E
:105A6000001C1CEB430F38BF1CEB410F01D29942C5
:105A700070470FB40CBC03BCFFF7C1BE4FF04070C1
:105A8000E1EE100A7047FF2141EAD050C00570478F
:105A90004FF0000070470CF00F03092B08BF0820DF
:105AA00000F05F800A2B0BD0082B18BF704708BF8F
:105AB0001CF0400F0AD04FF000004FF0000170477B
:105AC0001CF0400F18BF4FF0004070471CF0100F43
:105AD00008D020F0704300F07F4242EAD3014FEA41
